:1000000601020000000000000000000000000000f5
:100600008A11112BFF3FFF3FFE00030EF800040884
:10061000F9000A08FA00831203137F08FB008A110D
:100620000E2D8A11AD2FF500FF30F0007008F60096
:10063000DA2B831203134708FF39F0007008F60025
:10064000122C831203134608FF39F0007008F600DD
:10065000122C831203134A08F0007008F600122CC3
:10066000831203134808F0007008F600122C83125E
:1006700003134508F0007008F600122C83120313D0
:100680004308F0007008F600122C8312031344088C
:10069000F0007008F600122C831203134208F000D9
:1006A0007008F600122C831203134108F000700842
:1006B000F600122C831203133D08F0003E08F100EF
:1006C0003F08F2004008F30018300310F30CF20C5E
:1006D000F10CF00CFF3E031D652B7008F40074084C
:1006E000F600122C831203133D08F0003E08F100BF
:1006F0003F08F2004008F30010300310F30CF20C36
:10070000F10CF00CFF3E031D7D2B7008F400740803
:10071000F600122C831203133D08F0003E08F1008E
:100720003F08F2004008F30008300310F30CF20C0D
:10073000F10CF00CFF3E031D952B7008F4007408BB
:10074000F600122C831203133D08F0007008F60027
:10075000122C831203134B08F0007008F600122CC1
:10076000F03084008F3083120313FF008A119B271F
:100770008A11F0007008F600122CF13084008F30DE
:1007800083120313FF008A119B278A11F00070085F
:10079000F600122CF23084008F3083120313FF0016
:1007A0008A119B278A11F0007008F600122CF601BE
:1007B000122C122C7508003A0319192B013A03194F
:1007C000212B033A0319292B013A0319302B133A31
:1007D0000319372B013A03193E2B033A0319452B12
:1007E000323A03194C2B013A0319532B053A0319DA
:1007F0005A2B013A0319722B033A03198A2B013A37
:100800000319A22B0F3A0319A92B6B3A0319CA2B10
:10081000153A0319B02B343A0319D72B143A03199C
:10082000BD2B122C7608142C0800F300DB2C83124D
:1008300003134708710600397106C700C71C212C35
:10084000222C0D2D00280D2D0D2D8312031346088B
:10085000710600397106C6000D2D7108F20072088C
:1008600083120313CA000D2D7108F200720883125F
:100870000313C8000D2D7108F200720883120313D0
:10088000C5000D2D7108F200720883120313C30016
:100890000D2D7108F200720883120313C4000D2D90
:1008A00058308A11CD278A110D308A11CD278A112F
:1008B0000D2D50308A11CD278A112C308A11CD2769
:1008C0008A117108303E8A11CD278A110D308A11A4
:1008D000CD278A110D2D5A308A11CD278A1130303B
:1008E0008A11CD278A110D308A11CD278A110D2D3D
:1008F0005A308A11CD278A1133308A11CD278A11B7
:1009000030308A11CD278A110D308A11CD278A11F6
:100910000D2D5A308A11CD278A1134308A11CD27F6
:100920008A1130308A11CD278A110D308A11CD27D6
:100930008A110D2D5A308A11CD278A1139308A112A
:10094000CD278A1130308A11CD278A110D308A11B6
:10095000CD278A110D2D5A308A11CD278A113230B8
:100960008A11CD278A110D308A11CD278A110D2DBC
:100970005A308A11CD278A1131308A11CD278A1138
:1009800030308A11CD278A110D308A11CD278A1176
:100990000D2D5A308A11CD278A1136308A11CD2774
:1009A0008A1132308A11CD278A110D308A11CD2754
:1009B0008A110D2D0D2D7308003A0319172C013AD9
:1009C0000319252C033A03192D2C013A0319342C51
:1009D000133A03193B2C013A0319422C033A031929
:1009E000492C523A0319502C013A0319592C033A55
:1009F00003196B2C013A0319782C073A0319892C37
:100A0000013A03199A2C033A0319AB2C013A031942
:100A1000B82C0F3A0319C92C0D2D080087158C1D11
:100A2000122D132D952D831603138C1D182D192DA2
:100A3000952D941A1C2D1D2D302D1419202D212D8E
:100A4000302D141C242D252D302D83120313130853
:100A5000F7007708FC00FF30F7007708C900922DF7
:100A6000941E332D342D5D2D1419372D382D5D2D09
:100A7000141C3B2D3C2D5D2D831203131308F7002E
:100A80007708FC004908FF3A031D472D482D4D2DDE
:100A90007C08F7007708C900922D7C08F7007708DA
:100AA000F10049088A1115248A11FE30F7007708F1
:100AB00083120313C900922D922D941A602D612D7B
:100AC0007C2D141D642D652D7C2D1418682D692D29
:100AD0007C2D831203131308F7007708FC004908E4
:100AE0008A1113238A118312031393000130F70034
:100AF0007708C9071416922D941E7F2D802D922DF4
:100B0000141D832D842D922D1418872D882D922D40
:100B1000831203131308F7007708FC00922D922D1F
:100B2000922D922D83128C11952D83128C1E992D4E
:100B30009A2DAB2D831603138C1E9F2DA02DAB2D4C
:100B400083120313CE010314CE0D1A08F7007708A1
:100B5000CD00AB2DAB2D7B088312FF007A088A00F5
:100B600079088400780E8300FE0E7E0E0900831241
:100B7000031381018A11CC268A1150308A11BE27B5
:100B80008A112C308A11BE278A1131308A11BE2772
:100B90008A110D308A11BE278A1106308312031381
:100BA000E2001330E100B130E000E00BD52DE10BA5
:100BB000D52DE20BD52DDC2D8A116C278A11E02D65
:100BC000831203134E08013A031DE72DE82D2F2E43
:100BD000CE01D008031DED2DEE2DFA2D4D080D3A56
:100BE000031DF32DF42D2F2ED0010314D00DCF01B2
:100BF0002F2E2F2E4D08E0004F08A03E84006008E5
:100C0000831380004F08A03E840000080D3A0319AA
:100C10000A2E0B2E122E4F08123A031D102E112EE3
:100C2000282E122E4F08A03E840000080D3A031D06
:100C30001A2E1B2E242E4F08A03E84008001A030C7
:100C40008A1143268A11242E83120313D0012F2EDA
:100C50000130E0006008CF072F2E2F2E2F2E941F7B
:100C6000322E332E342E9413141F372E382E392E55
:100C70001413141A3C2E3D2EE02D1416E02DE02DF9
:100C8000E02D8A11112B83120313DE00DA01DB0140
:100C90000314DB0DDC01DD01DF0105305F02031C05
:100CA000522E532E552EBE2EBE2E5F085E07D70045
:100CB000570884008313800803195F2E602EBE2E10
:100CC0005F085E07D7005708840000082D3A031913
:100CD0006A2E6B2EBE2E5F085E07D7005708840071
:100CE00000082C3A031D752E762E782EBE2EBE2EB1
:100CF0005F085E07D7005708840030300002031CED
:100D0000822E832EB32E5F085E07D700570884001B
:100D10003A30000203188D2E8E2EB32E5D08D201BC
:100D2000D2075C08D101D1070A30D3000030D400CB
:100D30008A11FC268A11831203135F085E07D7000D
:100D400057088400831300085107D800520803187D
:100D5000520AD9005808D03EDC0059080318013E59
:100D6000FF3EDD00B32E0130D7005708DF07053006
:100D70005F02031CBC2EBD2E552EBE2E5D085C04EA
:100D80000319C32EC42ECB2E5D08C201C2075C0816
:100D9000C101C107CB2E080083160313101690164D
:100DA000D12E901DD42ED52ED12ED62E9501960162
:100DB0008316031785018312031795019601831685
:100DC0000317860187018312031387118316031308
:100DD00087118312031387118316031387178A1150
:100DE00028278A118A1184278A118A11DC278A11FF
:100DF0008A114B278A11080083120313D501D601EB
:100E0000012F511C042F052F0B2F5308D507031852
:100E1000D60A5408D60701300310D30DD40DFF3E77
:100E2000031D0C2F01300310D20CD10CFF3E031D0B
:100E3000132F52085104031D1E2F1F2F012F202F87
:100E40005608D201D2075508D101D107272F080033
:100E50008316031306160617193083120313940022
:100E6000FF3083160313930016308312031394008C
:100E700032308316031393008030940083120313DF
:100E800014161308D1005108D20094168C11831641
:100E900003138C150800003083120313C70546089E
:100EA00000390238C600CA01C801C501C301C40126
:100EB000C101C2010030BC000030BB000030BA00EC
:100EC0000030B9000030C0000030BF000030BE006C
:100ED0000030BD00CB01080043308A11BE278A11C3
:100EE0000D308A11BE278A11063083120313D400F5
:100EF0001330D300B130D200D20B7C2FD30B7C2F18
:100F0000D40B7C2F832F080083120313CE0183168A
:100F100003131813181519309900181283120313AC
:100F20009817831603139816831203131816831643
:100F300003138C160800FF1BA52F83137F1883173C
:100F40000008840A0319FF0A08007F087F398A0015
:100F50000408840A0319FF0A8200E3018313203086
:100F6000840051308A11E5278A11A0308400B43002
:100F70008A11E5278A1183018A11B72D8312031381
:100F8000D100510899000000C52F831203130C1ED5
:100F9000CA2FCB2FC52FCC2F0800F000700883126A
:100FA000031399000000D42F831203130C1ED92FB2
:100FB000DA2FD42FDB2F0800FF3083120313D10068
:100FC0005108C9000B178B17080064008001840AC0
:100FD0000406031900340406E62FFF3FFF3FFF3FDE
:101FE000013402340934FF3FFF3FFF3FFF3FFF3F13
:00000001FF

