:1000000601050000000000000000000000000000f2
:100600008A11112BFF3FFF3FFE00030EF20004088A
:10061000F3000A08F400831203137F08F5008A111F
:10062000022D8A15372DDC0010305C0258080318A3
:100630001E2BD2005C08C0238A11222BCE005C083E
:1006400031238A11033083120313DB000830DA00F0
:100650007830D900D90B2A2BDA0B2A2BDB0B2A2B6B
:100660000800D1000630D201D3005108D2044E0B4D
:100670003A2BD315D401D501E4308512CF00402B9D
:10068000412BCF0B3F2B442B640083120730031305
:100690008516D0003A30CF00CF0B4C2BD00B4C2B13
:1006A00064008312031385125308D0005208CF0050
:1006B000550A5D2B0310D00CCF0CFF3E031D5A2BA7
:1006C0004F1C772B0730D0003A30CF00CF0B662B72
:1006D000D00B662B64008312E43003138516CF0021
:1006E000712B722BCF0B702B752B64008B2BE4308E
:1006F000CF007A2B7B2BCF0B792B7E2B64008312C0
:10070000073003138516D0003A30CF00CF0B862B6D
:10071000D00B862B640083120C300313D50A5502CC
:10072000031C3C2BE4308512CF00962B972BCF0B6C
:10073000952B9A2B640083123F3003138516D0004B
:100740005530CF00CF0BA22BD00BA22BE43083125D
:100750000313CF00AB2BAC2BCF0BAA2BAF2B64001A
:10076000831208300313D40A5402031C3B2B3F307E
:10077000D0005530CF00CF0BBB2BD00BBB2B0800CC
:10078000D700D5010130D5248A1107308312031315
:10079000D4008A30D300D30BCB2BD40BCB2B6400EB
:1007A0000230D5248A110230D5248A110230D52492
:1007B0008A110130D5248A110330D5248A110230E0
:1007C000D5248A110130D5248A110330D5248A1109
:1007D0000130D5248A110330D5248A110230D52462
:1007E0008A110230D5248A110230D5248A110230B0
:1007F000D5248A110230D5248A110230D5248A11D9
:100800000130D5248A110330D5248A110230D52431
:100810008A110230D5248A110130D5248A1103307F
:10082000D5248A110230D5248A110230D5248A11A8
:100830000130D5248A110330D5248A110230D52401
:100840008A118B1383120313520B2F2C0130D524E2
:100850008A1183120313D718362C0330392C023037
:10086000D5248A1183120313D718382C0230392C5F
:100870000130D5248A11831203135708D6000330A0
:10088000D6057E2C0230D5248A11FD248A11031846
:100890004D2C0230D5248A118C2C0130D5248A119C
:1008A0008C2C0130D5248A11FD248A1103185C2C6C
:1008B0000330D5248A118C2C0230D5248A118C2C3B
:1008C0000330D5248A11FD248A1103186B2C0230C1
:1008D000D5248A118C2C0130D5248A118C2C02301D
:1008E000D5248A11FD248A1103187A2C0330D524CB
:1008F0008A118C2C0230D5248A118C2C5608003A8F
:100900000319422C013A0319512C033A0319602CA4
:10091000013A03196F2C8C2C831203135708D30050
:100920000310D30C0310D30C5308D600B32C0230A1
:10093000D5248A110130D5248A11C12C0130D52447
:100940008A110230D5248A11C12C0330D5248A1192
:100950000130D5248A11C12C0230D5248A110230ED
:10096000D5248A11C12C5608003A0319972C013A54
:1009700003199E2C033A0319A52C013A0319AC2C38
:10098000C12C2F308B1783120313D400BF30D30038
:10099000D30BC82CD40BC82CCD2C831205300313D9
:1009A000D50A550203180800C22B83120313D00086
:1009B000D101500851020318F32CCF308512CE001C
:1009C000E12CCE0BE02CE42CE52C8312CF3003136A
:1009D0008516CE00EB2CCE0BEA2CEE2CEF2C8312DE
:1009E0000313D10AD92C0630CF003030CE00CE0B05
:1009F000F72CCF0BF72C6400080008308312031388
:100A0000570208008C1D3F2D83168C1D3F2D941E10
:100A10001419102D141C102D83121308FF301D2DD6
:100A2000941A1419262D141C262D83121308F6006F
:100A30007708FF3A031D1F2D7608F7003C2D760836
:100A4000F00077084B258A11F70A3C2D941E141DDF
:100A5000352D1418352D8312130877088A156E2545
:100A60008A119300F70A14163C2D941A141D3C2D7C
:100A700014183C2D83121308831203138C1175086C
:100A80008312FF0074088A0073088400720E8300CA
:100A9000FE0E7E0E0900F100102E7008A700A71CA4
:100AA000080000287008A60008007008CD000800A3
:100AB0007008A80008007008CB0008007008CC007F
:100AC00008007008C90008007008CA000800700813
:100AD000A50008007008A30008007008A400080022
:100AE0007008B700080038087006031D4910700828
:100AF000B80008007008B90008003A087006031D25
:100B0000C9107008BA0008007008BB0008003C0853
:100B10007006031D49117008BC0008007008BD0074
:100B200008003E087006031DC9117008BE000800C9
:100B30007008BF00080040087006031D49127008C5
:100B4000C00008007008C100080042087006031DBC
:100B5000C9127008C20008007008C30008004408E9
:100B60007006031D49137008C40008007008C50012
:100B7000080046087006031DC9137008C600080067
:100B80007008C700080048087006031D4A10700866
:100B9000C80008007008A90008002A087006031D94
:100BA000CA107008AA0008007008AB0008002C08E2
:100BB0007006031D4A117008AC0008007008AD00F3
:100BC00008002E087006031DCA117008AE00080048
:100BD0007008AF00080030087006031D4A12700844
:100BE000B00008007008B100080032087006031D4C
:100BF000CA127008B20008007008B3000800340878
:100C00007006031D4A137008B40008007008B50090
:100C1000080036087006031DCA137008B6000800E5
:100C20007108003A03194D2D013A0319522D033A68
:100C30000319552D013A0319582D073A03195B2D55
:100C4000013A03195E2D033A0319612D013A031984
:100C5000642D173A0319672D013A03196A2D033AD7
:100C600003196D2D323A0319702D013A0319732DB2
:100C7000033A03197A2D013A03197D2D073A031916
:100C8000842D013A0319872D033A03198E2D013A59
:100C90000319912D0F3A0319982D013A03199B2D31
:100CA000033A0319A22D013A0319A52D073A031996
:100CB000AC2D013A0319AF2D033A0319B62D013AB1
:100CC0000319B92D1F3A0319C02D013A0319C32D79
:100CD000033A0319CA2D013A0319CD2D073A031916
:100CE000D42D013A0319D72D033A0319DE2D013A09
:100CF0000319E12D0F3A0319E82D013A0319EB2DE1
:100D0000033A0319F22D013A0319F52D073A031995
:100D1000FC2D013A0319FF2D033A0319062E013A5F
:100D20000319092E932E0800CE00FF30CF00FD2EB0
:100D30002708F92E2608F92E4D08F92E2808F92E35
:100D40004B08F92E4C08F92E4908F92E4A08F92EBD
:100D50002508F92E2308F92E2408F92E3708F92E34
:100D60003808F92E3908F92E3A08F92E3B08F92EE1
:100D70003C08F92E3D08F92E3E08F92E3F08F92EC1
:100D80004008F92E4108F92E4208F92E4308F92EA1
:100D90004408F92E4508F92E4608F92E4708F92E81
:100DA0004808F92E2908F92E2A08F92E2B08F92EC1
:100DB0002C08F92E2D08F92E2E08F92E2F08F92EC1
:100DC0003008F92E3108F92E3208F92E3308F92EA1
:100DD0003408F92E3508F92E3608F92EF030F32EA6
:100DE000F130F32EF23084008F30FF008A1500209E
:100DF0008A11CF008C2FCF018C2F4E08003A031997
:100E0000982E013A03199A2E033A03199C2E013A9F
:100E100003199E2E073A0319A02E013A0319A22E98
:100E2000033A0319A42E013A0319A62E173A0319FF
:100E3000A82E013A0319AA2E033A0319AC2E323A0E
:100E40000319AE2E013A0319B02E033A0319B22E3C
:100E5000013A0319B42E073A0319B62E013A0319C1
:100E6000B82E033A0319BA2E013A0319BC2E0F3AD1
:100E70000319BE2E013A0319C02E033A0319C22EDC
:100E8000013A0319C42E073A0319C62E013A031971
:100E9000C82E033A0319CA2E013A0319CC2E1F3A61
:100EA0000319CE2E013A0319D02E033A0319D22E7C
:100EB000013A0319D42E073A0319D62E013A031921
:100EC000D82E033A0319DA2E013A0319DC2E0F3A11
:100ED0000319DE2E013A0319E02E033A0319E22E1C
:100EE000013A0319E42E073A0319E62E013A0319D1
:100EF000E82E033A0319EA2E013A0319EC2E7C3A44
:100F00000319F22E153A0319EE2E343A0319FB2E6B
:100F1000143A0319F02E8C2F4F0808008316101670
:100F20009016901D912F950196010317850183124C
:100F30009501960183168601870183120313071317
:100F40008316071383120713AB278A11C4278A114C
:100F5000C9278A11CD2F831619300616061783125A
:100F60009400FF3083169300163083129400AA3049
:100F7000831693008030940083121416130894167D
:100F80008C1183168C150800FF30F7000B178B1798
:100F900008008512831285160800A701A601A60A7B
:100FA000CD01A801CB01CC01C901CA01A501A30152
:100FB000A401B701B801B901BA01BB01BC01BD016F
:100FC000BE01BF01C001C101C201C301C401C5010D
:100FD000C601C701C801A901AA01AB01AC01AD015D
:100FE000AE01AF01B001B101B201B301B401B5016D
:100FF000B6010800FF3FFF3FFF3FFF3FFF3FFF3FBE
:10100000FF1B0A2883137F1883170008840A03191B
:10101000FF0A08007F087F398A000408840A031940
:10102000FF0A8200FF3FFF3FFF3FFF3FFF3FFF3FC1
:101A5000FF3FFF3FFF3FFF3FFF3FFF3FFF3F640070
:101A60008001840A0406031900340406302D203056
:101A7000F701831384004E308A152F258A15A03074
:101A80008400B0308A152F2583018A15682ED40171
:101A9000D501D6014E1C5A2D5108D4075208031106
:101AA0000318520A031DD507530803110318530ADC
:101AB000031DD6070310D10DD20DD30D0310D00C8A
:101AC000CF0CCE0C50084F044E04031D4A2D540871
:101AD000CE005508CF005608D0000800F000FF30B7
:101AE000F100D72D2708D32D2608D32D4D08D32D4F
:101AF0002808D32D4B08D32D4C08D32D4908D32DBE
:101B00004A08D32D2508D32D2308D32D2408D32DFF
:101B10003708D32D3808D32D3908D32D3A08D32DC3
:101B20003B08D32D3C08D32D3D08D32D3E08D32DA3
:101B30003F08D32D4008D32D4108D32D4208D32D83
:101B40004308D32D4408D32D4508D32D4608D32D63
:101B50004708D32D4808D32D2908D32D2A08D32D83
:101B60002B08D32D2C08D32D2D08D32D2E08D32DA3
:101B70002F08D32D3008D32D3108D32D3208D32D83
:101B80003308D32D3408D32D3508D32D3608D32D63
:101B9000F030CD2DF130CD2DF23084008F30FF00AC
:101BA0008A1500208A15F100662EF101662E700854
:101BB000003A0319722D013A0319742D033A0319DF
:101BC000762D013A0319782D073A03197A2D013A37
:101BD00003197C2D033A03197E2D013A0319802D38
:101BE000173A0319822D013A0319842D033A031978
:101BF000862D323A0319882D013A03198A2D033AAA
:101C000003198C2D013A03198E2D073A0319902DD3
:101C1000013A0319922D033A0319942D013A03193D
:101C2000962D0F3A0319982D013A03199A2D033A6C
:101C300003199C2D013A03199E2D073A0319A02D73
:101C4000013A0319A22D033A0319A42D013A0319ED
:101C5000A62D1F3A0319A82D013A0319AA2D033AFC
:101C60000319AC2D013A0319AE2D073A0319B02D13
:101C7000013A0319B22D033A0319B42D013A03199D
:101C8000B62D0F3A0319B82D013A0319BA2D033AAC
:101C90000319BC2D013A0319BE2D073A0319C02DB3
:101CA000013A0319C22D033A0319C42D013A03194D
:101CB000C62D7C3A0319CC2D153A0319C82D343A98
:101CC0000319D52D143A0319CA2D662E7108080080
:101CD000E00181018A118E278A15E3016308A03E85
:101CE000840010308001800AE30A6302031C6E2E18
:101CF00007174908FF3A031D812E4A08FF3A0319C6
:101D0000152FE201E20AE30149086205031DB72E1F
:101D10004B0862056206031DB52E4030870603108E
:101D2000630D203E8A1194268A15DF000310630D8F
:101D3000213E8A1194268A15E100E108031DA72E91
:101D40006308A03E84008313000BA72EAD2E61080C
:101D5000D8005F088A1113238A15831203136308BE
:101D6000A03E84006108831380006208C904083023
:101D70000310E20DE30A6302031C842EE201E20A6F
:101D8000E3014A086205031D092F4C08620562063B
:101D9000031D052F6308DD00DE010310DD0DDE0DE0
:101DA0005E08803AFF0080307F02031DD92E0A3082
:101DB0005D020318052F40308312031387060310BA
:101DC000630D303E8A1194268A15DF000310630DDF
:101DD000313E8A1194268A15E100E108031DF72E91
:101DE0006308A83E84008313000BF72EFD2E6108C4
:101DF000D8005F088A1113238A158312031363081E
:101E0000A83E8400610883138000831203136208D4
:101E1000CA0408300310E20DE30A6302031CC12E5A
:101E2000E001A001A101A201E82F27142608CE009D
:101E3000FA30CF01D001D100D201D3018A15472554
:101E40008A1522085002031D2B2F21084F02031D63
:101E50002B2F20084E020318D82F0830A001A10113
:101E6000A2016002E201E20AE3010318732F600895
:101E70006302031C6C2F4B0862056206031D6A2F68
:101E8000403087060310630D203E8A1194268A1580
:101E9000DF000310630D213E8A1194268A15E100AC
:101EA000E108031D5A2F6308A03E84008313000B32
:101EB0005A2F602F6108D8005F088A1113238A15F2
:101EC000831203136308A03E84006108831380001B
:101ED0000830E300E00A03100830E20DE30A630271
:101EE0000318D22F372F6008F83EDD00FF300318AB
:101EF0000030DE00803A803C031D802F5D086302C5
:101F0000031CC92F831203134C0862056206031DCC
:101F1000C62F6308DD00DE010310DD0DDE0D5E0857
:101F2000803AFF0080307F02031D982F0A305D0247
:101F30000318C62F40308312031387060310630D66
:101F4000303E8A1194268A15DF000310630D313E5E
:101F50008A1194268A15E100E108031DB62F630853
:101F6000A83E84008313000BB62FBC2F6108D80055
:101F70005F088A1113238A15831203136308A83E8E
:101F800084006108831380000830E3008312031388
:101F9000E00A8312083003130310E20DE30A630220
:101FA000031C732F10306002031CE82FE001E82FA0
:101FB0000630DE003030DD00DD0BDC2FDE0BDC2FE9
:101FC000640083120313A00A0319A10A0319A20AC9
:101FD000941B9413141B1413141A782E1416782EB1
:101FE000013405340134FF3FFF3FFF3FFF3FFF3F18
:1000000100000000000000000000000000000000FF

