:1000000601020000000000000000000000000000f5
:100600008A11112BFF3FFF3FFE00030EF500040887
:10061000F6000A08F700831203137F08F8008A1116
:10062000C62B8A112D2F83120313E600E201E3018A
:100630000314E30DFF30E400FF30E50066088A1183
:10064000E8258A11013A031D262B272BC52B83127F
:100650000313E401E501E70108306702031C312BB5
:10066000322B342BA12BA12B67086607DF005F0814
:1006700084008313800803193E2B3F2BA12B6708AE
:100680006607DF005F08840000082E3A031D492B2F
:100690004A2B4C2BA12BA12B67086607DF005F08B4
:1006A000840030300002031C562B572B872B670821
:1006B0006607DF005F0884003A3000020318612BF0
:1006C000622B872B6508DA01DA076408D901D9079C
:1006D0000A30DB000030DC008A116F268A11831299
:1006E000031367086607DF005F08840083130008B0
:1006F0005907E0005A0803185A0AE1006008D03E82
:10070000E40061080318013EFF3EE500962B6708F0
:100710006607DF005F08840000082D3A031D912B57
:10072000922B962BE301E303962B962B0130DF00EF
:100730005F08E70708306702031C9F2BA02B342BB0
:10074000A12B6308D900DA01D91BDA036508DC01A3
:10075000DC076408DB01DB078A116F268A1183122C
:1007600003135A08E501E5075908E401E4076508A1
:1007700064040319BC2BBD2BC52B6508BA01BA074D
:100780006408B901B907C52BC52B080087158C1D56
:10079000CA2BCB2B4C2C831603138C1DD02BD12BA7
:1007A0004C2C941AD42BD52BE82B1419D82BD92BDD
:1007B000E82B141CDC2BDD2BE82B8312031313080E
:1007C000F4007408F900FF30F4007408FC00482CB1
:1007D000941EEB2BEC2B132C1419EF2BF02B132C5A
:1007E000141CF32BF42B132C831203131308F400A3
:1007F0007408F9007C08FF3A031DFF2B002C052C20
:100800007908F4007408FC00482C7908F400740896
:10081000F1007C088A1107258A11FE30F400740863
:10082000FC00482C482C941A162C172C322C141D22
:100830001A2C1B2C322C14181E2C1F2C322C831219
:1008400003131308F4007408F9007C088A116E245D
:100850008A118312031393000130F4007408FC071B
:100860001416482C941E352C362C482C141D392C6B
:100870003A2C482C14183D2C3E2C482C8312031380
:100880001308F4007408F900482C482C482C482C14
:10089000831203138C114C2C83128C1E502C512C60
:1008A000622C831603138C1E562C572C622C831239
:1008B0000313C2010314C20D1A08F4007408C10026
:1008C000622C622C78088312FF0077088A00760871
:1008D0008400750E8300FE0E7E0E0900F100FF30CD
:1008E000F0007008F200DB2C7B08FF39F000700884
:1008F000F200042D7A08FF39F0007008F200042D90
:10090000831203133F08F0007008F200042D8312D5
:1009100003133E08F0007008F200042D8312031345
:100920003D08F0007008F200042D831203133B0809
:10093000F0007008F200042D831203133C08F0004D
:100940007008F200042D831203133A08F0007008B7
:10095000F200042D831203133908F0007008F2002E
:10096000042DF03084008F3083120313FF008A11AE
:10097000ED268A11F0007008F200042DF130840099
:100980008F3083120313FF008A11ED268A11F000C5
:100990007008F200042DF23084008F3083120313AC
:1009A000FF008A11ED268A11F0007008F200042D74
:1009B000F201042D042D7108003A0319742C013A38
:1009C00003197A2C033A0319802C013A0319872C56
:1009D000133A03198E2C013A0319952C033A031983
:1009E0009C2C323A0319A32C013A0319AA2C623A1F
:1009F0000319CB2C153A0319B12C343A0319D82C0E
:100A0000143A0319BE2C042D7208062D0800F300B9
:100A10005A2D7B08710600397106FB00FB1C112D55
:100A2000122D7A2D00287A2D7A2D7A087106003938
:100A30007106FA007A2D7108F2007208831203130E
:100A4000BF007A2D7108F200720883120313BE00F2
:100A50007A2D7108F200720883120313BD007A2DFB
:100A60007108F200720883120313BB007A2D71081B
:100A7000F200720883120313BC007A2D58308A11D9
:100A80001E278A110D308A111E278A117A2D2D30CA
:100A90008A111E278A110D308A111E278A117A2D7C
:100AA0002B308A111E278A110D308A111E278A11B8
:100AB0007A2D7A2D7308003A0319092D013A03198A
:100AC000152D033A03191B2D013A0319222D133A50
:100AD0000319292D013A0319302D033A0319372D33
:100AE000523A03193E2D013A0319472D033A0319CF
:100AF000502D7A2D08008312031381018A113F269D
:100B00008A118A11BE268A11852D83120313420889
:100B1000013A031D8C2D8D2DD42DC201C408031D57
:100B2000922D932D9F2D41080D3A031D982D992D3F
:100B3000D42DC4010314C40DC301D42DD42D4108F8
:100B4000E8004308453E840068088313800043089A
:100B5000453E840000080D3A0319AF2DB02DB72D86
:100B60004308123A031DB52DB62DCD2DB72D4308E0
:100B7000453E840000080D3A031DBF2DC02DC92D30
:100B80004308453E8400800145308A1113238A11B1
:100B9000C92D83120313C401D42D0130E800680865
:100BA000C307D42DD42DD42D941FD72DD82DD92DB6
:100BB0009413141FDC2DDD2DDE2D1413141AE12DDA
:100BC000E22D852D1416852D852D852D8A11112B4D
:100BD00083120313DB00DA010314DA0DDC01292E82
:100BE0005C085B07D9005908840030308313000289
:100BF000031CFB2DFC2D082E5C085B07D90059084F
:100C000084003A300002031C062E072E242E082EE4
:100C10005C085B07D9005908840000082E3A0319C4
:100C2000122E132E242E5C085B07D900590884006D
:100C300000082D3A031D1D2E1E2E222E5C08031DBA
:100C4000222E242EDA013C2E0130D9005908DC076F
:100C5000292E12305C0203182E2E2F2E3C2E5C08FB
:100C60005B07D9005908840083138008031D392EBF
:100C70003A2EF02D3C2E3C2E5A083E2E08008316AC
:100C8000031310169016442E901D472E482E442E06
:100C9000492E9501960183160317850183120317C8
:100CA00095019601831603178601870183120313AA
:100CB0008711831603138711831203138711831679
:100CC000031387178A119B268A118A11D6268A1147
:100CD0008A113B278A118A11FF268A110800831284
:100CE0000313DD01DE01742E591C772E782E7E2E23
:100CF0005B08DD070318DE0A5C08DE07013003101D
:100D0000DB0DDC0DFF3E031D7F2E01300310DA0CDE
:100D1000D90CFF3E031D862E5A085904031D912E3F
:100D2000922E742E932E5E08DA01DA075D08D9013F
:100D3000D9079A2E080083160313061606171930D2
:100D4000831203139400FF308316031393001630AD
:100D500083120313940042308316031393008030F0
:100D600094008312031314161308D9005908DA00EB
:100D700094168C11831603138C15080043308A11C6
:100D80000F278A110D308A110F278A11063083121E
:100D90000313DC001330DB00B130DA00DA0BCE2EA7
:100DA000DB0BCE2EDC0BCE2ED52E080083120313C8
:100DB000C20183160313181318151930990018125D
:100DC00083120313981783160313981683120313C1
:100DD0001816831603138C160800FF1BF72E8313B7
:100DE0007F1883170008840A0319FF0A08007F0888
:100DF0007F398A000408840A0319FF0A8200003040
:100E0000FB057A0800390238FA0083120313BF0188
:100E1000BE01BD01BB01BC01B901BA0108008312CA
:100E20000313D900590899000000162F83120313E9
:100E30000C1E1B2F1C2F162F1D2F0800F0007008F2
:100E40008312031399000000252F831203130C1E35
:100E50002A2F2B2F252F2C2F0800FD01FA01FB0133
:100E6000FC0183132030840059308A1144278A11F1
:100E700083018A117B2DFF3083120313D900590897
:100E8000FC000B178B17080064008001840A04061D
:100E9000031900340406452FFF3FFF3FFF3FFF3F8C
:101FE000013402340B34FF3FFF3FFF3FFF3FFF3F11
:00000001FF

