:1000000601020000000000000000000000000000f5
:100600008A11112BFF3FFF3FFE00030EF500040887
:10061000F6000A08F700831203137F08F8008A1116
:10062000132B8A112A2F87158C1D172B182B992B0A
:10063000831603138C1D1D2B1E2B992B941A212B13
:10064000222B352B1419252B262B352B141C292B4B
:100650002A2B352B831203131308F4007408F900B6
:10066000FF30F4007408FC00952B941E382B392BB6
:10067000602B14193C2B3D2B602B141C402B412B61
:10068000602B831203131308F4007408F9007C082C
:10069000FF3A031D4C2B4D2B522B7908F4007408A4
:1006A000FC00952B7908F4007408F1007C088A118D
:1006B000E7248A110130F4007408FC07952B952B70
:1006C000941A632B642B7F2B141D672B682B7F2BB5
:1006D00014186B2B6C2B7F2B831203131308F4005D
:1006E0007408F9007C088A11BB238A118312031352
:1006F00093000130F4007408FC071416952B941E27
:10070000822B832B952B141D862B872B952B14184E
:100710008A2B8B2B952B831203131308F400740878
:10072000F900952B952B952B952B831203138C1188
:10073000992B83128C1E9D2B9E2BAF2B831603139C
:100740008C1EA32BA42BAF2B83120313C101031404
:10075000C10D1A08F4007408C000AF2BAF2B780845
:100760008312FF0077088A0076088400750E8300E4
:10077000FE0E7E0E0900F100FF30F0007008F2005E
:10078000282C7B08FF39F0007008F200512C7A0801
:10079000FF39F0007008F200512C831203133F0858
:1007A000F0007008F200512C831203133E08F00091
:1007B0007008F200512C831203133D08F0007008FA
:1007C000F200512C831203133B08F0007008F20072
:1007D000512C831203133C08F0007008F200512CD6
:1007E000831203133A08F0007008F200512C8312B0
:1007F00003133908F0007008F200512CF030840027
:100800008F3083120313FF008A11EA268A11F00049
:100810007008F200512CF13084008F3083120313E2
:10082000FF008A11EA268A11F0007008F200512CAC
:10083000F23084008F3083120313FF008A11EA26FE
:100840008A11F0007008F200512CF201512C512C49
:100850007108003A0319C12B013A0319C72B033A57
:100860000319CD2B013A0319D42B133A0319DB2BAF
:10087000013A0319E22B033A0319E92B323A03191F
:10088000F02B013A0319F72B623A0319182C153A89
:100890000319FE2B343A0319252C143A03190B2C97
:1008A000512C7208532C080083120313E300E20159
:1008B000E1010314E10DFF30B900FF30BA00630815
:1008C0008A11E4258A11013A031D672C682CE62C55
:1008D00083120313B901BA01E40105306402031C59
:1008E000722C732C752CE62CE62C64086307DE0052
:1008F0005E0884008313800803197F2C802CE62C6B
:1009000003306202031C852C862C882CE62CE62CF6
:1009100064086307DE005E08840000082E3A031DA9
:10092000922C932C972CE2010314E20D972C64086F
:100930006307DE005E08840030300002031CA12C37
:10094000A22CDA2C64086307DE005E0884003A30CB
:1009500000020318AC2CAD2CDA2C3A08D901D907C7
:100960003908D801D8070A30DA000030DB008A11D4
:100970006B268A118312031364086307DE005E0886
:100980008400831300085807DF0059080318590A28
:10099000E0005F08D03EB90060080318013EFF3E4A
:1009A000BA006208031DD52CDA2C0130DE005E0887
:1009B000E207DA2C0130DE005E08E407053064024D
:1009C000031CE32CE42C752CE62CE62C0800F30029
:1009D000432D7B08710600397106FB00FB1CF12CCE
:1009E000F22C662D0028662D662D7A0871060039D6
:1009F0007106FA00662D7108F20072088312031363
:100A0000BF00662D7108F200720883120313BE0046
:100A1000662D7108F200720883120313BD00662D63
:100A20007108F200720883120313BB00662D71086F
:100A3000F200720883120313BC00662D53308A1132
:100A40001B278A110D308A111B278A11662D46300B
:100A50008A111B278A110D308A111B278A11662DD6
:100A600054308A111B278A110D308A111B278A11D5
:100A7000662D58308A111B278A110D308A111B27C9
:100A80008A11662D662D7308003A0319E92C013A84
:100A90000319F52C033A0319FB2C013A0319022D13
:100AA000133A0319092D013A0319102D033A0319BA
:100AB000172D523A03191E2D013A0319272D033A17
:100AC0000319302D013A0319392D662D08008312C0
:100AD000031381018A113B268A118A11BB268A11D0
:100AE000712D83120313871F762D772D842D831686
:100AF00003131308013A031D7E2D7F2D912D8A11BA
:100B000049278A11912D912D8316031313082C3A2E
:100B1000031D8B2D8C2D912D8A114E278A11912D1D
:100B2000912D831203134108013A031D982D992D2D
:100B3000712DC101C308031D9E2D9F2DAB2D4008B3
:100B40000D3A031DA42DA52D712DC3010314C30D52
:100B5000C201712D712D4008E5004208443E840019
:100B60006508831380004208443E840000080D3A63
:100B70000319BB2DBC2DC32D4208123A031DC12DF4
:100B8000C22DD92DC32D4208443E840000080D3AE1
:100B9000031DCB2DCC2DD52D4208443E8400800171
:100BA00044308A1154248A11D52D83120313C301B2
:100BB000712D0130E5006508C207712D712D712D71
:100BC000712D712D8A11112B83120313DA00D901B3
:100BD0000314D90DDB01252E5B085A07D8005808ED
:100BE0008400303083130002031CF72DF82D042EEF
:100BF0005B085A07D800580884003A300002031CEA
:100C0000022E032E202E042E5B085A07D800580807
:100C1000840000082E3A03190E2E0F2E202E5B089A
:100C20005A07D8005808840000082D3A031D192ED1
:100C30001A2E1E2E5B08031D1E2E202ED901382EC3
:100C40000130D8005808DB07252E12305B0203184C
:100C50002A2E2B2E382E5B085A07D80058088400FD
:100C600083138008031D352E362EEC2D382E382E9A
:100C700059083A2E08008316031310169016402EBA
:100C8000901D432E442E402E452E9501960183162D
:100C90000317850183120317950196018316031725
:100CA00086018701831203138711831603138711AB
:100CB0008312031387118316031387178A1197264C
:100CC0008A118A11D3268A118A1138278A118A112A
:100CD000FC268A11080083120313DC01DD01702E4B
:100CE000581C732E742E7A2E5A08DC070318DD0A5E
:100CF0005B08DD0701300310DA0DDB0DFF3E031D3D
:100D00007B2E01300310D90CD80CFF3E031D822E20
:100D100059085804031D8D2E8E2E702E8F2E5D08BF
:100D2000D901D9075C08D801D807962E0800831688
:100D30000313061606171930831203139400FF30AD
:100D400083160313930016308312031394000130AB
:100D500083160313930080309400941783120313B7
:100D600014161308D8005808D90094168C1183164D
:100D700003138C15080043308A110C278A110D309B
:100D80008A110C278A11063083120313DB001330FB
:100D9000DA00B130D900D90BCB2EDA0BCB2EDB0B1E
:100DA000CB2ED22E080083120313C1018316031326
:100DB0001813181519309900181283120313981775
:100DC000831603139816831203131816831603133E
:100DD0008C160800FF1BF42E83137F18831700085E
:100DE000840A0319FF0A08007F087F398A00040873
:100DF000840A0319FF0A82000030FB057A080039D3
:100E00000238FA0083120313BF01BE01BD01BB010A
:100E1000BC01B901BA01080083120313D8005808B5
:100E200099000000132F831203130C1E182F192F83
:100E3000132F1A2F0800F000700883120313990073
:100E40000000222F831203130C1E272F282F222F7E
:100E5000292F0800FD01FA01FB01FC01831320305A
:100E6000840058308A1141278A1183018A11672D25
:100E7000FF3083120313D8005808FC000B178B17A0
:100E8000080064008001840A040603190034040683
:100E9000422F2C3083160313930008000130831671
:100EA000031393000800FF3FFF3FFF3FFF3FFF3F5B
:101FE000013402340834FF3FFF3FFF3FFF3FFF3F14
:00000001FF

