:1000000601020000000000000000000000000000f5
:100600008A11112BFF3FFF3FFE00030EF800040884
:10061000F9000A08FA00831203137F08FB008A1509
:10062000472F8A15872D83120313CD00B301B40120
:100630000314B40DFF30D500FF30D400FF30D300D9
:10064000FF30D200FF30D900FF30D800FF30D70094
:10065000FF30D600FF30AD002D08E6003530AD008C
:100660002D08A0004D088A11E5268A11013A031DC4
:100670003A2B3B2BA22C35308A1554268A11013A8D
:10068000031D432B442BC02B83120313CE010530D3
:100690004E02031C4C2B4D2B4F2BC02BC02B00307C
:1006A000D5000030D4000030D3000030D2004E0816
:1006B000353E840083138008031D5F2B602B622B63
:1006C000C02BC02B4E08353E840030300002031C86
:1006D0006A2B6B2BB42B4E08353E84003A30000257
:1006E0000318732B742BB42B4E08353E840000087E
:1006F000D03EAD00FF3003180030AE002D08AF0033
:100700002E08B000B101B2015508A3005408A200A0
:100710005308A1005208A0000030A7000030A60036
:100720000030A5000A30A4008A11B0278A11831274
:1007300003132008AF0721080318210FA02BA12BBA
:10074000B00722080318220FA62BA72BB1072308F6
:100750000318230AB2073208D5003108D400300844
:10076000D3002F08D200B42B0130AD002D08CE07E6
:1007700005304E02031CBD2BBE2B4F2BC02BC02BB4
:100780003D308A1554268A11013A031DC82BC92B06
:10079000492C83120313CE0105304E02031CD12BCA
:1007A000D22BD42B492C492C0030D9000030D80052
:1007B0000030D7000030D6004E08083E353E840099
:1007C00083138008031DE52BE62BE82B492C492CCD
:1007D0004E08083E353E840030300002031CF12BE9
:1007E000F22B3D2C4E08083E353E84003A30000284
:1007F0000318FB2BFC2B3D2C4E08083E353E840095
:100800000008D03EAD00FF3003180030AE002D08C8
:10081000AF002E08B000B101B2015908A30058087A
:10082000A2005708A1005608A0000030A700003021
:10083000A6000030A5000A30A4008A11B0278A1152
:10084000831203132008AF0721080318210F292C56
:100850002A2CB00722080318220F2F2C302CB107A6
:1008600023080318230AB2073208D9003108D80038
:100870003008D7002F08D6003D2C0130AD002D08E0
:10088000CE0705304E02031C462C472CD42B492C96
:10089000492C45308A1554268A11013A031D512CE2
:1008A000522CA22C83120313CE0103304E02031CE0
:1008B0005A2C5B2C5D2CA22CA22CE6014E08103E7B
:1008C000353E840083138008031D672C682C6A2C36
:1008D000A22CA22C4E08103E353E8400303000027F
:1008E000031C732C742C952C4E08103E353E84004E
:1008F0003A30000203187D2C7E2C952C0A30AD0076
:100900002D08A00066088A15C7258A1183120313D3
:10091000AE004E08083E353E8400831300082E07C3
:10092000D03EAF002F08E600952C0130AD002D0819
:10093000CE0703304E02031C9E2C9F2C5D2CA22C54
:10094000A22CA22C0800F500FF30F0007008F60081
:10095000AB2D831203135E08FF39F0007008F60018
:10096000E92D831203135D08FF39F0007008F600CB
:10097000E92D831203136108F0007008F600E92DD9
:10098000831203135F08F0007008F600E92D83124C
:1009900003135C08F0007008F600E92D83120313BE
:1009A0005A08F0007008F600E92D831203135B0863
:1009B000F0007008F600E92D831203135208F000CE
:1009C0005308F1005408F2005508F30018300310E2
:1009D000F30CF20CF10CF00CFF3E031DE72C700839
:1009E000F4007408F600E92D831203135208F00096
:1009F0005308F1005408F2005508F30010300310BA
:100A0000F30CF20CF10CF00CFF3E031DFF2C7008F0
:100A1000F4007408F600E92D831203135208F00065
:100A20005308F1005408F2005508F3000830031091
:100A3000F30CF20CF10CF00CFF3E031D172D7008A7
:100A4000F4007408F600E92D831203135208F00035
:100A50007008F600E92D831203135608F0005708BA
:100A6000F1005808F2005908F30018300310F30C95
:100A7000F20CF10CF00CFF3E031D362D7008F40053
:100A80007408F600E92D831203135608F000570886
:100A9000F1005808F2005908F30010300310F30C6D
:100AA000F20CF10CF00CFF3E031D4E2D7008F4000B
:100AB0007408F600E92D831203135608F000570856
:100AC000F1005808F2005908F30008300310F30C45
:100AD000F20CF10CF00CFF3E031D662D7008F400C3
:100AE0007408F600E92D831203135608F00070080D
:100AF000F600E92D831203136608F0007008F60073
:100B0000E92DF03084008F3083120313FF008A1523
:100B100000208A11F0007008F600E92DF130840001
:100B20008F3083120313FF008A1500208A11F00012
:100B30007008F600E92DF23084008F308312031321
:100B4000FF008A1500208A11F0007008F600E92DD8
:100B5000F601E92DE92D7508003A0319A92C013A8F
:100B60000319B12C033A0319B92C013A0319C02C0B
:100B7000133A0319C72C013A0319CE2C033A03196F
:100B8000D52C323A0319DC2C013A0319F42C033A20
:100B900003190C2D013A0319242D073A03192B2DA3
:100BA000013A0319432D033A03195B2D013A031946
:100BB000732D0F3A03197A2D6B3A03199B2D153AB1
:100BC0000319812D343A0319A82D143A03198E2DD7
:100BD000E92D7608EB2D0800F300B22E83120313E3
:100BE0005E08710600397106DE00DE1CF82DF92D55
:100BF000E42E0028E42EE42E831203135D08710610
:100C000000397106DD00E42E7108F20072088312CB
:100C10000313E100E42E7108F2007208831203133B
:100C2000DF00E42E7108F200720883120313DC0067
:100C3000E42E7108F200720883120313DA00E42E26
:100C40007108F200720883120313DB00E42E58309F
:100C50008A1569258A110D308A1569258A11E42EB5
:100C600050308A1569258A112C308A1569258A1118
:100C70007108303E8A1569258A110D308A1569255B
:100C80008A11E42E5A308A1569258A1130308A1566
:100C900069258A110D308A1569258A11E42E5A308A
:100CA0008A1569258A1133308A1569258A113030F1
:100CB0008A1569258A110D308A1569258A11E42E55
:100CC0005A308A1569258A1134308A1569258A11A6
:100CD00030308A1569258A110D308A1569258A11E7
:100CE000E42E5A308A1569258A1139308A1569250A
:100CF0008A1130308A1569258A110D308A156925C7
:100D00008A11E42E5A308A1569258A1132308A15E3
:100D100069258A110D308A1569258A11E42E5A3009
:100D20008A1569258A1131308A1569258A11303072
:100D30008A1569258A110D308A1569258A11E42ED4
:100D40005A308A1569258A1136308A1569258A1123
:100D500032308A1569258A110D308A1569258A1164
:100D6000E42EE42E7308003A0319EE2D013A03191C
:100D7000FC2D033A0319042E013A03190B2E133AE2
:100D80000319122E013A0319192E033A0319202EC2
:100D9000523A0319272E013A0319302E033A031948
:100DA000422E013A03194F2E073A0319602E013AD9
:100DB0000319712E033A0319822E013A03198F2E5B
:100DC0000F3A0319A02EE42E080083120313A90082
:100DD000A6010314A60DA801A701AA01782F2A08CD
:100DE0002907A10021088400831300082C3A031D61
:100DF000FA2EFB2E1C2F023028020318002F012F81
:100E0000192F2808A10002300310A10DFF3E031D79
:100E1000042F0310210D2007A20027082207A3009A
:100E20002308840080010130A1002108A807A70140
:100E3000732FA6018B2F732F2A082907A1002108E1
:100E4000840030300002031C262F272F332F2A085E
:100E50002907A100210884003A300002031C312F29
:100E6000322F4A2F332F2A082907A1002108840096
:100E700000082E3A03193D2F3E2F4A2F2A08290732
:100E8000A1002108840000082D3A031D482F492F96
:100E9000732F4A2F0730270203184F2F502F6F2F21
:100EA0002A082907A100210884000008A2002808B8
:100EB000A30002300310A30DFF3E031D5A2F0310A1
:100EC000230D2007A40027082407A5002508840077
:100ED000220880000130A1002108A707732FA60176
:100EE0008B2F732F732F0130A1002108AA07782FB1
:100EF00012302A0203187D2F7E2F8B2F2A082907F4
:100F0000A1002108840083138008031D882F892FE6
:100F1000EF2E8B2F8B2F2608013A031D902F912F38
:100F2000AB2F2808023A031D962F972FAB2F2808C6
:100F3000A10002300310A10DFF3E031D9A2F0310E4
:100F4000210D2007A20027082207A3002308840000
:100F500083138001AD2FA601AD2F2608AF2F080007
:100F6000003083120313AC000030AB000030AA0045
:100F70000030A900BB2F201CBE2FBF2FD72F240865
:100F8000A907250803110318013E0319C82FAA0752
:100F9000260803110318013E0319CF2FAB072708BA
:100FA00003110318013E0319D62FAC07D72F0130C8
:100FB000A8000310A40DA50DA60DA70DA80BD92FF1
:100FC00001300310A30CA20CA10CA00CFF3E031DCA
:100FD000E12F2308220421042004031DF02FF12F08
:100FE000BB2FF22F2C08A3002B08A2002A08A10077
:100FF0002908A000FB2F0800FF3FFF3FFF3FFF3FF6
:10100000FF1B0A2883137F1883170008840A03191B
:10101000FF0A08007F087F398A000408840A031940
:10102000FF0A8200FF3FFF3FFF3FFF3FFF3FFF3FC1
:101A9000FF3FFF3FFF3FFF3FFF3FFF3F0130831608
:101AA00003139300080032308316031393000800D9
:101AB00064008001840A0406031900340406592DC9
:101AC000FF3083120313A0002008E0000B178B17D0
:101AD0000800F00070088312031399000000702DB5
:101AE000831203130C1E752D762D702D772D080093
:101AF00083120313A0002008990000007F2D831299
:101B000003130C1E842D852D7F2D862D0800E701E3
:101B100083135230840067308A1558258A15A03007
:101B20008400CD308A1558258A1583018A15AB2E7D
:101B300083120313E30183160313181318151930C6
:101B4000990018128312031398178316031398161B
:101B5000831203131816831603138C1608004330E0
:101B60008A1578258A150D308A1578258A1506304C
:101B700083120313A3001330A200B130A100A10B04
:101B8000BF2DA20BBF2DA30BBF2DC62D08008312A6
:101B90000313A300A201231CCE2DCF2DD42D20088A
:101BA000A1002108A207D42D0310A00D0310A30C3F
:101BB000A308031DDC2DDD2DCB2DDE2D2208E02D0D
:101BC0000800003083120313DE055D080039023877
:101BD000DD00E101DF01DC01DA01DB010030D500CD
:101BE0000030D4000030D3000030D2000030D900E3
:101BF0000030D8000030D7000030D600E6010800E1
:101C00008316031306160617193083120313940064
:101C1000FF308316031393001630831203139400CE
:101C200001308316031393008030940094178312BD
:101C3000031314161308A0002008A10094168C1199
:101C4000831603138C1508008316031310169016C1
:101C5000292E901D2C2E2D2E292E2E2E95019601EB
:101C600083160317850183120317950196018316C6
:101C70000317860187018312031387118316031349
:101C800087118312031387118316031387178A158D
:101C900000268A158A1598258A158A1560258A15C1
:101CA0008A15E1258A15080083120313A200A101F9
:101CB0000314A10DA301952E23082207A0002008DC
:101CC0008400303083130002031C672E682E742EAC
:101CD00023082207A000200884003A300002031CD9
:101CE000722E732E902E742E23082207A000200837
:101CF000840000082E3A03197E2E7F2E902E230892
:101D00002207A0002008840000082D3A031D892E18
:101D10008A2E8E2E2308031D8E2E902EA101A82E12
:101D20000130A0002008A307952E123023020318CB
:101D30009A2E9B2EA82E23082207A000200884009C
:101D400083138008031DA52EA62E5C2EA82EA82E78
:101D50002108AA2E08008312031381018A15242664
:101D60008A1550308A1578258A152C308A157825E1
:101D70008A1531308A1578258A150D308A1578250F
:101D80008A15063083120313D1001330D000B1300E
:101D9000CF00CF0BC92ED00BC92ED10BC92ED02E00
:101DA0008A15AF258A15D42E83120313871FD92EC7
:101DB000DA2EE72E831603131308013A031DE12ED2
:101DC000E22EF42E8A1553258A15F42EF42E83164E
:101DD00003131308323A031DEE2EEF2EF42E8A154C
:101DE0004E258A15F42EF42E831203136308013A4C
:101DF000031DFB2EFC2ED42EE301E508031D012F4D
:101E0000022F0E2F62080D3A031D072F082FD42E24
:101E1000E5010314E50DE401D42ED42E6208CF00B1
:101E20006408B93E84004F08831380006408B93EFB
:101E3000840000080D3A03191E2F1F2F262F640857
:101E4000123A031D242F252F3C2F262F6408B93E5C
:101E5000840000080D3A031D2E2F2F2F382F640801
:101E6000B93E84008001B9308A1113238A15382FB6
:101E700083120313E501D42E0130CF004F08E4078D
:101E8000D42ED42ED42ED42ED42E8A11112B8715D5
:101E90008C1D4B2F4C2FCE2F831603138C1D512FCF
:101EA000522FCE2F941A552F562F692F1419592FB0
:101EB0005A2F692F141C5D2F5E2F692F8312031375
:101EC0001308F7007708FC00FF30F7007708E00000
:101ED000CB2F941E6C2F6D2F962F1419702F712FEE
:101EE000962F141C742F752F962F8312031313082B
:101EF000F7007708FC006008FF3A031D802F812F50
:101F0000862F7C08F7007708E000CB2F7C08F700CD
:101F10007708F10060088A11EC258A150130F70076
:101F2000770883120313E007CB2FCB2F941A992F36
:101F30009A2FB52F141D9D2F9E2FB52F1418A12F4A
:101F4000A22FB52F831203131308F7007708FC00A4
:101F500060088A11A3248A158312031393000130A9
:101F6000F7007708E0071416CB2F941EB82FB92F6F
:101F7000CB2F141DBC2FBD2FCB2F1418C02FC12F5A
:101F8000CB2F831203131308F7007708FC00CB2F25
:101F9000CB2FCB2FCB2F83128C11CE2F83128C1EE5
:101FA000D22FD32FE42F831603138C1ED82FD92FB3
:101FB000E42F83120313E3010314E30D1A08F7005F
:101FC0007708E200E42FE42F7B088312FF007A08F1
:101FD0008A0079088400780E8300FE0E7E0E0900C8
:101FE000013402340934FF3FFF3FFF3FFF3FFF3F13
:00000001FF

