:1000000601030000000000000000000000000000f4
:100600008A11112BFF3FFF3FFE00030EF800040884
:10061000F9000A08FA00831203137F08FB008A110D
:100620000E2D8A11B92FF500FF30F0007008F6008A
:10063000DA2B831203134708FF39F0007008F60025
:10064000122C831203134608FF39F0007008F600DD
:10065000122C831203134A08F0007008F600122CC3
:10066000831203134808F0007008F600122C83125E
:1006700003134508F0007008F600122C83120313D0
:100680004308F0007008F600122C8312031344088C
:10069000F0007008F600122C831203134208F000D9
:1006A0007008F600122C831203134108F000700842
:1006B000F600122C831203133D08F0003E08F100EF
:1006C0003F08F2004008F30018300310F30CF20C5E
:1006D000F10CF00CFF3E031D652B7008F40074084C
:1006E000F600122C831203133D08F0003E08F100BF
:1006F0003F08F2004008F30010300310F30CF20C36
:10070000F10CF00CFF3E031D7D2B7008F400740803
:10071000F600122C831203133D08F0003E08F1008E
:100720003F08F2004008F30008300310F30CF20C0D
:10073000F10CF00CFF3E031D952B7008F4007408BB
:10074000F600122C831203133D08F0007008F60027
:10075000122C831203134B08F0007008F600122CC1
:10076000F03084008F3083120313FF008A11A72713
:100770008A11F0007008F600122CF13084008F30DE
:1007800083120313FF008A11A7278A11F000700853
:10079000F600122CF23084008F3083120313FF0016
:1007A0008A11A7278A11F0007008F600122CF601B2
:1007B000122C122C7508003A0319192B013A03194F
:1007C000212B033A0319292B013A0319302B133A31
:1007D0000319372B013A03193E2B033A0319452B12
:1007E000323A03194C2B013A0319532B053A0319DA
:1007F0005A2B013A0319722B033A03198A2B013A37
:100800000319A22B0F3A0319A92B6B3A0319CA2B10
:10081000153A0319B02B343A0319D72B143A03199C
:10082000BD2B122C7608142C0800F300DB2C83124D
:1008300003134708710600397106C700C71C212C35
:10084000222C0D2D00280D2D0D2D8312031346088B
:10085000710600397106C6000D2D7108F20072088C
:1008600083120313CA000D2D7108F200720883125F
:100870000313C8000D2D7108F200720883120313D0
:10088000C5000D2D7108F200720883120313C30016
:100890000D2D7108F200720883120313C4000D2D90
:1008A00058308A11D9278A110D308A11D9278A1117
:1008B0000D2D50308A11D9278A112C308A11D92751
:1008C0008A117108303E8A11D9278A110D308A1198
:1008D000D9278A110D2D5A308A11D9278A11303023
:1008E0008A11D9278A110D308A11D9278A110D2D25
:1008F0005A308A11D9278A1133308A11D9278A119F
:1009000030308A11D9278A110D308A11D9278A11DE
:100910000D2D5A308A11D9278A1134308A11D927DE
:100920008A1130308A11D9278A110D308A11D927BE
:100930008A110D2D5A308A11D9278A1139308A111E
:10094000D9278A1130308A11D9278A110D308A119E
:10095000D9278A110D2D5A308A11D9278A113230A0
:100960008A11D9278A110D308A11D9278A110D2DA4
:100970005A308A11D9278A1131308A11D9278A1120
:1009800030308A11D9278A110D308A11D9278A115E
:100990000D2D5A308A11D9278A1136308A11D9275C
:1009A0008A1132308A11D9278A110D308A11D9273C
:1009B0008A110D2D0D2D7308003A0319172C013AD9
:1009C0000319252C033A03192D2C013A0319342C51
:1009D000133A03193B2C013A0319422C033A031929
:1009E000492C523A0319502C013A0319592C033A55
:1009F00003196B2C013A0319782C073A0319892C37
:100A0000013A03199A2C033A0319AB2C013A031942
:100A1000B82C0F3A0319C92C0D2D080087158C1D11
:100A2000122D132D952D831603138C1D182D192DA2
:100A3000952D941A1C2D1D2D302D1419202D212D8E
:100A4000302D141C242D252D302D83120313130853
:100A5000F7007708FC00FF30F7007708C900922DF7
:100A6000941E332D342D5D2D1419372D382D5D2D09
:100A7000141C3B2D3C2D5D2D831203131308F7002E
:100A80007708FC004908FF3A031D472D482D4D2DDE
:100A90007C08F7007708C900922D7C08F7007708DA
:100AA000F10049088A1115248A11FE30F7007708F1
:100AB00083120313C900922D922D941A602D612D7B
:100AC0007C2D141D642D652D7C2D1418682D692D29
:100AD0007C2D831203131308F7007708FC004908E4
:100AE0008A1113238A118312031393000130F70034
:100AF0007708C9071416922D941E7F2D802D922DF4
:100B0000141D832D842D922D1418872D882D922D40
:100B1000831203131308F7007708FC00922D922D1F
:100B2000922D922D83128C11952D83128C1E992D4E
:100B30009A2DAB2D831603138C1E9F2DA02DAB2D4C
:100B400083120313CE010314CE0D1A08F7007708A1
:100B5000CD00AB2DAB2D7B088312FF007A088A00F5
:100B600079088400780E8300FE0E7E0E0900831241
:100B70000313DE00DA01DB010314DB0DDC01DD0110
:100B8000DF0105305F02031CC62DC72DC92D322E93
:100B9000322E5F085E07D700570884008313800851
:100BA0000319D32DD42D322E5F085E07D7005708C6
:100BB000840000082D3A0319DE2DDF2D322E5F0848
:100BC0005E07D7005708840000082C3A031DE92D62
:100BD000EA2DEC2D322E322E5F085E07D700570823
:100BE000840030300002031CF62DF72D272E5F08FD
:100BF0005E07D700570884003A3000020318012E20
:100C0000022E272E5D08D201D2075C08D101D10740
:100C10000A30D3000030D4008A1108278A118312C9
:100C200003135F085E07D70057088400831300088A
:100C30005107D80052080318520AD9005808D03E6C
:100C4000DC0059080318013EFF3EDD00272E01306D
:100C5000D7005708DF0705305F02031C302E312E06
:100C6000C92D322E00305D02023003195C02031CD4
:100C70003A2E3B2E4B2E0B305D02B83003195C022E
:100C80000318432E442E4B2E5D08C201C2075C0898
:100C9000C101C1074B2E08008312031381018A1181
:100CA000D8268A1150308A11CA278A112C308A110D
:100CB000CA278A1131308A11CA278A110D308A1148
:100CC000CA278A11063083120313E2001330E100B1
:100CD000B130E000E00B6A2EE10B6A2EE20B6A2EC7
:100CE000712E8A1178278A11752E831203134E08EC
:100CF000013A031D7C2E7D2EC42ECE01D008031D8B
:100D0000822E832E8F2E4D080D3A031D882E892E9C
:100D1000C42ED0010314D00DCF01C42EC42E4D0813
:100D2000E0004F08A03E84006008831380004F0855
:100D3000A03E840000080D3A03199F2EA02EA72E76
:100D40004F08123A031DA52EA62EBD2EA72E4F0822
:100D5000A03E840000080D3A031DAF2EB02EB92E20
:100D60004F08A03E84008001A0308A11B7258A1167
:100D7000B92E83120313D001C42E0130E0006008A5
:100D8000CF07C42EC42EC42E941FC72EC82EC92E22
:100D90009413141FCC2ECD2ECE2E1413141AD12E34
:100DA000D22E752E1416752E752E752E8A11112BB6
:100DB0008316031310169016DD2E901DE02EE12EE3
:100DC000DD2EE22E9501960183160317850183120D
:100DD0000317950196018316031786018701831275
:100DE00003138711831603138711831203138711CB
:100DF0008316031387178A1134278A118A119027C3
:100E00008A118A11E8278A118A1157278A11080046
:100E100083120313D501D6010D2F511C102F112F52
:100E2000172F5308D5070318D60A5408D6070130E0
:100E30000310D30DD40DFF3E031D182F01300310F6
:100E4000D20CD10CFF3E031D1F2F52085104031D6D
:100E50002A2F2B2F0D2F2C2F5608D201D2075508E1
:100E6000D101D107332F0800831603130616061786
:100E70001930831203139400FF3083160313930079
:100E80001630831203139400383083160313930033
:100E9000803094008312031314161308D1005108F4
:100EA000D20094168C11831603138C1508000030A1
:100EB00083120313C705460800390238C600CA0169
:100EC000C801C501C301C401C101C2010030BC0099
:100ED0000030BB000030BA000030B9000030C00064
:100EE0000030BF000030BE000030BD00CB01080064
:100EF00043308A11CA278A110D308A11CA278A11F4
:100F0000063083120313D4001330D300B130D20063
:100F1000D20B882FD30B882FD40B882F8F2F08004C
:100F200083120313CE0183160313181318151930F7
:100F30009900181283120313981783160313981637
:100F4000831203131816831603138C160800FF1B55
:100F5000B12F83137F1883170008840A0319FF0A2F
:100F600008007F087F398A000408840A0319FF0AF1
:100F70008200E30183132030840051308A11F1276D
:100F80008A11A0308400B4308A11F1278A118301BC
:100F90008A114C2E83120313D100510899000000CE
:100FA000D12F831203130C1ED62FD72FD12FD82F5A
:100FB0000800F00070088312031399000000E02F6E
:100FC000831203130C1EE52FE62FE02FE72F0800F6
:100FD000FF3083120313D1005108C9000B178B1780
:100FE000080064008001840A040603190034040622
:100FF000F22FFF3FFF3FFF3FFF3FFF3FFF3FFF3F1E
:101FE000013403340934FF3FFF3FFF3FFF3FFF3F12
:00000001FF

