:1000000601080000000000000000000000000000ef
:100600008A11112BFF3FFF3FFE00030EF20004088A
:10061000F3000A08F400831203137F08F5008A111F
:10062000002D8A11E42FDC0010305C0258080318FA
:100630001E2BD2005C08C0238A11222BCE005C083E
:1006400031238A11033083120313DB000830DA00F0
:100650007830D900D90B2A2BDA0B2A2BDB0B2A2B6B
:100660000800D1000630D201D3005108D2044E0B4D
:100670003A2BD315D401D501E4308512CF00402B9D
:10068000412BCF0B3F2B442B640083120730031305
:100690008516D0003A30CF00CF0B4C2BD00B4C2B13
:1006A00064008312031385125308D0005208CF0050
:1006B000550A5D2B0310D00CCF0CFF3E031D5A2BA7
:1006C0004F1C772B0730D0003A30CF00CF0B662B72
:1006D000D00B662B64008312E43003138516CF0021
:1006E000712B722BCF0B702B752B64008B2BE4308E
:1006F000CF007A2B7B2BCF0B792B7E2B64008312C0
:10070000073003138516D0003A30CF00CF0B862B6D
:10071000D00B862B640083120C300313D50A5502CC
:10072000031C3C2BE4308512CF00962B972BCF0B6C
:10073000952B9A2B640083123F3003138516D0004B
:100740005530CF00CF0BA22BD00BA22BE43083125D
:100750000313CF00AB2BAC2BCF0BAA2BAF2B64001A
:10076000831208300313D40A5402031C3B2B3F307E
:10077000D0005530CF00CF0BBB2BD00BBB2B0800CC
:10078000D700D5010130D3248A1107308312031317
:10079000D4008A30D300D30BCB2BD40BCB2B6400EB
:1007A0000230D3248A110230D3248A110230D32498
:1007B0008A110130D3248A110330D3248A110230E4
:1007C000D3248A110130D3248A110330D3248A110F
:1007D0000130D3248A110330D3248A110230D32468
:1007E0008A110230D3248A110230D3248A110230B4
:1007F000D3248A110230D3248A110230D3248A11DF
:100800000130D3248A110330D3248A110230D32437
:100810008A110230D3248A110130D3248A11033083
:10082000D3248A110230D3248A110230D3248A11AE
:100830000130D3248A110330D3248A110230D32407
:100840008A1183120313520B2E2C0130D3248A11E8
:1008500083120313D718352C0330382C0230D324DD
:100860008A1183120313D718372C0230382C013029
:10087000D3248A11831203135708D6000330D605F8
:100880007D2C0230D3248A11FB248A1103184C2CAE
:100890000230D3248A118B2C0130D3248A118B2C63
:1008A0000130D3248A11FB248A1103185B2C0330F6
:1008B000D3248A118B2C0230D3248A118B2C033041
:1008C000D3248A11FB248A1103186A2C0230D32402
:1008D0008A118B2C0130D3248A118B2C0230D32423
:1008E0008A11FB248A110318792C0330D3248A112E
:1008F0008B2C0230D3248A118B2C5608003A031912
:10090000412C013A0319502C033A03195F2C013A88
:1009100003196E2C8B2C831203135708D30003107A
:10092000D30C0310D30C5308D600B22C0230D324BE
:100930008A110130D3248A11C02C0130D3248A11AA
:100940000230D3248A11C02C0330D3248A11013001
:10095000D3248A11C02C0230D3248A110230D3242C
:100960008A11C02C5608003A0319962C013A031933
:100970009D2C033A0319A42C013A0319AB2CC02C6B
:100980002F3083120313D400BF30D300D30BC62CF7
:10099000D40BC62CCB2C831205300313D50A550279
:1009A00003180800C22B83120313D000D101500892
:1009B00051020318F12CCF308512CE00DF2CCE0B64
:1009C000DE2CE22CE32C8312CF3003138516CE00ED
:1009D000E92CCE0BE82CEC2CED2C83120313D10A5E
:1009E000D72C0630CF003030CE00CE0BF52CCF0BFD
:1009F000F52C640008000830831203135702080026
:100A00008C1D3B2D83168C1D3B2D941E14190E2D11
:100A1000141C0E2D83121308FF301B2D941A141969
:100A2000232D141C232D83121308F6007708FF3A98
:100A3000031D1D2D7608F700382D7608F000770885
:100A400047258A11382D941E141D312D1418312D6F
:100A50008312130877088A15FC258A11930014164F
:100A6000382D941A141D382D1418382D831213089C
:100A7000831203138C1175088312FF0074088A0017
:100A800073088400720E8300FE0E7E0E0900F100D2
:100A90000C2E7008A700A71C080000287008A600EC
:100AA00008007008CD0008007008A8000800700851
:100AB000CB0008007008CC0008007008C9000800CE
:100AC0007008CA0008007008A50008007008A3009C
:100AD00008007008A40008007008B7000800380873
:100AE0007006031D49107008B80008007008B900AE
:100AF00008003A087006031DC9107008BA00080003
:100B00007008BB0008003C087006031D49117008FE
:100B1000BC0008007008BD0008003E087006031DF8
:100B2000C9117008BE0008007008BF000800400826
:100B30007006031D49127008C00008007008C1004B
:100B4000080042087006031DC9127008C2000800A0
:100B50007008C300080044087006031D491370089C
:100B6000C40008007008C500080046087006031D90
:100B7000C9137008C60008007008C70008004808BC
:100B80007006031D4A107008C80008007008A9000C
:100B900008002A087006031DCA107008AA00080081
:100BA0007008AB0008002C087006031D4A1170087D
:100BB000AC0008007008AD0008002E087006031D88
:100BC000CA117008AE0008007008AF0008003008B5
:100BD0007006031D4A127008B00008007008B100CA
:100BE000080032087006031DCA127008B20008001F
:100BF0007008B300080034087006031D4A1370081B
:100C0000B40008007008B500080036087006031D1F
:100C1000CA137008B60008007108003A0319492D7C
:100C2000013A03194E2D033A0319512D013A0319C4
:100C3000542D073A0319572D013A03195A2D033A37
:100C400003195D2D013A0319602D173A0319632D1D
:100C5000013A0319662D033A0319692D323A031933
:100C60006C2D013A03196F2D033A0319762D013AC1
:100C70000319792D073A0319802D013A0319832DA1
:100C8000033A03198A2D013A03198D2D0F3A0319DE
:100C9000942D013A0319972D033A03199E2D013A19
:100CA0000319A12D073A0319A82D013A0319AB2DF9
:100CB000033A0319B22D013A0319B52D1F3A03194E
:100CC000BC2D013A0319BF2D033A0319C62D013A71
:100CD0000319C92D073A0319D02D013A0319D32D51
:100CE000033A0319DA2D013A0319DD2D0F3A0319DE
:100CF000E42D013A0319E72D033A0319EE2D013AC9
:100D00000319F12D073A0319F82D013A0319FB2DA8
:100D1000033A0319022E013A0319052E8F2E0800FB
:100D2000E10181018A1590258A1107174908FF3AC8
:100D3000031D9E2E4A08FF3A0319FF2EE201E20A24
:100D4000E30149086205031DC32E4B0862056206D4
:100D5000031DBF2E403087060310630D203E8A1509
:100D6000F6268A11DF000310630D213E8A15F62650
:100D70008A11E000D8005F088A1113238A118312B8
:100D800003136208C90408300310E20DE30A63028A
:100D9000031CA12EE201E20AE3014A086205031DD9
:100DA000F32E4C0862056206031DEF2E0530630228
:100DB0000318EF2E403087060310630D303E8A156E
:100DC000F6268A11DF000310630D313E8A15F626E0
:100DD0008A11E000D8005F088A1113238A11831258
:100DE00003136208CA0408300310E20DE30A630229
:100DF000031CCD2EE101A001A101A201A32F271404
:100E00002608CE00FA30CF01D001D100D201D301A3
:100E10008A11AB278A1122085002031D152F2108C1
:100E20004F02031D152F20084E020318932F083080
:100E3000A001A101A201610203184C2FE201E20A04
:100E4000E30161086302031C452F4B08620562063B
:100E5000031D432F403087060310630D203E8A1583
:100E6000F6268A11DF000310630D213E8A15F6264F
:100E70008A11E000D8005F088A1113238A11083014
:100E800083120313E300E10A03100830E20DE30AC2
:100E900063020318A32F212F0D3061020318912F35
:100EA000E201E20AE3016108F83EDD00FF300318C9
:100EB0000030DE00803A803C031D602F5D08630235
:100EC000031C872F831203134C0862056206031D5F
:100ED000862F053063020318822F403087060310E7
:100EE000630D303E8A15F6268A11DF000310630D6C
:100EF000313E8A15F6268A11E000D8005F088A1173
:100F000013238A11083083120313E300E10A8312CA
:100F1000083003130310E20DE30A63020318A32F42
:100F2000532FE101A32F0630DE003030DD00DD0B52
:100F3000972FDE0B972F640083120313A00A031967
:100F4000A10A0319A20A941B9413141B1413141A54
:100F5000952E1416952ED401D501D6014E1CBE2F08
:100F60005108D407520803110318520A031DD5076C
:100F7000530803110318530A031DD6070310D10D9C
:100F8000D20DD30D0310D00CCF0CCE0C50084F0453
:100F90004E04031DAE2F5408CE005508CF0056084E
:100FA000D0000800FF1BDC2F83137F188317000875
:100FB000840A0319FF0A08007F087F398A000408A1
:100FC000840A0319FF0A82002030F701831384008A
:100FD0004E308A11EE2783018A11902E6400800121
:100FE000840A0406031900340406EF2FFF3FFF3F75
:101B2000831610169016901D932D9501960103179C
:101B30008501831295019601831686018701831220
:101B4000031307138316071383120713AD258A1592
:101B5000C6258A15CB258A15CF2D83161930061672
:101B6000061783129400FF308316930016308312F9
:101B70009400AA30831693008030940083121416C8
:101B8000130894168C1183168C150800FF30F7008B
:101B90000B178B1708008512831285160800A70102
:101BA000A601A60ACD01A801CB01CC01C901CA0139
:101BB000A501A301A401B701B801B901BA01BB0194
:101BC000BC01BD01BE01BF01C001C101C201C30111
:101BD000C401C501C601C701C801A901AA01AB0121
:101BE000AC01AD01AE01AF01B001B101B201B30171
:101BF000B401B501B6010800F000FF30F100652E18
:101C00002708612E2608612E4D08612E2808612EB6
:101C10004B08612E4C08612E4908612E4A08612E3E
:101C20002508612E2308612E2408612E3708612EB5
:101C30003808612E3908612E3A08612E3B08612E62
:101C40003C08612E3D08612E3E08612E3F08612E42
:101C50004008612E4108612E4208612E4308612E22
:101C60004408612E4508612E4608612E4708612E02
:101C70004808612E2908612E2A08612E2B08612E42
:101C80002C08612E2D08612E2E08612E2F08612E42
:101C90003008612E3108612E3208612E3308612E22
:101CA0003408612E3508612E3608612EF0305B2E27
:101CB000F1305B2EF23084008F30FF008A11D22782
:101CC0008A15F100F42EF101F42E7008003A031980
:101CD000002E013A0319022E033A0319042E013A89
:101CE0000319062E073A0319082E013A03190A2E82
:101CF000033A03190C2E013A03190E2E173A031951
:101D0000102E013A0319122E033A0319142E323AF7
:101D10000319162E013A0319182E033A03191A2E25
:101D2000013A03191C2E073A03191E2E013A031912
:101D3000202E033A0319222E013A0319242E0F3ABA
:101D40000319262E013A0319282E033A03192A2EC5
:101D5000013A03192C2E073A03192E2E013A0319C2
:101D6000302E033A0319322E013A0319342E1F3A4A
:101D70000319362E013A0319382E033A03193A2E65
:101D8000013A03193C2E073A03193E2E013A031972
:101D9000402E033A0319422E013A0319442E0F3AFA
:101DA0000319462E013A0319482E033A03194A2E05
:101DB000013A03194C2E073A03194E2E013A031922
:101DC000502E033A0319522E013A0319542E7C3A2D
:101DD00003195A2E153A0319562E343A0319632E55
:101DE000143A0319582EF42E71080800CE00FF3063
:101DF000CF005F2F27085B2F26085B2F4D085B2F36
:101E000028085B2F4B085B2F4C085B2F49085B2F82
:101E10004A085B2F25085B2F23085B2F24085B2FC4
:101E200037085B2F38085B2F39085B2F3A085B2F88
:101E30003B085B2F3C085B2F3D085B2F3E085B2F68
:101E40003F085B2F40085B2F41085B2F42085B2F48
:101E500043085B2F44085B2F45085B2F46085B2F28
:101E600047085B2F48085B2F29085B2F2A085B2F48
:101E70002B085B2F2C085B2F2D085B2F2E085B2F68
:101E80002F085B2F30085B2F31085B2F32085B2F48
:101E900033085B2F34085B2F35085B2F36085B2F28
:101EA000F030552FF130552FF23084008F30FF0085
:101EB0008A11D2278A15CF00EE2FCF01EE2F4E08C0
:101EC000003A0319FA2E013A0319FC2E033A0319BA
:101ED000FE2E013A0319002F073A0319022F013A87
:101EE0000319042F033A0319062F013A0319082F87
:101EF000173A03190A2F013A03190C2F033A031951
:101F00000E2F323A0319102F013A0319122F033AF8
:101F10000319142F013A0319162F073A0319182F22
:101F2000013A03191A2F033A03191C2F013A031916
:101F30001E2F0F3A0319202F013A0319222F033ABB
:101F40000319242F013A0319262F073A0319282FC2
:101F5000013A03192A2F033A03192C2F013A0319C6
:101F60002E2F1F3A0319302F013A0319322F033A4B
:101F70000319342F013A0319362F073A0319382F62
:101F8000013A03193A2F033A03193C2F013A031976
:101F90003E2F0F3A0319402F013A0319422F033AFB
:101FA0000319442F013A0319462F073A0319482F02
:101FB000013A03194A2F033A03194C2F013A031926
:101FC0004E2F7C3A0319542F153A0319502F343AE7
:101FD00003195D2F143A0319522FEE2F4F080800F2
:101FE000013408340134FF3FFF3FFF3FFF3FFF3F15
:00000001FF

