:10000006010B0000000000000000000000000000ec
:100600008A11112BFF3FFF3FFE00030E83120313DD
:10061000A3000408A4000A08A5007F08A6008A1108
:10062000E62E8A11132B83134530840062308A151D
:10063000EE268A11A0308400B0308A15EE268301A0
:100640008A11882C83120313B600B50105303502D8
:100650000318080001308A153C278A1107308312DD
:100660000313B2008A30B100B10B342BB20B342B20
:10067000000002308A153C278A1102308A153C2777
:100680008A1102308A153C278A1101308A153C27CD
:100690008A1103308A153C278A1102308A153C27BB
:1006A0008A1101308A153C278A1103308A153C27AC
:1006B0008A1101308A153C278A1103308A153C279C
:1006C0008A1102308A153C278A1102308A153C278C
:1006D0008A1102308A153C278A1102308A153C277C
:1006E0008A1102308A153C278A1102308A153C276C
:1006F0008A1101308A153C278A1103308A153C275C
:100700008A1102308A153C278A1102308A153C274B
:100710008A1101308A153C278A1103308A153C273B
:100720008A1102308A153C278A1102308A153C272B
:100730008A1101308A153C278A1103308A153C271B
:100740008A1102308A153C278A118312031330085C
:10075000013A031DB52B01308A153C278A118312FB
:100760000313B618BD2B0330C02B02308A153C276B
:100770008A1183120313B618BF2B0230C02B01302D
:100780008A153C278A118312031336080339B100F6
:100790003108B4001B2C02308A153C278A1108301E
:1007A0008312031336020318DA2B02308A153C2712
:1007B0008A112B2C01308A153C278A112B2C0130F1
:1007C0008A153C278A110830831203133602031856
:1007D000EE2B03308A153C278A112B2C02308A1508
:1007E0003C278A112B2C03308A153C278A110830AC
:1007F0008312031336020318022C02308A153C2799
:100800008A112B2C01308A153C278A112B2C02309F
:100810008A153C278A110830831203133602031805
:10082000162C03308A153C278A112B2C02308A158E
:100830003C278A112B2C831203133408003A031926
:10084000CB2B013A0319DF2B033A0319F32B013A9F
:100850000319072C2B2C043083120313A70000303C
:10086000A8003608B100B2013108A9003208AA0078
:100870008A114A278A11831203132708B300330809
:10088000B400662C02308A153C278A1101308A1583
:100890003C278A11762C01308A153C278A110230B8
:1008A0008A153C278A11762C03308A153C278A1139
:1008B00001308A153C278A11762C02308A153C2794
:1008C0008A1102308A153C278A11762C8312031371
:1008D0003408003A0319422C013A03194B2C033A0D
:1008E0000319542C013A03195D2C762C2F308312F6
:1008F0000313B200BF30B100B10B7C2CB20B7C2CC7
:10090000812C013083120313B1003108B507262B67
:1009100083120313C30181018A1514278A118312DC
:1009200003130717DE194D2D590858040319EC2C31
:10093000C401103044020318E42C440ABC00013006
:10094000BD000030BE00A72C0310BD0DBE0DBC0BBA
:10095000A42C3D08BF003E08C0003F085805BC005D
:1009600040085905BD003D083C040319D02C403017
:1009700087064408A03E840083130008BC003C089E
:10098000C1004408453E84000008BC003C08C20089
:100990004208BC003C08B70041088A1567278A1145
:1009A000831203134008BD003F08BC00BC09BD0909
:1009B0003C08D8053D08D9050130BC003C08C407F7
:1009C00010304402031C9D2CC3010030D5000030C0
:1009D000D6000030D7004D2D5D08BC00BD01BE0122
:1009E0003C08A7003D08A8003E08A900FA30AA006C
:1009F0000030AB000030AC008A11A7278A118312A7
:100A0000031357082902031D0B2D56082802031D46
:100A10000B2D550827020318382D0030D500003063
:100A2000D6000030D700403087064308A03E84003F
:100A300083130008BC003C08C1004308453E840005
:100A40000008BC003C08C2004208BC003C08B700DB
:100A500041088A1567278A11013083120313BC00ED
:100A60003C08C30710304302031C4D2DC3014D2D1C
:100A70000630BD003030BC00BC0B3C2DBD0B3C2D06
:100A80000000013083120313D50700300318013032
:100A9000D607003003180130D7078A11DE18002866
:100AA00083120313941F552D9413141F582D1413E0
:100AB000141A8F2C14168F2C83120313AA000030E3
:100AC000AB000630AC002A08A800A9012808AB0436
:100AD0002908AC042708013A0319AC15AD01083008
:100AE0002D020318FB2DAE010C302E020318D32D5E
:100AF0008512E430A8007C2D7D2DA80B7B2D802D48
:100B000000008312031385160730A9003A30A800AD
:100B1000A80B882DA90B882D0000831203138512C2
:100B20002C08A9002B08A8002E0A992D0310A90C47
:100B3000A80CFF3E031D962D281CB32D0730A900DD
:100B40003A30A800A80BA22DA90BA22D00008312F9
:100B500003138516E430A800AD2DAE2DA80BAC2DE7
:100B6000B12D0000C92DE43083120313A800B82D65
:100B7000B92DA80BB72DBC2D0000831203138516C9
:100B80000730A9003A30A800A80BC42DA90BC42D2A
:100B90000000013083120313A8002808AE070C30B0
:100BA0002E02031C782D8512E430A800D72DD82DF5
:100BB000A80BD62DDB2D00008312031385163F30C2
:100BC000A9005530A800A80BE32DA90BE32DE430B4
:100BD00083120313A800EC2DED2DA80BEB2DF02DA7
:100BE0000000013083120313A8002808AD07083065
:100BF0002D02031C732D3F30A9005530A800A80B0F
:100C0000FF2DA90BFF2D0800FB00FF30F90079082C
:100C1000FA0020307B02031C612E40307B02031857
:100C2000612E7B18262E0230F0000030F1007B0888
:100C3000E03EF200FF3003180030F3008A159327DE
:100C40007008A03E84008313000808000230F00002
:100C50000030F1007B08DF3EF200FF300318003067
:100C6000F3008A1593277008453E8400831300081B
:100C70000800831203135E08FF395B2E83120313EF
:100C80005D085B2E8312031361085B2E831203132E
:100C900058085B2E8312031359085B2EF030532E35
:100CA000F130532EF23084008F3083120313FF0093
:100CB0008A1500208A11F9007908FA007E2EFA01BF
:100CC0007E2E7B08003A0319392E013A03193E2E75
:100CD000033A0319422E043A0319462E013A031926
:100CE0004A2E443A0319522E153A03194E2E343A1D
:100CF00003195F2E143A0319502E7E2E7A0808002D
:100D000083120313A10020302102031CDA2E40308D
:100D100021020318DA2E0230F0000030F100210821
:100D2000E03EF200FF3003180030F3008A159327ED
:100D30008A117008FA007A0883120313A0002118A0
:100D4000AA2E7908FA002008A03E84007A088313AE
:100D5000800008002008453E8400831300087906BF
:100D60000319C22E200AFA000130FB000030FC00FB
:100D7000BC2E0310FB0DFC0DFA0BB92E7B08D8041A
:100D80007C08D9047908FA002008453E84007A08D6
:100D9000800008005E08790600397906DE00080048
:100DA0007908FA007A08DD0008007908FA007A0864
:100DB000E10008002108003A0319CA2E013A03197C
:100DC000D02E033A0319D52EE52E08008C1D3E2F98
:100DD000831603138C1D3E2F941E1419F92E141C18
:100DE000F92E831203131308A2002208FD00FF301E
:100DF000152F941A1419192F141C192F8312031369
:100E00001308A2002208FD006008FF3A031D0A2F04
:100E10007D08152F7D08A2002208F90060088A11BC
:100E200080268A11FE3083120313A2002208E000FC
:100E30003C2F941E141D312F1418312F83120313CD
:100E40001308A2002208FD0060088A1104268A11F6
:100E5000831203139300FE30A2002208E000141650
:100E60003C2F941A141D3C2F14183C2F831203138B
:100E70001308A2002208FD0083128C118312260899
:100E8000FF0025088A0024088400230E8300FE0E3C
:100E90007E0E090083120313AD01A81F562FA70968
:100EA000A809A70A0319A80AAD01AD0AAA1F612F54
:100EB000A909AA09A90A0319AA0A0130AB002B083B
:100EC000AD06AE01AF01280827040319982FAC0125
:100ED000AC0AA81B772F01300310A70DA80DFF3E09
:100EE000031D6C2F0130AB002B08AC07692F0130BC
:100EF0000310AE0DAF0DFF3E031D782F28082A0208
:100F0000031D842F27082902031C8D2F2708A902FF
:100F10002808031CAA03AA022E1401300310A80CEF
:100F2000A70CFF3E031D8E2F0130AC02031D772F4F
:100F30002D080319A02FAE09AF09AE0A0319AF0A95
:100F40002F08A801A8072E08A701A707080000304E
:100F500083120313AD000030AE000030AF00271C39
:100F6000BF2F2A08AD072B08031103182B0A031DF6
:100F7000AE072C08031103182C0A031DAF0701301C
:100F80000310AA0DAB0DAC0DFF3E031DC02F0130A9
:100F90000310A90CA80CA70CFF3E031DC82F29089D
:100FA00028042704031DAF2F2D08A7002E08A80032
:100FB0002F08A90008008316031306160617193018
:100FC000831203139400FF3083160313930016302B
:100FD000831203139400AA30831603139300803006
:100FE00094008312031314161308A7002708A800FF
:100FF00094168C11831603138C150800FF3FFF3FD6
:10100000FF1B0A2883137F1883170008840A03191B
:10101000FF0A08007F087F398A000408840A031940
:10102000FF0A8200FF3FFF3FFF3FFF3FFF3FFF3FC1
:101DC000FF3FFF3FFF3FFF3FFF3FFF3FFF3F8316C8
:101DD0000313851283120313851608006400800123
:101DE000840A0406031900340406EF2E8312031339
:101DF0005E0800390838DE00DD01DD0AE101D801A6
:101E0000D901A80110302802031808002808A03EB4
:101E10008400831380012808453E8400800101303E
:101E2000A7002708A807022F831603131016901681
:101E3000901D182F950196018316031785018312B3
:101E400003179501960183160317860187018312F4
:101E500003130713831603130713831203130713C4
:101E60008A15E7268A158A15F6268A158A11DB2730
:101E70008A158A15F327080083120313A900AA0103
:101E800029082A0203185D2F8512CF30A700482F9A
:101E9000A70B472F4B2F4C2F831203138516CF30E0
:101EA000A700522FA70B512F552F562F0130831209
:101EB0000313A7002708AA07402F0630A8003030D8
:101EC000A700A70B612FA80B612F00000800831249
:101ED0000313BB00BB080319080010303B020318B2
:101EE0007A2F3708B8003808B0003B088A1122233F
:101EF0008A15842F831203133708B8003808A70007
:101F00003B088A115C258A15033083120313BA003B
:101F10000830B9007830B800B80B8C2FB90B8C2F73
:101F2000BA0B8C2F0800F601F11F9D2FF009F10963
:101F3000F00A0319F10AF601F60AF31FA82FF209B5
:101F4000F309F20A0319F30A0130F4007408F606E3
:101F5000F701F801710870040319DF2FF501F50A84
:101F6000F11BBE2F01300310F00DF10DFF3E031DDC
:101F7000B32F0130F4007408F507B02F01300310BF
:101F8000F70DF80DFF3E031DBF2F71087302031DEF
:101F9000CB2F70087202031CD42F7008F202710854
:101FA000031CF303F302771401300310F10CF00C5F
:101FB000FF3E031DD52F0130F502031DBE2F76080D
:101FC0000319E72FF709F809F70A0319F80A78083F
:101FD000F101F1077708F001F007831203130800FD
:101FE00001340B340134FF3083120313A700270898
:101FF000E0000B178B170800FF3FFF3FFF3FFF3F3D
:00000001FF

