:1000000601070000000000000000000000000000f0
:100600008A11112BFF3FFF3FFE00030EF20004088A
:10061000F3000A08F400831203137F08F5008A111F
:10062000022D8A11E62FDC0010305C0258080318F6
:100630001E2BD2005C08C0238A11222BCE005C083E
:1006400031238A11033083120313DB000830DA00F0
:100650007830D900D90B2A2BDA0B2A2BDB0B2A2B6B
:100660000800D1000630D201D3005108D2044E0B4D
:100670003A2BD315D401D501E4308512CF00402B9D
:10068000412BCF0B3F2B442B640083120730031305
:100690008516D0003A30CF00CF0B4C2BD00B4C2B13
:1006A00064008312031385125308D0005208CF0050
:1006B000550A5D2B0310D00CCF0CFF3E031D5A2BA7
:1006C0004F1C772B0730D0003A30CF00CF0B662B72
:1006D000D00B662B64008312E43003138516CF0021
:1006E000712B722BCF0B702B752B64008B2BE4308E
:1006F000CF007A2B7B2BCF0B792B7E2B64008312C0
:10070000073003138516D0003A30CF00CF0B862B6D
:10071000D00B862B640083120C300313D50A5502CC
:10072000031C3C2BE4308512CF00962B972BCF0B6C
:10073000952B9A2B640083123F3003138516D0004B
:100740005530CF00CF0BA22BD00BA22BE43083125D
:100750000313CF00AB2BAC2BCF0BAA2BAF2B64001A
:10076000831208300313D40A5402031C3B2B3F307E
:10077000D0005530CF00CF0BBB2BD00BBB2B0800CC
:10078000D700D5010130D5248A1107308312031315
:10079000D4008A30D300D30BCB2BD40BCB2B6400EB
:1007A0000230D5248A110230D5248A110230D52492
:1007B0008A110130D5248A110330D5248A110230E0
:1007C000D5248A110130D5248A110330D5248A1109
:1007D0000130D5248A110330D5248A110230D52462
:1007E0008A110230D5248A110230D5248A110230B0
:1007F000D5248A110230D5248A110230D5248A11D9
:100800000130D5248A110330D5248A110230D52431
:100810008A110230D5248A110130D5248A1103307F
:10082000D5248A110230D5248A110230D5248A11A8
:100830000130D5248A110330D5248A110230D52401
:100840008A118B1383120313520B2F2C0130D524E2
:100850008A1183120313D718362C0330392C023037
:10086000D5248A1183120313D718382C0230392C5F
:100870000130D5248A11831203135708D6000330A0
:10088000D6057E2C0230D5248A11FD248A11031846
:100890004D2C0230D5248A118C2C0130D5248A119C
:1008A0008C2C0130D5248A11FD248A1103185C2C6C
:1008B0000330D5248A118C2C0230D5248A118C2C3B
:1008C0000330D5248A11FD248A1103186B2C0230C1
:1008D000D5248A118C2C0130D5248A118C2C02301D
:1008E000D5248A11FD248A1103187A2C0330D524CB
:1008F0008A118C2C0230D5248A118C2C5608003A8F
:100900000319422C013A0319512C033A0319602CA4
:10091000013A03196F2C8C2C831203135708D30050
:100920000310D30C0310D30C5308D600B32C0230A1
:10093000D5248A110130D5248A11C12C0130D52447
:100940008A110230D5248A11C12C0330D5248A1192
:100950000130D5248A11C12C0230D5248A110230ED
:10096000D5248A11C12C5608003A0319972C013A54
:1009700003199E2C033A0319A52C013A0319AC2C38
:10098000C12C2F308B1783120313D400BF30D30038
:10099000D30BC82CD40BC82CCD2C831205300313D9
:1009A000D50A550203180800C22B83120313D00086
:1009B000D101500851020318F32CCF308512CE001C
:1009C000E12CCE0BE02CE42CE52C8312CF3003136A
:1009D0008516CE00EB2CCE0BEA2CEE2CEF2C8312DE
:1009E0000313D10AD92C0630CF003030CE00CE0B05
:1009F000F72CCF0BF72C6400080008308312031388
:100A0000570208008C1D3D2D83168C1D3D2D941E14
:100A10001419102D141C102D83121308FF301D2DD6
:100A2000941A1419252D141C252D83121308F60071
:100A30007708FF3A031D1F2D7608F7003A2D760838
:100A4000F000770849258A113A2D941E141D332D84
:100A50001418332D8312130877088A15FC258A1180
:100A6000930014163A2D941A141D3A2D14183A2D89
:100A700083121308831203138C1175088312FF006D
:100A800074088A0073088400720E8300FE0E7E0EC6
:100A90000900F1000E2E7008A700A71C080000280E
:100AA0007008A60008007008CD0008007008A800B3
:100AB00008007008CB0008007008CC00080070081F
:100AC000C90008007008CA0008007008A5000800E6
:100AD0007008A30008007008A40008007008B700A0
:100AE000080038087006031D49107008B800080097
:100AF0007008B90008003A087006031DC910700894
:100B0000BA0008007008BB0008003C087006031D0E
:100B100049117008BC0008007008BD0008003E08BC
:100B20007006031DC9117008BE0008007008BF00E0
:100B3000080040087006031D49127008C000080034
:100B40007008C100080042087006031DC912700831
:100B5000C20008007008C300080044087006031DA6
:100B600049137008C40008007008C5000800460852
:100B70007006031DC9137008C60008007008C7007E
:100B8000080048087006031D4A107008C8000800D5
:100B90007008A90008002A087006031DCA10700812
:100BA000AA0008007008AB0008002C087006031D9E
:100BB0004A117008AC0008007008AD0008002E084B
:100BC0007006031DCA117008AE0008007008AF005F
:100BD000080030087006031D4A127008B0000800B3
:100BE0007008B100080032087006031DCA127008B0
:100BF000B20008007008B300080034087006031D36
:100C00004A137008B40008007008B50008003608E0
:100C10007006031DCA137008B60008007108003A78
:100C200003194B2D013A0319502D033A0319532D83
:100C3000013A0319562D073A0319592D013A0319A0
:100C40005C2D033A03195F2D013A0319622D173AFF
:100C50000319652D013A0319682D033A03196B2D09
:100C6000323A03196E2D013A0319712D033A031913
:100C7000782D013A03197B2D073A0319822D013A89
:100C80000319852D033A03198C2D013A03198F2D71
:100C90000F3A0319962D013A0319992D033A0319B6
:100CA000A02D013A0319A32D073A0319AA2D013AE1
:100CB0000319AD2D033A0319B42D013A0319B72DC9
:100CC0001F3A0319BE2D013A0319C12D033A031926
:100CD000C82D013A0319CB2D073A0319D22D013A39
:100CE0000319D52D033A0319DC2D013A0319DF2D21
:100CF0000F3A0319E62D013A0319E92D033A0319B6
:100D0000F02D013A0319F32D073A0319FA2D013A90
:100D10000319FD2D033A0319042E013A0319072E76
:100D2000912E0800E10181018A1590258A1107178B
:100D30004908FF3A031DA02E4A08FF3A0319012F64
:100D4000E201E20AE30149086205031DC52E4B08D2
:100D500062056206031DC12E403087060310630D35
:100D6000203E8A15F6268A11DF000310630D213E0E
:100D70008A15F6268A11E000D8005F088A1113232D
:100D80008A11831203136208C90408300310E20DAC
:100D9000E30A6302031CA32EE201E20AE3014A080C
:100DA0006205031DF52E4C0862056206031DF12E37
:100DB000053063020318F12E403087060310630DDF
:100DC000303E8A15F6268A11DF000310630D313E8E
:100DD0008A15F6268A11E000D8005F088A111323CD
:100DE0008A11831203136208CA0408300310E20D4B
:100DF000E30A6302031CCF2EE101A001A101A201BD
:100E0000A52F27142608CE00FA30CF01D001D1003B
:100E1000D201D3018A11AD278A1122085002031D85
:100E2000172F21084F02031D172F20084E02031809
:100E3000952F0830A001A101A201610203184E2FD5
:100E4000E201E20AE30161086302031C472F4B0839
:100E500062056206031D452F403087060310630DAF
:100E6000203E8A15F6268A11DF000310630D213E0D
:100E70008A15F6268A11E000D8005F088A1113232C
:100E80008A11083083120313E300E10A03100830CB
:100E9000E20DE30A63020318A52F232F0D30610230
:100EA0000318932FE201E20AE3016108F83EDD0036
:100EB000FF3003180030DE00803A803C031D622FB3
:100EC0005D086302031C892F831203134C0862051B
:100ED0006206031D882F053063020318842F4030FB
:100EE00087060310630D303E8A15F6268A11DF004F
:100EF0000310630D313E8A15F6268A11E000D800F2
:100F00005F088A1113238A11083083120313E30048
:100F1000E10A8312083003130310E20DE30A6302AF
:100F20000318A52F552FE101A52F0630DE00303024
:100F3000DD00DD0B992FDE0B992F64008312031364
:100F4000A00A0319A10A0319A20A941B9413141BE3
:100F50001413141A972E1416972ED401D501D60106
:100F60004E1CC02F5108D407520803110318520A0F
:100F7000031DD507530803110318530A031DD60791
:100F80000310D10DD20DD30D0310D00CCF0CCE0C0D
:100F900050084F044E04031DB02F5408CE005508CE
:100FA000CF005608D0000800FF1BDE2F83137F18E8
:100FB00083170008840A0319FF0A08007F087F3995
:100FC0008A000408840A0319FF0A82002030F7010E
:100FD000831384004E308A11F02783018A11922EE8
:100FE00064008001840A0406031900340406F12F0A
:101B2000831610169016901D932D9501960103179C
:101B30008501831295019601831686018701831220
:101B4000031307138316071383120713AD258A1592
:101B5000C6258A15CB258A15CF2D83161930061672
:101B6000061783129400FF308316930016308312F9
:101B70009400AA30831693008030940083121416C8
:101B8000130894168C1183168C150800FF30F7008B
:101B90000B178B1708008512831285160800A70102
:101BA000A601A60ACD01A801CB01CC01C901CA0139
:101BB000A501A301A401B701B801B901BA01BB0194
:101BC000BC01BD01BE01BF01C001C101C201C30111
:101BD000C401C501C601C701C801A901AA01AB0121
:101BE000AC01AD01AE01AF01B001B101B201B30171
:101BF000B401B501B6010800F000FF30F100652E18
:101C00002708612E2608612E4D08612E2808612EB6
:101C10004B08612E4C08612E4908612E4A08612E3E
:101C20002508612E2308612E2408612E3708612EB5
:101C30003808612E3908612E3A08612E3B08612E62
:101C40003C08612E3D08612E3E08612E3F08612E42
:101C50004008612E4108612E4208612E4308612E22
:101C60004408612E4508612E4608612E4708612E02
:101C70004808612E2908612E2A08612E2B08612E42
:101C80002C08612E2D08612E2E08612E2F08612E42
:101C90003008612E3108612E3208612E3308612E22
:101CA0003408612E3508612E3608612EF0305B2E27
:101CB000F1305B2EF23084008F30FF008A11D42780
:101CC0008A15F100F42EF101F42E7008003A031980
:101CD000002E013A0319022E033A0319042E013A89
:101CE0000319062E073A0319082E013A03190A2E82
:101CF000033A03190C2E013A03190E2E173A031951
:101D0000102E013A0319122E033A0319142E323AF7
:101D10000319162E013A0319182E033A03191A2E25
:101D2000013A03191C2E073A03191E2E013A031912
:101D3000202E033A0319222E013A0319242E0F3ABA
:101D40000319262E013A0319282E033A03192A2EC5
:101D5000013A03192C2E073A03192E2E013A0319C2
:101D6000302E033A0319322E013A0319342E1F3A4A
:101D70000319362E013A0319382E033A03193A2E65
:101D8000013A03193C2E073A03193E2E013A031972
:101D9000402E033A0319422E013A0319442E0F3AFA
:101DA0000319462E013A0319482E033A03194A2E05
:101DB000013A03194C2E073A03194E2E013A031922
:101DC000502E033A0319522E013A0319542E7C3A2D
:101DD00003195A2E153A0319562E343A0319632E55
:101DE000143A0319582EF42E71080800CE00FF3063
:101DF000CF005F2F27085B2F26085B2F4D085B2F36
:101E000028085B2F4B085B2F4C085B2F49085B2F82
:101E10004A085B2F25085B2F23085B2F24085B2FC4
:101E200037085B2F38085B2F39085B2F3A085B2F88
:101E30003B085B2F3C085B2F3D085B2F3E085B2F68
:101E40003F085B2F40085B2F41085B2F42085B2F48
:101E500043085B2F44085B2F45085B2F46085B2F28
:101E600047085B2F48085B2F29085B2F2A085B2F48
:101E70002B085B2F2C085B2F2D085B2F2E085B2F68
:101E80002F085B2F30085B2F31085B2F32085B2F48
:101E900033085B2F34085B2F35085B2F36085B2F28
:101EA000F030552FF130552FF23084008F30FF0085
:101EB0008A11D4278A15CF00EE2FCF01EE2F4E08BE
:101EC000003A0319FA2E013A0319FC2E033A0319BA
:101ED000FE2E013A0319002F073A0319022F013A87
:101EE0000319042F033A0319062F013A0319082F87
:101EF000173A03190A2F013A03190C2F033A031951
:101F00000E2F323A0319102F013A0319122F033AF8
:101F10000319142F013A0319162F073A0319182F22
:101F2000013A03191A2F033A03191C2F013A031916
:101F30001E2F0F3A0319202F013A0319222F033ABB
:101F40000319242F013A0319262F073A0319282FC2
:101F5000013A03192A2F033A03192C2F013A0319C6
:101F60002E2F1F3A0319302F013A0319322F033A4B
:101F70000319342F013A0319362F073A0319382F62
:101F8000013A03193A2F033A03193C2F013A031976
:101F90003E2F0F3A0319402F013A0319422F033AFB
:101FA0000319442F013A0319462F073A0319482F02
:101FB000013A03194A2F033A03194C2F013A031926
:101FC0004E2F7C3A0319542F153A0319502F343AE7
:101FD00003195D2F143A0319522FEE2F4F080800F2
:101FE000013407340134FF3FFF3FFF3FFF3FFF3F16
:00000001FF

