:1000000601020000000000000000000000000000f5
:100600008A11112BFF3FFF3FFE00030EF500040887
:10061000F6000A08F700831203137F08F8008A1116
:10062000132B8A11022F87158C1D172B182B992B32
:10063000831603138C1D1D2B1E2B992B941A212B13
:10064000222B352B1419252B262B352B141C292B4B
:100650002A2B352B831203131308F4007408F900B6
:10066000FF30F4007408FC00952B941E382B392BB6
:10067000602B14193C2B3D2B602B141C402B412B61
:10068000602B831203131308F4007408F9007C082C
:10069000FF3A031D4C2B4D2B522B7908F4007408A4
:1006A000FC00952B7908F4007408F1007C088A118D
:1006B00061258A11FE30F4007408FC00952B952BFF
:1006C000941A632B642B7F2B141D672B682B7F2BB5
:1006D00014186B2B6C2B7F2B831203131308F4005D
:1006E0007408F9007C088A115B248A1183120313B1
:1006F00093000130F4007408FC071416952B941E27
:10070000822B832B952B141D862B872B952B14184E
:100710008A2B8B2B952B831203131308F400740878
:10072000F900952B952B952B952B831203138C1188
:10073000992B83128C1E9D2B9E2BAF2B831603139C
:100740008C1EA32BA42BAF2B83120313C201031403
:10075000C20D1A08F4007408C100AF2BAF2B780843
:100760008312FF0077088A0076088400750E8300E4
:10077000FE0E7E0E090083120313E600E301E20180
:100780000314E20DFF30E400FF30E50066088A1133
:10079000BD258A11013A031DCE2BCF2B5A2C831273
:1007A0000313E401E501E70105306702031CD92BBF
:1007B000DA2BDC2B4C2C4C2C67086607DF005F081B
:1007C0008400831380080319E62BE72B4C2C03309D
:1007D0006302031CEC2BED2BEF2B4C2C4C2C6708ED
:1007E0006607DF005F08840000082E3A031DF92B1E
:1007F000FA2BFE2BE3010314E30DFE2B67086607BB
:10080000DF005F08840030300002031C082C092C34
:10081000412C67086607DF005F0884003A30000259
:100820000318132C142C412C6508DA01DA0764082C
:10083000D901D9070A30DB000030DC008A114426D8
:100840008A118312031367086607DF005F088400BC
:10085000831300085907E0005A0803185A0AE100F8
:100860006008D03EE40061080318013EFF3EE50049
:100870006308031D3C2C412C0130DF005F08E307B7
:10088000412C0130DF005F08E70705306702031CD9
:100890004A2C4B2CDC2B4C2C650864040319512C7E
:1008A000522C5A2C6508BA01BA076408B901B90775
:1008B0005A2C5A2C0800F100FF30F0007008F200AA
:1008C000C82C7B08FF39F0007008F200F12C7A0880
:1008D000FF39F0007008F200F12C831203133F0877
:1008E000F0007008F200F12C831203133E08F000B0
:1008F0007008F200F12C831203133D08F000700819
:10090000F200F12C831203133B08F0007008F20090
:10091000F12C831203133C08F0007008F200F12C54
:10092000831203133A08F0007008F200F12C8312CE
:1009300003133908F0007008F200F12CF030840045
:100940008F3083120313FF008A11C2268A11F00030
:100950007008F200F12CF13084008F308312031301
:10096000FF008A11C2268A11F0007008F200F12CF3
:10097000F23084008F3083120313FF008A11C226E5
:100980008A11F0007008F200F12CF201F12CF12C28
:100990007108003A0319612C013A0319672C033AD4
:1009A00003196D2C013A0319742C133A03197B2C8B
:1009B000013A0319822C033A0319892C323A03199C
:1009C000902C013A0319972C623A0319B82C153A66
:1009D00003199E2C343A0319C52C143A0319AB2C75
:1009E000F12C7208F32C08008312031381018A1181
:1009F00014268A118A1193268A11FE2C831203135E
:100A00004208013A031D052D062D4D2DC201C408D3
:100A1000031D0B2D0C2D182D41080D3A031D112D12
:100A2000122D4D2DC4010314C40DC3014D2D4D2DA8
:100A30004108E8004308453E8400680883138000AD
:100A40004308453E840000080D3A0319282D292D3E
:100A5000302D4308123A031D2E2D2F2D462D302DFB
:100A60004308453E840000080D3A031D382D392DFA
:100A7000422D4308453E8400800145308A11BB2346
:100A80008A11422D83120313C4014D2D0130E80059
:100A90006808C3074D2D4D2D4D2D941F502D512D00
:100AA000522D9413141F552D562D572D1413141A0F
:100AB0005A2D5B2DFE2C1416FE2CFE2CFE2C8A11BA
:100AC000112BF300A22D7B08710600397106FB0083
:100AD000FB1C6B2D6C2DBC2D0028BC2DBC2D7A0869
:100AE000710600397106FA00BC2D7108F200720817
:100AF00083120313BF00BC2D7108F2007208831229
:100B00000313BE00BC2D7108F20072088312031398
:100B1000BD00BC2D7108F200720883120313BB00E4
:100B2000BC2D7108F200720883120313BC00BC2DA7
:100B30004D308A11F3268A110D308A11F3268A115D
:100B4000BC2DBC2D7308003A0319632D013A03191B
:100B50006F2D033A0319752D013A03197C2D133AB1
:100B60000319832D013A03198A2D033A0319912D94
:100B7000533A0319982DBC2D080083120313DB0090
:100B8000DA010314DA0DDC01FE2D5C085B07D900E5
:100B900059088400303083130002031CD02DD12D5E
:100BA000DD2D5C085B07D900590884003A3000024B
:100BB000031CDB2DDC2DF92DDD2D5C085B07D90036
:100BC0005908840000082E3A0319E72DE82DF92D65
:100BD0005C085B07D9005908840000082D3A031D02
:100BE000F22DF32DF72D5C08031DF72DF92DDA01F9
:100BF000112E0130D9005908DC07FE2D12305C029D
:100C00000318032E042E112E5C085B07D900590827
:100C1000840083138008031D0E2E0F2EC52D112E68
:100C2000112E5A08132E080083160313101690165F
:100C3000192E901D1C2E1D2E192E1E2E950196016B
:100C400083160317850183120317950196018316F6
:100C50000317860187018312031387118316031379
:100C600087118312031387118316031387178A11C1
:100C700070268A118A11AB268A118A1110278A11CF
:100C80008A11D4268A11080083120313DD01DE01C4
:100C9000492E591C4C2E4D2E532E5B08DD07031890
:100CA000DE0A5C08DE0701300310DB0DDC0DFF3EC1
:100CB000031D542E01300310DA0CD90CFF3E031D26
:100CC0005B2E5A085904031D662E672E492E682E86
:100CD0005E08DA01DA075D08D901D9076F2E08002E
:100CE0008316031306160617193083120313940094
:100CF000FF308316031393001630831203139400FE
:100D0000483083160313930080309400831203133A
:100D100014161308D9005908DA0094168C1183169A
:100D200003138C15080043308A11E4268A110D3014
:100D30008A11E4268A11063083120313DC00133073
:100D4000DB00B130DA00DA0BA32EDB0BA32EDC0BB9
:100D5000A32EAA2E080083120313C20183160313C5
:100D600018131815193099001812831203139817C5
:100D7000831603139816831203131816831603138E
:100D80008C160800FF1BCC2E83137F1883170008D6
:100D9000840A0319FF0A08007F087F398A000408C3
:100DA000840A0319FF0A82000030FB057A08003923
:100DB0000238FA0083120313BF01BE01BD01BB015B
:100DC000BC01B901BA01080083120313D900590804
:100DD00099000000EB2E831203130C1EF02EF12E4F
:100DE000EB2EF22E0800F000700883120313990016
:100DF0000000FA2E831203130C1EFF2E002FFA2E72
:100E0000012F0800FD01FA01FB01FC0183132030D2
:100E1000840059308A1119278A1183018A11F42C10
:100E2000FF3083120313D9005908FC000B178B17EE
:100E3000080064008001840A0406031900340406D3
:100E40001A2FFF3FFF3FFF3FFF3FFF3FFF3FFF3FA7
:101FE000013402340A34FF3FFF3FFF3FFF3FFF3F12
:00000001FF

