:1000000601020000000000000000000000000000f5
:100600008A11112BFF3FFF3FFE00030EF900040883
:10061000FA000A08FB00831203137F08FC008A110A
:10062000C12C8A11AD2FF600FF30F0007008F700E2
:10063000C52B831203134108FF39F0007008F7003F
:10064000F42B831203134008FF39F0007008F70001
:10065000F42B831203134408F0007008F700F42B06
:10066000831203134208F0007008F700F42B831282
:1006700003133F08F0007008F700F42B83120313F4
:100680003D08F0007008F700F42B831203133E08B6
:10069000F0007008F700F42B831203133908F00000
:1006A0003A08F1003B08F2003C08F3001830F4006F
:1006B000730DF30CF20CF10CF00CF40B582B7008CA
:1006C000F5007508F700F42B831203133908F000C6
:1006D0003A08F1003B08F2003C08F3001030F40047
:1006E000730DF30CF20CF10CF00CF40B702B700882
:1006F000F5007508F700F42B831203133908F00096
:100700003A08F1003B08F2003C08F3000830F4001E
:10071000730DF30CF20CF10CF00CF40B882B700839
:10072000F5007508F700F42B831203133908F00065
:100730007008F700F42BF03084008F30831203131D
:10074000FF008A119B278A11F0007008F700F42B34
:10075000F13084008F3083120313FF008A119B272E
:100760008A11F0007008F700F42BF23084008F300B
:1007700083120313FF008A119B278A11F00070086F
:10078000F700F42BF701F42BF42B7608003A031949
:10079000192B013A0319212B033A0319292B013A8A
:1007A0000319302B133A0319372B013A03193E2B47
:1007B000033A0319452B323A03194C2B013A03191A
:1007C000642B033A03197C2B013A0319942B603AEA
:1007D0000319B52B153A03199B2B343A0319C22B75
:1007E000143A0319A82BF42B7708F62B0800831270
:1007F0000313DF00DD01DE010314DE0DFF30BC005A
:10080000FF30BB00FF30BA00FF30B9005F088A112B
:100810005F268A11013A031D0E2C0F2CC02C0030CC
:1008200083120313BC000030BB000030BA0000305C
:10083000B900E00108306002031C1F2C202C222C80
:10084000A22CA22C60085F07D600560884008313F0
:100850008008031D2C2C2D2C2F2CA22CA22C6008E0
:100860005F07D6005608840030300002031C392C84
:100870003A2C872C60085F07D600560884003A306F
:1008800000020318442C452C872C60085F07D60013
:10089000560884000008D03ED700FF30031800300F
:1008A000D8005708D9005808DA00DB01DC013C0801
:1008B000CC003B08CB003A08CA003908C900003018
:1008C000D0000030CF000030CE000A30CD008A11B9
:1008D000B6268A11831203134908D9074A08031858
:1008E0004A0F732C742CDA074B0803184B0F792C22
:1008F0007A2CDB074C0803184C0ADC075C08BC00A8
:100900005B08BB005A08BA005908B900972C600868
:100910005F07D60056088400831300082D3A031D94
:10092000922C932C972CDE01DE03972C972C013010
:10093000D6005608E00708306002031CA02CA12C4A
:10094000222CA22C5E08C9008039031DFF30CA008A
:10095000CB00CC003C08D0003B08CF003A08CE00CA
:100960003908CD008A11B6268A11831203134C0868
:10097000BC004B08BB004A08BA004908B900C02CAB
:10098000080087158C1DC52CC62C482D8316031313
:100990008C1DCB2CCC2C482D941ACF2CD02CE32C96
:1009A0001419D32CD42CE32C141CD72CD82CE32CC6
:1009B000831203131308F8007808FD00FF30F800D5
:1009C0007808C300452D941EE62CE72C102D141931
:1009D000EA2CEB2C102D141CEE2CEF2C102D831276
:1009E00003131308F8007808FD004308FF3A031DBD
:1009F000FA2CFB2C002D7D08F8007808C300452D4B
:100A00007D08F8007808F10043088A11E7258A116B
:100A10000130F800780883120313C307452D452DD4
:100A2000941A132D142D2F2D141D172D182D2F2D25
:100A300014181B2D1C2D2F2D831203131308F800DF
:100A40007808FD0043088A1113238A1183120313C7
:100A500093000130F8007808C3071416452D941E42
:100A6000322D332D452D141D362D372D452D1418BF
:100A70003A2D3B2D452D831203131308F8007808F7
:100A8000FD00452D452D452D452D83128C11482DFA
:100A900083128C1E4C2D4D2D5E2D831603138C1E40
:100AA000522D532D5E2D83120313C6010314C60D60
:100AB0001A08F8007808C5005E2D5E2D7C088312A8
:100AC000FF007B088A007A088400790E8300FE0EFE
:100AD0007E0E09008312031381018A1102278A11F5
:100AE0008A1156278A11742D83120313871F792DBB
:100AF0007A2D872D831603131308013A031D812DC8
:100B0000822D942D8A11ED278A11942D942D831610
:100B1000031313083A3A031D8E2D8F2D942D8A113D
:100B2000F2278A11942D942D831203134608013A5B
:100B3000031D9B2D9C2D742DC601C808031DA12DDE
:100B4000A22DAE2D45080D3A031DA72DA82D742DFD
:100B5000C8010314C80DC701742D742D4508E100A8
:100B60004708A03E84006108831380004708A03E28
:100B7000840000080D3A0319BE2DBF2DC62D47086D
:100B8000123A031DC42DC52DDC2DC62D4708A03EED
:100B9000840000080D3A031DCE2DCF2DD82D470817
:100BA000A03E84008001A0308A11F7238A11D82D3D
:100BB00083120313C801742D0130E1006108C707D7
:100BC000742D742D742D742D742D8A11112BF30036
:100BD0003E2E831203134108710600397106C100CD
:100BE000C11CF32DF42D5E2E00285E2E5E2E831286
:100BF00003134008710600397106C0005E2E7108AB
:100C0000F200720883120313C4005E2E7108F20012
:100C1000720883120313C2005E2E7108F20072087C
:100C200083120313BF005E2E7108F2007208831254
:100C30000313BD005E2E7108F200720883120313C5
:100C4000BE005E2E58308A11CD278A110D308A11D0
:100C5000CD278A115E2E2D308A11CD278A110D30B5
:100C60008A11CD278A115E2E2B308A11CD278A1149
:100C70000D308A11CD278A115E2E5E2E7308003A40
:100C80000319E92D013A0319F72D033A0319FF2D32
:100C9000013A0319062E133A03190D2E013A0319CE
:100CA000142E033A03191B2E523A0319222E013A2D
:100CB00003192B2E033A0319342E5E2E08008312DB
:100CC0000313CB00CA010314CA0DCC01A02E4C089B
:100CD0004B07C90049088400303083130002031C0D
:100CE000722E732E7F2E4C084B07C90049088400D2
:100CF0003A300002031C7D2E7E2E9B2E7F2E4C0848
:100D00004B07C9004908840000082E3A0319892EB0
:100D10008A2E9B2E4C084B07C90049088400000806
:100D20002D3A031D942E952E992E4C08031D992EB5
:100D30009B2ECA01B32E0130C9004908CC07A02E52
:100D400012304C020318A52EA62EB32E4C084B07CA
:100D5000C9004908840083138008031DB02EB12EFA
:100D6000672EB32EB32E4A08B52E0800003083122A
:100D70000313D5000030D4000030D3000030D2007F
:100D8000C12E491CC42EC52EDD2E4D08D2074E089B
:100D900003110318013E0319CE2ED3074F08031188
:100DA0000318013E0319D52ED40750080311031868
:100DB000013E0319DC2ED507DD2E0130D1000310D2
:100DC000CD0DCE0DCF0DD00DD10BDF2E0130031088
:100DD000CC0CCB0CCA0CC90CFF3E031DE72E4C08F3
:100DE0004B044A044904031DF62EF72EC12EF82E9B
:100DF0005508CC005408CB005308CA005208C9005B
:100E0000012F08008316031310169016072F901D4C
:100E10000A2F0B2F072F0C2F95019601831603170E
:100E20008501831203179501960183160317860126
:100E3000870183120313871183160313871183120B
:100E4000031387118316031387178A1132278A1118
:100E50008A116E278A118A11DC278A118A11852747
:100E60008A11080083160313061606171930831219
:100E700003139400FF30831603139300163083127C
:100E80000313940001308316031393008030940001
:100E900094178312031314161308C9004908CA00D3
:100EA00094168C11831603138C15080043308A1195
:100EB000BE278A110D308A11BE278A11063083128F
:100EC0000313CC001330CB00B130CA00CA0B662F1D
:100ED000CB0B662FCC0B662F6D2F080083120313EC
:100EE000C601831603131813181519309900181228
:100EF0008312031398178316031398168312031390
:100F00001816831603138C1608000030831203137F
:100F1000C105400800390238C000C401C201BF0148
:100F2000BD01BE010030BC000030BB000030BA0083
:100F30000030B9000800FF1BA52F83137F1883170B
:100F40000008840A0319FF0A08007F087F398A0015
:100F50000408840A0319FF0A8200E2018313203087
:100F6000840049308A11E5278A11A0308400B4300A
:100F70008A11E5278A1183018A116A2D83120313CE
:100F8000C900490899000000C52F831203130C1EE5
:100F9000CA2FCB2FC52FCC2F0800F000700883126A
:100FA000031399000000D42F831203130C1ED92FB2
:100FB000DA2FD42FDB2F0800FF3083120313C90070
:100FC0004908C3000B178B17080064008001840ACE
:100FD0000406031900340406E62F3A30831603137F
:100FE0009300080001308316031393000800FF3FAD
:101FE000013402340B34FF3FFF3FFF3FFF3FFF3F11
:00000001FF

