:1000000601020000000000000000000000000000f5
:100600008A11112BFF3FFF3FFE00030EF500040887
:10061000F6000A08F700831203137F08F8008A1116
:10062000132B8A11262F87158C1D172B182B992B0E
:10063000831603138C1D1D2B1E2B992B941A212B13
:10064000222B352B1419252B262B352B141C292B4B
:100650002A2B352B831203131308F4007408F900B6
:10066000FF30F4007408FC00952B941E382B392BB6
:10067000602B14193C2B3D2B602B141C402B412B61
:10068000602B831203131308F4007408F9007C082C
:10069000FF3A031D4C2B4D2B522B7908F4007408A4
:1006A000FC00952B7908F4007408F1007C088A118D
:1006B000F4248A11FE30F4007408FC00952B952B6D
:1006C000941A632B642B7F2B141D672B682B7F2BB5
:1006D00014186B2B6C2B7F2B831203131308F4005D
:1006E0007408F9007C088A115B248A1183120313B1
:1006F00093000130F4007408FC071416952B941E27
:10070000822B832B952B141D862B872B952B14184E
:100710008A2B8B2B952B831203131308F400740878
:10072000F900952B952B952B952B831203138C1188
:10073000992B83128C1E9D2B9E2BAF2B831603139C
:100740008C1EA32BA42BAF2B83120313C201031403
:10075000C20D1A08F4007408C100AF2BAF2B780843
:100760008312FF0077088A0076088400750E8300E4
:10077000FE0E7E0E090083120313E600E301E20180
:100780000314E20DFF30E400FF30E50066088A1133
:10079000E1258A11013A031DCE2BCF2B5A2C83124F
:1007A0000313E401E501E70105306702031CD92BBF
:1007B000DA2BDC2B4C2C4C2C67086607DF005F081B
:1007C0008400831380080319E62BE72B4C2C03309D
:1007D0006302031CEC2BED2BEF2B4C2C4C2C6708ED
:1007E0006607DF005F08840000082E3A031DF92B1E
:1007F000FA2BFE2BE3010314E30DFE2B67086607BB
:10080000DF005F08840030300002031C082C092C34
:10081000412C67086607DF005F0884003A30000259
:100820000318132C142C412C6508DA01DA0764082C
:10083000D901D9070A30DB000030DC008A116826B4
:100840008A118312031367086607DF005F088400BC
:10085000831300085907E0005A0803185A0AE100F8
:100860006008D03EE40061080318013EFF3EE50049
:100870006308031D3C2C412C0130DF005F08E307B7
:10088000412C0130DF005F08E70705306702031CD9
:100890004A2C4B2CDC2B4C2C650864040319512C7E
:1008A000522C5A2C6508BA01BA076408B901B90775
:1008B0005A2C5A2C0800F100FF30F0007008F200AA
:1008C000C82C7B08FF39F0007008F200F12C7A0880
:1008D000FF39F0007008F200F12C831203133F0877
:1008E000F0007008F200F12C831203133E08F000B0
:1008F0007008F200F12C831203133D08F000700819
:10090000F200F12C831203133B08F0007008F20090
:10091000F12C831203133C08F0007008F200F12C54
:10092000831203133A08F0007008F200F12C8312CE
:1009300003133908F0007008F200F12CF030840045
:100940008F3083120313FF008A11E6268A11F0000C
:100950007008F200F12CF13084008F308312031301
:10096000FF008A11E6268A11F0007008F200F12CCF
:10097000F23084008F3083120313FF008A11E626C1
:100980008A11F0007008F200F12CF201F12CF12C28
:100990007108003A0319612C013A0319672C033AD4
:1009A00003196D2C013A0319742C133A03197B2C8B
:1009B000013A0319822C033A0319892C323A03199C
:1009C000902C013A0319972C623A0319B82C153A66
:1009D00003199E2C343A0319C52C143A0319AB2C75
:1009E000F12C7208F32C0800F300502D7B087106DF
:1009F00000397106FB00FB1CFE2CFF2C732D002818
:100A0000732D732D7A08710600397106FA00732D63
:100A10007108F200720883120313BF00732D71086E
:100A2000F200720883120313BE00732D7108F200E6
:100A3000720883120313BD00732D7108F20072084F
:100A400083120313BB00732D7108F2007208831226
:100A50000313BC00732D58308A1117278A110D30EB
:100A60008A1117278A11732D53308A1117278A117B
:100A70000D308A1117278A11732D46308A111727D6
:100A80008A110D308A1117278A11732D54308A115B
:100A900017278A110D308A1117278A11732D732D8C
:100AA0007308003A0319F62C013A0319022D033A90
:100AB0000319082D013A03190F2D133A0319162DA6
:100AC000013A03191D2D033A0319242D523A031933
:100AD0002B2D013A0319342D033A03193D2D013A08
:100AE0000319462D732D08008312031381018A1107
:100AF00038268A118A11B7268A117E2D8312031394
:100B00004208013A031D852D862DCD2DC201C40852
:100B1000031D8B2D8C2D982D41080D3A031D912D11
:100B2000922DCD2DC4010314C40DC301CD2DCD2DA7
:100B30004108E8004308453E8400680883138000AC
:100B40004308453E840000080D3A0319A82DA92D3D
:100B5000B02D4308123A031DAE2DAF2DC62DB02D7A
:100B60004308453E840000080D3A031DB82DB92DF9
:100B7000C22D4308453E8400800145308A11BB23C5
:100B80008A11C22D83120313C401CD2D0130E80058
:100B90006808C307CD2DCD2DCD2D941FD02DD12D7F
:100BA000D22D9413141FD52DD62DD72D1413141A0E
:100BB000DA2DDB2D7E2D14167E2D7E2D7E2D8A11B5
:100BC000112B83120313DB00DA010314DA0DDC01AD
:100BD000222E5C085B07D90059088400303083134B
:100BE0000002031CF42DF52D012E5C085B07D900D3
:100BF000590884003A300002031CFF2D002E1D2EE0
:100C0000012E5C085B07D9005908840000082E3AC1
:100C100003190B2E0C2E1D2E5C085B07D9005908FA
:100C2000840000082D3A031D162E172E1B2E5C087B
:100C3000031D1B2E1D2EDA01352E0130D900590857
:100C4000DC07222E12305C020318272E282E352EA8
:100C50005C085B07D9005908840083138008031DD2
:100C6000322E332EE92D352E352E5A08372E080018
:100C700083160313101690163D2E901D402E412E04
:100C80003D2E422E9501960183160317850183128E
:100C900003179501960183160317860187018312B6
:100CA000031387118316031387118312031387110C
:100CB0008316031387178A1194268A118A11CF2667
:100CC0008A118A1134278A118A11F8268A1108009C
:100CD00083120313DD01DE016D2E591C702E712E5F
:100CE000772E5B08DD070318DE0A5C08DE0701309B
:100CF0000310DB0DDC0DFF3E031D782E01300310C9
:100D0000DA0CD90CFF3E031D7F2E5A085904031D2F
:100D10008A2E8B2E6D2E8C2E5E08DA01DA075D0886
:100D2000D901D907932E0800831603130616061758
:100D30001930831203139400FF30831603139300BA
:100D40001630831203139400283083160313930084
:100D5000803094008312031314161308D900590825
:100D6000DA0094168C11831603138C150800433097
:100D70008A1108278A110D308A1108278A11063036
:100D800083120313DC001330DB00B130DA00DA0B1E
:100D9000C72EDB0BC72EDC0BC72ECE2E080083120E
:100DA0000313C20183160313181318151930990081
:100DB00018128312031398178316031398168312BD
:100DC00003131816831603138C160800FF1BF02E4E
:100DD00083137F1883170008840A0319FF0A080089
:100DE0007F087F398A000408840A0319FF0A8200F9
:100DF0000030FB057A0800390238FA008312031329
:100E0000BF01BE01BD01BB01BC01B901BA010800AF
:100E100083120313D9005908990000000F2F831281
:100E200003130C1E142F152F0F2F162F0800F00080
:100E3000700883120313990000001E2F83120313FE
:100E40000C1E232F242F1E2F252F0800FD01FA0131
:100E5000FB01FC0183132030840059308A113D27A7
:100E60008A1183018A11742DFF3083120313D90074
:100E70005908FC000B178B17080064008001840AD6
:100E800004060319003404063E2FFF3FFF3FFF3FD7
:101FE000013402340834FF3FFF3FFF3FFF3FFF3F14
:00000001FF

