:020000060003f5
:100600008A11112BFF3FFF3FFE00030EF20004088A
:10061000F3000A08F400831203137F08F5008A111F
:10062000132B8A11F32F403087068C1D522B831613
:100630008C1D522B83128C118316941E1419262B99
:10064000141C262B83121308FF30332B941A141911
:100650003C2B141C3C2B83121308F6007708FF3A3E
:10066000031D352B7608F700522B7608F00077082B
:100670005F238A11F70A522B941E141D4B2B14185A
:100680004B2B8312130877088A1506268A119300CC
:10069000F70A1416522B941A141D522B1418522BAD
:1006A00083121308750883120313FF0074088A006D
:1006B00073088400720E8300FE0E7E0E0900F100A6
:1006C000642C7008A700A71C080000287008A6006A
:1006D00008007008CD0008007008A8000800700825
:1006E000CB0008007008CC0008007008C9000800A2
:1006F0007008CA0008007008A50008007008A30070
:1007000008007008A400080037087006031D49108F
:100710007008B700080038087006031D49107008FB
:10072000B800080039087006031DC9107008B90028
:1007300008003A087006031DC9107008BA000800C6
:100740003B087006031D49117008BB0008003C08F7
:100750007006031D49117008BC0008003D087006B2
:10076000031DC9117008BD0008003E087006031D76
:10077000C9117008BE0008003F087006031D491229
:100780007008BF00080040087006031D4912700879
:10079000C000080041087006031DC9127008C1009E
:1007A000080042087006031DC9127008C200080044
:1007B00043087006031D49137008C300080044086D
:1007C0007006031D49127008C40008004508700631
:1007D000031DC9137008C500080046087006031DF4
:1007E000C9137008C600080047087006031D4A10A8
:1007F0007008C700080048087006031D4A107008FA
:10080000C800080029087006031DCA107008A90056
:1008100008002A087006031DCA107008AA00080004
:100820002B087006031D4A117008AB0008002C0845
:100830007006031D4A117008AC0008002D087006F0
:10084000031DCA117008AD0008002E087006031DB4
:10085000CA117008AE0008002F087006031D4A1266
:100860007008AF00080030087006031D4A127008B7
:10087000B000080031087006031DCA127008B100EC
:10088000080032087006031DCA127008B200080082
:1008900033087006031D4A137008B30008003408BB
:1008A0007006031D4A137008B4000800350870066E
:1008B000031DCA137008B500080036087006031D32
:1008C000CA137008B60008007108003A0319612BBA
:1008D000013A0319662B033A0319692B013A0319EC
:1008E0006C2B073A03196F2B013A0319722B033A49
:1008F0000319752B013A0319782B173A03197B2B2F
:10090000013A03197E2B033A0319812B323A03195A
:10091000842B013A03198B2B033A0319922B013ACA
:100920000319992B073A0319A02B013A0319A72B96
:10093000033A0319AE2B013A0319B52B0F3A0319E9
:10094000BC2B013A0319C32B033A0319CA2B013AF2
:100950000319D12B073A0319D82B013A0319DF2BBE
:10096000033A0319E62B013A0319ED2B1F3A031939
:10097000F42B013A0319FB2B033A0319022C013A19
:100980000319092C073A0319102C013A0319172CE3
:10099000033A03191E2C013A0319252C0F3A0319A7
:1009A0002C2C013A0319332C033A03193A2C013A3F
:1009B0000319412C073A0319482C013A03194F2C0B
:1009C000033A0319562C013A03195D2CE72C080051
:1009D000D9001030590258080318F12CD2005908D8
:1009E000832DCE005908F42CD1000630D201D3005B
:1009F0005108D2044E0BFD2CD315D401D501E4309F
:100A00008512CF00032D042DCF0B022D072D64007E
:100A10008312073003138516D0003A30CF00CF0B76
:100A20000F2DD00B0F2D6400831203138512530872
:100A3000D0005208CF00550A202D0310D00CCF0C47
:100A4000FF3E031D1D2D4F1C3A2D0730D0003A30BC
:100A5000CF00CF0B292DD00B292D64008312E43059
:100A600003138516CF00342D352DCF0B332D382DA4
:100A700064004E2DE430CF003D2D3E2DCF0B3C2D9C
:100A8000412D64008312073003138516D0003A30DD
:100A9000CF00CF0B492DD00B492D640083120C30B1
:100AA0000313D50A5502031CFF2CE4308512CF0036
:100AB000592D5A2DCF0B582D5D2D640083123F30D8
:100AC00003138516D0005530CF00CF0B652DD00B0A
:100AD000652DE43083120313CF006E2D6F2DCF0BE5
:100AE0006D2D722D6400831208300313D40A540252
:100AF000031CFE2C3F30D0005530CF00CF0B7E2D95
:100B0000D00B7E2D0800D700D50101308B268A112D
:100B100002308B268A1102308B268A1102308B26F6
:100B20008A1101308B268A1103308B268A110230FC
:100B30008B268A1101308B268A1103308B268A116D
:100B400001308B268A1103308B268A1102308B26C6
:100B50008A1102308B268A1102308B268A110230CC
:100B60008B268A1102308B268A1102308B268A113D
:100B700001308B268A1103308B268A1102308B2696
:100B80008A1102308B268A1101308B268A1103309C
:100B90008B268A1102308B268A1102308B268A110D
:100BA00001308B268A1103308B268A1102308B2666
:100BB0008A1183120313520BE62D01308B268A1102
:100BC00083120313D718ED2D0330F02D02308B263E
:100BD0008A1183120313D718EF2D0230F02D013044
:100BE0008B268A11831203135708D6000330D605CB
:100BF000352E02308B268A11B3268A110318042E53
:100C000002308B268A11432E01308B268A11432E07
:100C100001308B268A11B3268A110318132E033054
:100C20008B268A11432E02308B268A11432E0330E5
:100C30008B268A11B3268A110318222E02308B26A6
:100C40008A11432E01308B268A11432E02308B26C7
:100C50008A11B3268A110318312E03308B268A118C
:100C6000432E02308B268A11432E5608003A031970
:100C7000F92D013A0319082E033A0319172E013AE8
:100C80000319262E432E831203135708D300031093
:100C9000D30C0310D30C5308D6006A2E02308B26D7
:100CA0008A1101308B268A11782E01308B268A1109
:100CB00002308B268A11782E03308B268A11013060
:100CC0008B268A11782E02308B268A1102308B26D1
:100CD0008A11782E5608003A03194E2E013A03194C
:100CE000552E033A03195C2E013A0319632E782E10
:100CF0002F3083120313D400BF30D300D30B7E2ECA
:100D0000D40B7E2E832E831205300313D50A550291
:100D100003180800852D83120313D000D101500859
:100D200051020318A92ECF308512CE00972ECE0B7C
:100D3000962E9A2E9B2E8312CF3003138516CE004B
:100D4000A12ECE0BA02EA42EA52E83120313D10A02
:100D50008F2E0630CF003030CE00CE0BAD2ECF0B15
:100D6000AD2E6400080008308312031357020800F8
:100D7000DE0181018A1599258A1107174908FF3A72
:100D8000031DC62E4A08FF3A03191F2FDF01DF0A91
:100D9000E00149085F05031DE92E4B085F055F066A
:100DA000031DE52E0310600D203E8A15FB268A11D7
:100DB000DC000310600D213E8A15FB268A11DD0040
:100DC000D8005C088A11E8248A11831203135F0893
:100DD000C90408300310DF0DE00A6002031CC92EAD
:100DE000DF01DF0AE0014A085F05031D132F4C08ED
:100DF0005F055F06031D0F2F0310600D303E8A153F
:100E0000FB268A11DC000310600D313E8A15FB269B
:100E10008A11DD00D8005C088A11E8248A11831247
:100E200003135F08CA0408300310DF0DE00A6002F4
:100E3000031CF32EDE01A001A101A201BD2E271487
:100E40002608CE00FA30CF01D001D100D201D30163
:100E50008A11BA278A1122085002031D352F210852
:100E60004F02031D352F20084E020318A92F08300A
:100E7000A001A101A2015E02DF01DF0AE001031867
:100E80006C2F4B085F055F06031D632F5E08600231
:100E9000031C632F403087060310600D203E8A1527
:100EA000FB268A11DC000310600D213E8A15FB260B
:100EB0008A11DD00D8005C088A11E8248A11083004
:100EC00083120313E0000830DE0A0310DF0DE00A8E
:100ED00060020318A32F412F4C085F055F06031D16
:100EE000992F5E08F83EDA00FF3003180030DB006F
:100EF000803A803C031D7E2F5A086002031C992F04
:100F0000831203130310600D303E8A15FB268A11ED
:100F1000DC000310600D313E8A15FB268A11DD00CE
:100F2000D8005C088A11E8248A1108308312031360
:100F3000E000831208300313DE0A0310DF0DE00A1D
:100F40006002031C6C2F10305E02031CBD2EDE01FC
:100F5000BD2E0630DB003030DA00DA0BAD2FDB0BB4
:100F6000AD2F640083120313A00A0319A10A031909
:100F7000A20ABD2ED401D501D6014E1CCD2F510899
:100F8000D407520803110318520A031DD50753084A
:100F900003110318530A031DD6070310D10DD20DF8
:100FA000D30D0310D00CCF0CCE0C50084F044E04C0
:100FB000031DBD2F5408CE005508CF005608D000A1
:100FC0000800FF1BEB2F83137F1883170008840A88
:100FD0000319FF0A08007F087F398A000408840A81
:100FE0000319FF0A82002030F701831384004E307A
:100FF0008A15912583018A11B82EFF3FFF3FFF3FDD
:101B2000FF3F64008001840A0406031900340406A0
:101B3000922D831610169016901D9C2D95019601DE
:101B4000031785018312950196018316860187018B
:101B50008312031307138316071383120713B62583
:101B60008A15CF258A15D4258A15D82D83161930C4
:101B70000616061783129400FF3083169300163062
:101B800083129400AA30831693008030940083124D
:101B90001416130894168C1183168C150800FF3048
:101BA000F7000B178B1708008512831285160800A3
:101BB000A701A601A60ACD01A801CB01CB0ACC0141
:101BC000C901CA01A501A301A401B701B801B90166
:101BD000BA01BB01BC01BD01BE01BF01C001C10111
:101BE000C201C301C401C501C601C701C801A901E1
:101BF000AA01AB01AC01AD01AE01AF01B001B10171
:101C0000B201B301B401B501B6010800F000FF3024
:101C1000F1006D2E27086B2E26086B2E4D086B2EBB
:101C200028086B2E4B086B2E4C086B2E49086B2E28
:101C30004A086B2E25086B2E23086B2E24086B2E6A
:101C400037086B2E38086B2E39086B2E3A086B2E2E
:101C50003B086B2E3C086B2E3D086B2E3E086B2E0E
:101C60003F086B2E40086B2E41086B2E42086B2EEE
:101C700043086B2E44086B2E45086B2E46086B2ECE
:101C800047086B2E48086B2E29086B2E2A086B2EEE
:101C90002B086B2E2C086B2E2D086B2E2E086B2E0E
:101CA0002F086B2E30086B2E31086B2E32086B2EEE
:101CB00033086B2E34086B2E35086B2E36086B2ECE
:101CC000F030652EF130652EF23084008F30FF0049
:101CD0008A11E1278A15F100F92E7008003A0319DC
:101CE0000A2E013A03190C2E033A03190E2E013A5B
:101CF0000319102E073A0319122E013A0319142E54
:101D0000033A0319162E013A0319182E173A03192C
:101D10001A2E013A03191C2E033A03191E2E323AC9
:101D20000319202E013A0319222E033A0319242EF7
:101D3000013A0319262E073A0319282E013A0319EE
:101D40002A2E033A03192C2E013A03192E2E0F3A8C
:101D50000319302E013A0319322E033A0319342E97
:101D6000013A0319362E073A0319382E013A03199E
:101D70003A2E033A03193C2E013A03193E2E1F3A1C
:101D80000319402E013A0319422E033A0319442E37
:101D9000013A0319462E073A0319482E013A03194E
:101DA0004A2E033A03194C2E013A03194E2E0F3ACC
:101DB0000319502E013A0319522E033A0319542ED7
:101DC000013A0319562E073A0319582E013A0319FE
:101DD0005A2E033A03195C2E013A03195E2E7C3AFF
:101DE0000319642E153A0319602E203A0319622E46
:101DF000F92E71080800CE00FF30CF00622F2708AF
:101E0000602F2608602F4D08602F2808602F4B0890
:101E1000602F4C08602F4908602F4A08602F250862
:101E2000602F2308602F2408602F3708602F3808A0
:101E3000602F3908602F3A08602F3B08602F3C085C
:101E4000602F3D08602F3E08602F3F08602F40083C
:101E5000602F4108602F4208602F4308602F44081C
:101E6000602F4508602F4608602F4708602F4808FC
:101E7000602F2908602F2A08602F2B08602F2C085C
:101E8000602F2D08602F2E08602F2F08602F30083C
:101E9000602F3108602F3208602F3308602F34081C
:101EA000602F3508602F3608602FF0305A2FF13040
:101EB0005A2FF23084008F30FF008A11E1278A15F3
:101EC000CF00EE2F4E08003A0319FF2E013A0319F6
:101ED000012F033A0319032F013A0319052F073A7B
:101EE0000319072F013A0319092F033A03190B2F7E
:101EF000013A03190D2F173A03190F2F013A03194D
:101F0000112F033A0319132F323A0319152F013AEF
:101F10000319172F033A0319192F013A03191B2F1D
:101F2000073A03191D2F013A03191F2F033A03190A
:101F3000212F013A0319232F0F3A0319252F013AB4
:101F40000319272F033A0319292F013A03192B2FBD
:101F5000073A03192D2F013A03192F2F033A0319BA
:101F6000312F013A0319332F1F3A0319352F013A44
:101F70000319372F033A0319392F013A03193B2F5D
:101F8000073A03193D2F013A03193F2F033A03196A
:101F9000412F013A0319432F0F3A0319452F013AF4
:101FA0000319472F033A0319492F013A03194B2FFD
:101FB000073A03194D2F013A03194F2F033A03191A
:101FC000512F013A0319532F7C3A0319592F153A0F
:101FD0000319552F203A0319572FEE2F4F080800E9
:101FE000003403340134FF3FFF3FFF3FFF3FFF3F1B
:00000001FF

