:1000000601020000000000000000000000000000f5
:100600008A11112BFF3FFF3FFE00030EF20004088A
:10061000F3000A08F400831203137F08F5008A111F
:10062000EE2C8A11EF2FD900103059025808031808
:100630001C2BD2005908AE2BCE0059081F2BD1001D
:100640000630D201D3005108D2044E0B282BD3150B
:10065000D401D501E4308512CF002E2B2F2BCF0BE8
:100660002D2B322B64008312073003138516D00024
:100670003A30CF00CF0B3A2BD00B3A2B64008312C9
:10068000031385125308D0005208CF00550A4B2B94
:100690000310D00CCF0CFF3E031D482B4F1C652BC5
:1006A0000730D0003A30CF00CF0B542BD00B542B57
:1006B00064008312E43003138516CF005F2B602B98
:1006C000CF0B5E2B632B6400792BE430CF00682BBB
:1006D000692BCF0B672B6C2B64008312073003133D
:1006E0008516D0003A30CF00CF0B742BD00B742B73
:1006F000640083120C300313D50A5502031C2A2B05
:10070000E4308512CF00842B852BCF0B832B882BD5
:10071000640083123F3003138516D0005530CF009C
:10072000CF0B902BD00B902BE43083120313CF0010
:10073000992B9A2BCF0B982B9D2B6400831208309A
:100740000313D40A5402031C292B3F30D000553028
:10075000CF00CF0BA92BD00BA92B0800D700D501B8
:100760000130C1248A11073083120313D4008A3068
:10077000D300D30BB92BD40BB92B64000230C124A6
:100780008A110230C1248A110230C1248A11013039
:10079000C1248A110330C1248A110230C1248A1174
:1007A0000130C1248A110330C1248A110130C124CF
:1007B0008A110330C1248A110230C1248A11023007
:1007C000C1248A110230C1248A110230C1248A1145
:1007D0000230C1248A110230C1248A110130C1249F
:1007E0008A110330C1248A110230C1248A110230D7
:1007F000C1248A110130C1248A110330C1248A1115
:100800000230C1248A110230C1248A110130C1246E
:100810008A110330C1248A110230C1248A11831243
:100820000313520B1C2C0130C1248A1183120313B1
:10083000D718232C0330262C0230C1248A118312AE
:100840000313D718252C0230262C0130C1248A111D
:10085000831203135708D6000330D6056B2C0230E1
:10086000C1248A11E9248A1103183A2C0230C124C8
:100870008A11792C0130C1248A11792C0130C124CC
:100880008A11E9248A110318492C0330C1248A11E2
:10089000792C0230C1248A11792C0330C1248A11A9
:1008A000E9248A110318582C0230C1248A11792CAA
:1008B0000130C1248A11792C0230C1248A11E92423
:1008C0008A110318672C0330C1248A11792C023055
:1008D000C1248A11792C5608003A03192F2C013AA9
:1008E00003193E2C033A03194D2C013A03195C2CD1
:1008F000792C831203135708D3000310D30C031071
:10090000D30C5308D600A02C0230C1248A11013028
:10091000C1248A11AE2C0130C1248A110230C124B5
:100920008A11AE2C0330C1248A110130C1248A11EE
:10093000AE2C0230C1248A110230C1248A11AE2C9F
:100940005608003A0319842C013A03198B2C033AF8
:100950000319922C013A0319992CAE2C2F308312D3
:100960000313D400BF30D300D30BB42CD40BB42C5E
:10097000B92C831205300313D50A55020318080059
:10098000B02B83120313D000D10150085102031879
:10099000DF2CCF308512CE00CD2CCE0BCC2CD02C22
:1009A000D12C8312CF3003138516CE00D72CCE0B5B
:1009B000D62CDA2CDB2C83120313D10AC52C06307B
:1009C000CF003030CE00CE0BE32CCF0BE32C6400F5
:1009D0000800083083120313570208008C1D2B2DCA
:1009E00083168C1D2B2D83128C118316941E1419C3
:1009F000FF2C141CFF2C83121308FF300C2D941AAB
:100A00001419152D141C152D83121308F6007708E0
:100A1000FF3A031D0E2D7608F7002B2D7608F00007
:100A2000770838258A11F70A2B2D941E141D242DC2
:100A30001418242D8312130877088A15FC258A11AF
:100A40009300F70A14162B2D941A141D2B2D14182D
:100A50002B2D83121308750883120313FF007408EB
:100A60008A0073088400720E8300FE0E7E0E090059
:100A7000F100FD2D7008A700A71C080000287008D1
:100A8000A60008007008CD0008007008A800080043
:100A90007008CB0008007008CC0008007008C9007E
:100AA00008007008CA0008007008A5000800700857
:100AB000A30008007008A40008007008B700080030
:100AC00038087006031D49107008B8000800700847
:100AD000B90008003A087006031DC9107008BA0072
:100AE00008007008BB0008003C087006031D49118F
:100AF0007008BC0008007008BD0008003E087006C1
:100B0000031DC9117008BE0008007008BF0008006E
:100B100040087006031D49127008C00008007008E4
:100B2000C100080042087006031DC9127008C20007
:100B300008007008C300080044087006031D49132C
:100B40007008C40008007008C50008004608700658
:100B5000031DC9137008C60008007008C70008000C
:100B600048087006031D4A107008C8000800700885
:100B7000A90008002A087006031DCA107008AA0000
:100B800008007008AB0008002C087006031D4A110D
:100B90007008AC0008007008AD0008002E08700650
:100BA000031DCA117008AE0008007008AF000800ED
:100BB00030087006031D4A127008B0000800700863
:100BC000B100080032087006031DCA127008B20096
:100BD00008007008B300080034087006031D4A13AB
:100BE0007008B40008007008B500080036087006E8
:100BF000031DCA137008B60008007108003A0319F3
:100C00003A2D013A03193F2D033A0319422D013AB7
:100C10000319452D073A0319482D013A03194B2DA5
:100C2000033A03194E2D013A0319512D173A0319AE
:100C3000542D013A0319572D033A03195A2D323A0C
:100C400003195D2D013A0319602D033A0319672D2D
:100C5000013A03196A2D073A0319712D013A031954
:100C6000742D033A03197B2D013A03197E2D0F3A97
:100C70000319852D013A0319882D033A03198F2D85
:100C8000013A0319922D073A0319992D013A0319D4
:100C90009C2D033A0319A32D013A0319A62D1F3ADF
:100CA0000319AD2D013A0319B02D033A0319B72DDD
:100CB000013A0319BA2D073A0319C12D013A031954
:100CC000C42D033A0319CB2D013A0319CE2D0F3A47
:100CD0000319D52D013A0319D82D033A0319DF2D35
:100CE000013A0319E22D073A0319E92D013A0319D4
:100CF000EC2D033A0319F32D013A0319F62D802E3A
:100D00000800DE0181018A1183278A11071749082B
:100D1000FF3A031D8F2E4A08FF3A0319E82EDF0120
:100D2000DF0AE00149085F05031DB22E4B085F058D
:100D30005F06031DAE2E0310600D203E8A15F626B9
:100D40008A11DC000310600D213E8A15F6268A11F7
:100D5000DD00D8005C088A1113238A118312031363
:100D60005F08C90408300310DF0DE00A6002031CAD
:100D7000922EDF01DF0AE0014A085F05031DDC2E29
:100D80004C085F055F06031DD82E0310600D303E32
:100D90008A15F6268A11DC000310600D313E8A1593
:100DA000F6268A11DD00D8005C088A1113238A1107
:100DB000831203135F08CA0408300310DF0DE00A32
:100DC0006002031CBC2EDE01A001A101A201862E3F
:100DD00027142608CE00FA30CF01D001D100D2016D
:100DE000D3018A15D5258A1122085002031DFE2E33
:100DF00021084F02031DFE2E20084E020318722FF9
:100E00000830A001A101A2015E02DF01DF0AE001BA
:100E10000318352F5E086002031C2E2F4B085F0558
:100E20005F06031D2C2F403087060310600D203E07
:100E30008A15F6268A11DC000310600D213E8A1502
:100E4000F6268A11DD00D8005C088A1113238A1166
:100E5000083083120313E000DE0A03100830DF0DB0
:100E6000E00A600203186C2F0A2F5E08F83EDA00D1
:100E7000FF3003180030DB00803A803C031D422F16
:100E80005A086002031C632F831203134C085F058A
:100E90005F06031D622F0310600D303E8A15F62693
:100EA0008A11DC000310600D313E8A15F6268A1186
:100EB000DD00D8005C088A1113238A1108308312E0
:100EC0000313E000DE0A8312083003130310DF0D62
:100ED000E00A6002031C352F10305E02031C862ED0
:100EE000DE01862E0630DB003030DA00DA0B762F9A
:100EF000DB0B762F640083120313A00A0319A10AE7
:100F00000319A20A862E831610169016901D862F9E
:100F100095019601031785018312950196018316A9
:100F200086018701831203130713831607138312A5
:100F30000713A0278A11B9278A11BE278A11C22F49
:100F4000831619300616061783129400FF30831695
:100F50009300163083129400AA30831693008030D9
:100F6000940083121416130894168C1183168C1592
:100F70000800FF30F7000B178B170800851283124B
:100F800085160800A701A601A60ACD01A801CB017C
:100F9000CC01C901CA01A501A301A401B701B8018F
:100FA000B901BA01BB01BC01BD01BE01BF01C00155
:100FB000C101C201C301C401C501C601C701C80105
:100FC000A901AA01AB01AC01AD01AE01AF01B001B5
:100FD000B101B201B301B401B501B601080020307E
:100FE000F701831384004E308A15CD2583018A11C1
:100FF000812EFF3FFF3FFF3FFF3FFF3FFF3FFF3F90
:10100000FF1B0A2883137F1883170008840A03191B
:10101000FF0A08007F087F398A000408840A031940
:10102000FF0A8200FF3FFF3FFF3FFF3FFF3FFF3FC1
:101B9000FF3FFF3FFF3FFF3FFF3F64008001840A9C
:101BA0000406031900340406CE2DD401D501D60154
:101BB0004E1CE82D5108D407520803110318520A8D
:101BC000031DD507530803110318530A031DD60735
:101BD0000310D10DD20DD30D0310D00CCF0CCE0CB1
:101BE00050084F044E04031DD82D5408CE0055084C
:101BF000CF005608D0000800F000FF30F100652E3D
:101C00002708612E2608612E4D08612E2808612EB6
:101C10004B08612E4C08612E4908612E4A08612E3E
:101C20002508612E2308612E2408612E3708612EB5
:101C30003808612E3908612E3A08612E3B08612E62
:101C40003C08612E3D08612E3E08612E3F08612E42
:101C50004008612E4108612E4208612E4308612E22
:101C60004408612E4508612E4608612E4708612E02
:101C70004808612E2908612E2A08612E2B08612E42
:101C80002C08612E2D08612E2E08612E2F08612E42
:101C90003008612E3108612E3208612E3308612E22
:101CA0003408612E3508612E3608612EF0305B2E27
:101CB000F1305B2EF23084008F30FF008A15002057
:101CC0008A15F100F42EF101F42E7008003A031980
:101CD000002E013A0319022E033A0319042E013A89
:101CE0000319062E073A0319082E013A03190A2E82
:101CF000033A03190C2E013A03190E2E173A031951
:101D0000102E013A0319122E033A0319142E323AF7
:101D10000319162E013A0319182E033A03191A2E25
:101D2000013A03191C2E073A03191E2E013A031912
:101D3000202E033A0319222E013A0319242E0F3ABA
:101D40000319262E013A0319282E033A03192A2EC5
:101D5000013A03192C2E073A03192E2E013A0319C2
:101D6000302E033A0319322E013A0319342E1F3A4A
:101D70000319362E013A0319382E033A03193A2E65
:101D8000013A03193C2E073A03193E2E013A031972
:101D9000402E033A0319422E013A0319442E0F3AFA
:101DA0000319462E013A0319482E033A03194A2E05
:101DB000013A03194C2E073A03194E2E013A031922
:101DC000502E033A0319522E013A0319542E7C3A2D
:101DD00003195A2E153A0319562E343A0319632E55
:101DE000143A0319582EF42E71080800CE00FF3063
:101DF000CF005F2F27085B2F26085B2F4D085B2F36
:101E000028085B2F4B085B2F4C085B2F49085B2F82
:101E10004A085B2F25085B2F23085B2F24085B2FC4
:101E200037085B2F38085B2F39085B2F3A085B2F88
:101E30003B085B2F3C085B2F3D085B2F3E085B2F68
:101E40003F085B2F40085B2F41085B2F42085B2F48
:101E500043085B2F44085B2F45085B2F46085B2F28
:101E600047085B2F48085B2F29085B2F2A085B2F48
:101E70002B085B2F2C085B2F2D085B2F2E085B2F68
:101E80002F085B2F30085B2F31085B2F32085B2F48
:101E900033085B2F34085B2F35085B2F36085B2F28
:101EA000F030552FF130552FF23084008F30FF0085
:101EB0008A1500208A15CF00EE2FCF01EE2F4E0895
:101EC000003A0319FA2E013A0319FC2E033A0319BA
:101ED000FE2E013A0319002F073A0319022F013A87
:101EE0000319042F033A0319062F013A0319082F87
:101EF000173A03190A2F013A03190C2F033A031951
:101F00000E2F323A0319102F013A0319122F033AF8
:101F10000319142F013A0319162F073A0319182F22
:101F2000013A03191A2F033A03191C2F013A031916
:101F30001E2F0F3A0319202F013A0319222F033ABB
:101F40000319242F013A0319262F073A0319282FC2
:101F5000013A03192A2F033A03192C2F013A0319C6
:101F60002E2F1F3A0319302F013A0319322F033A4B
:101F70000319342F013A0319362F073A0319382F62
:101F8000013A03193A2F033A03193C2F013A031976
:101F90003E2F0F3A0319402F013A0319422F033AFB
:101FA0000319442F013A0319462F073A0319482F02
:101FB000013A03194A2F033A03194C2F013A031926
:101FC0004E2F7C3A0319542F153A0319502F343AE7
:101FD00003195D2F143A0319522FEE2F4F080800F2
:101FE000013402340134FF3FFF3FFF3FFF3FFF3F1B
:00000001FF

