:02000006010Aed
:020000040000FA
:065400003AEFCCF01200AF
:02540600120092
:065408000FEF2AF0120074
:02540E00C2508A
:08541000020B01E0010E120085
:0854180064EF2AF01200DACF64
:10542000E4FFE2CFDAFFE9CFE4FFEACFE4FFF6CF13
:10543000E4FFF7CFE4FFF8CFE4FFF5CFE4FFF3CFCD
:10544000E4FFF4CFE4FFFACFE4FFFBCFE4FF00EE8C
:105450001EF0140EE80403E3EECFE4FFFBD700EEEA
:1054600000F01E0EE80403E3EECFE4FFFBD7E652A4
:105470008AB002D0D4ECC8F0E55200EE1DF01E0E4A
:10548000E80403E3E5CFEDFFFBD700EE31F0140EA7
:10549000E80403E3E5CFEDFFFBD7E5CFFBFFE5CF66
:1054A000FAFFE5CFF4FFE5CFF3FFE5CFF5FFE5CF5A
:1054B000F8FFE5CFF7FFE5CFF6FFE5CFEAFFE5CF51
:1054C000E9FFE5CFDAFF1100D8CFE4FFE0CFE4FF3A
:1054D000E46EDACFE4FFE2CFDAFFE652E552E5CF41
:0E54E000DAFFE550E5CFE0FFE5CFD8FF100082
:0254EE000900B3
:1054F00037990100A20E000002000000359901005A
:10550000A00E000002000000339901009E0E000072
:105510000200000032990100A60E00000100000008
:1055200023990100E40300000F000000F698010039
:10553000C50200002D000000235E0100A50E000042
:1055400001000000F4980100FE02000002000000CB
:0C55500023870100A40E000001000000F1
:04555C00D9CFE6FFBE
:10556000E1CFD9FF020EE126FD0EDBCFDEFFDBCF60
:10557000DDFFF90EDBCF00F0DB06FA0EDBCF01F02A
:1055800001E2DB06005001100CE0DFCFE9FFDF2A6B
:10559000010EDBCFEAFF01E3DB2AFB0EDBCFEFFFDF
:1055A000E8D7020EE15C02E2E16AE552E16EE55203
:1055B000E7CFD9FF1200D9CFE6FFE1CFD9FF060E22
:1055C000E126FD0EDBCFDEFFDBCFDDFFFB0EDBCF09
:1055D00026F0FC0EDBCF27F0020E26C0DBFF030E09
:1055E00027C0DBFF040EDB6A050EDB6AF90EDBCF9A
:1055F00000F0DB06FA0EDBCF01F001E2DB06005023
:10560000011023E0DFCFE9FFDF2A010EDBCFEAFF45
:1056100001E3DB2AEFCF04F0020EDBCFE9FFDB2A48
:10562000030EDBCFEAFF01E3DB2AEF50045C026EDE
:10563000036A02BE0368040E02C0DBFF050E03C04E
:10564000DBFF0250031001E1D1D7040EDBCF00F0E5
:10565000050EDBCF01F000C0F3FF01C0F4FF060E22
:10566000E15C03E200D0E16AE552E16EE552E7CF8A
:10567000D9FF1200D9CFE6FFE1CFD9FF0C0EE1260A
:105680000A0EFEC0DBFF0B0EFFC0DBFFFD0EDBCF03
:1056900000F0FE0EDBCF01F0020E005C000E0158A0
:1056A00019E3FD0EDBCF02F0FE0EDBCF03F00A0E96
:1056B000DBCFE9FF0B0EDBCFEAFF060EE926000E7B
:1056C000EA22EECF04F0EFCF05F00450025C055063
:1056D000035804E3010EF36EF46A6ED00A0EDBCFBA
:1056E000E9FF0B0EDBCFEAFFEF50020A01E060D0CA
:1056F000020EE66EE66AFD0EDBCF00F0FE0EDBCF9B
:1057000001F00001016A010ED89000360136E8066A
:10571000FBE100C0E6FF01C0E6FFFD0EDBCF02F0BB
:10572000FE0EDBCF03F0080E0F0B05E0D89003321E
:105730000232E806FBE1046A056A0A0EDBCFE9FFE4
:105740000B0EDBCFEAFF080EE926000EEA22EE5030
:105750000226EE500322EE500422EE50052202C033
:10576000E6FF03C0E6FF04C0E6FF05C0E6FFD95030
:10577000060FE66E000EDA20E66E52EC9AF0066E28
:105780000A0EE15E0650000901E012D0070EDBCFE1
:1057900002F002C003F0026A060EDB5000010210A4
:1057A000006E03C001F000C0F3FF01C0F4FF04D09D
:1057B000010EF36EF46A00D00C0EE15C02E2E16AC5
:1057C000E552E16EE552E7CFD9FF1200D9CFE6FFEF
:1057D000E1CFD9FF020EE126FEC0DEFFFFC0DDFFF4
:1057E000D950FD0FE96EFF0EDA20EA6E020EEE5E72
:1057F000000EED5AFD0EDBCF00F0FE0EDBCF01F008
:10580000DECFE9FFDDCFEAFF060EE926000EEA2231
:10581000EECF02F0EFCF03F0020E025E000E035A4D
:105820000250005C0350015805E3246A256A266A89
:10583000276A4DD0DECFE9FFDDCFEAFF100EE92663
:10584000000EEA22EECF0CF0EECF0DF0EECF0EF010
:10585000EFCF0FF0DECFE9FFDDCFEAFF020EE92642
:10586000000EEA22EFCF08F0096A0A6A0B6AFD0E01
:10587000DBCF04F0FE0EDBCF05F0066A076A04C03A
:1058800024F005C025F006C026F007C027F008C0A8
:1058900029F009C02AF00AC02BF00BC02CF0B8EC9C
:1058A000CAF0205000010C24006E21500D20016E22
:1058B00022500E20026E23500F20036E00C024F0F1
:1058C00001C025F002C026F003C027F000D0020E70
:1058D000E15C02E2E16AE552E16EE552E7CFD9FF11
:1058E0001200D9CFE6FFE1CFD9FF040EE126020E68
:1058F000FEC0DBFF030EFFC0DBFFFD0EDBCFE9FFC9
:10590000FE0EDBCFEAFFEE6AED6AFD0EDBCFE9FFAC
:10591000FE0EDBCFEAFF040EE926000EEA22EECFF0
:10592000DEFFEDCFDDFFD9CFE9FFDACFEAFF010ED1
:10593000EE1801E1ED5017E0DECF00F0DDCF01F011
:10594000020EDBCFE9FF030EDBCFEAFF060EE926EE
:10595000000EEA22EECF02F0EFCF03F00250005C1F
:105960000350015802E3010E59D00ED0020EDBCFD6
:10597000E9FF030EDBCFEAFF0C0EE926000EEA2258
:10598000EECFDEFFEDCFDDFFFD0EDBCFE9FFFE0E3C
:10599000DBCFEAFF060EE926000EEA22DECFEEFF9D
:1059A000DDCFEDFFD9CFE9FFDACFEAFFEE50ED1002
:1059B00010E0DECFE6FFDDCFE6FF08DFE552E5527F
:1059C00024C000F025C001F026C002F027C003F07B
:1059D00012D0020EDBCFE9FF030EDBCFEAFF0C0E85
:1059E000E926000EEA22EECF00F0EECF01F0EECF76
:1059F00002F0EFCF03F0FD0EDBCFE9FFFE0EDBCFB1
:105A0000EAFF080EE926000EEA2200C0EEFF01C000
:105A1000EEFF02C0EEFF03C0EEFF00D0006E040EEA
:105A2000E15C02E2E16AE552E16E0050E552E7CF47
:105A3000D9FF1200D9CFE6FFE1CFD9FF060EE1264C
:105A4000040EFEC0DBFF050EFFC0DBFFFD0EDBCF4B
:105A5000E9FFFE0EDBCFEAFFEECF00F0EFCF01F063
:105A6000010E0026000E0122020E00C0DBFF030E15
:105A700001C0DBFFD950020FE96EDACFEAFFEE502A
:105A8000ED1017E0FD0EDBCFE9FFFE0EDBCFEAFFE6
:105A9000080EE926000EEA22EECF00F0EECF01F06C
:105AA000EECF02F0EFCF03F0005001100210031010
:105AB00002E1030EDCD0020EDBCF00F0030EDBCFE1
:105AC00001F00001016A0F0E00160050011001E004
:105AD000C0D0FD0EDBCFE9FFFE0EDBCFEAFF080EE4
:105AE000E926000EEA22EE2AEE22EE22EE22FD0E3A
:105AF000DBCFE9FFFE0EDBCFEAFF060EE926000E44
:105B0000EA22EE50ED101CE1020EDBCF00F0030E96
:105B1000DBCF01F0040EDBCFE9FF050EDBCFEAFFA0
:105B2000040EE926000EEA22EECF02F0EFCF03F0DA
:105B30000250005C0350015802E3030E98D089D054
:105B4000020EDBCF02F0030EDBCF03F0040E0F0BCF
:105B500005E0D89003320232E806FBE1040EDBCF09
:105B6000E9FF050EDBCFEAFF020EE926000EEA226E
:105B7000EF0400010214006E016A0050011069E197
:105B8000FD0EDBCFE9FFFE0EDBCFEAFF060EE926B6
:105B9000000EEA22EECFE6FFEFCFE6FF6BDDE55227
:105BA000E552F3CFDEFFF4CFDDFFD9CFE9FFDACF47
:105BB000EAFF010ED880EE54000EED5402E3010E10
:105BC00056D0DECF00F0DDCF01F0040EDBCFE9FFD1
:105BD000050EDBCFEAFF060EE926000EEA22EECF25
:105BE00002F0EFCF03F00250005C0350015802E3D3
:105BF000030E3DD0FD0EDBCFE9FFFE0EDBCFEAFF4B
:105C0000060EE926000EEA22DECFEEFFDDCFEDFF25
:105C1000DECFE6FFDDCFE6FFD9DDE552E55224C059
:105C200000F025C001F026C002F027C003F0FD0EF1
:105C3000DBCFE9FFFE0EDBCFEAFF080EE926000E00
:105C4000EA2200C0EEFF01C0EEFF02C0EEFF03C07B
:105C5000EEFFFD0EDBCFE9FFFE0EDBCFEAFF020E0B
:105C6000DBCFEEFF030EDBCFEDFF000E00D0006EAA
:105C7000060EE15C02E2E16AE552E16E0050E55297
:105C8000E7CFD9FF1200D9CFE6FFE1CFD9FF020E4F
:105C9000E126FD0EDBCFE6FFFE0EDBCFE6FF21DEC9
:105CA000E552E552DF6EDF5002E0DF5092D0200E69
:105CB000E66EE66AFD0EDBCFE9FFFE0EDBCFEAFF04
:105CC000EECF00F0EFCF01F00001016A0F0E0016D9
:105CD000050ED89000360136E806FBE100C0E6FF6D
:105CE00001C0E6FFFD0EDBCFE9FFFE0EDBCFEAFFD2
:105CF000080EE926000EEA22EECFE6FFEECFE6FF21
:105D0000EECFE6FFEFCFE6FFFB0EDBCFE6FFFC0EAC
:105D1000DBCFE6FF52EC9AF0026E0A0EE15E025013
:105D2000000902E0010E01D0000EDF6EDF5001E03D
:105D30004ED0FB0EDBCFE9FFFC0EDBCFEAFF010EFE
:105D4000EFCFDBFFDB5003E1030EDF6E40D00B0E25
:105D5000E76EFB0EDBCFE9FFFC0EDBCFEAFFE7507F
:105D6000E926000EEA22EF50080B24E10B0EE66E46
:105D7000E66AFD0EDBCFE9FFFE0EDBCFEAFF020E87
:105D8000E926000EEA22EECFE6FFEFCFE6FFFB0E9C
:105D9000DBCFE6FFFC0EDBCFE6FF0DDC026E060E6E
:105DA000E15E0250F3CF00F0F4CF01F0005001109B
:105DB00001E10DD0FD0EDBCFE6FFFE0EDBCFE6FFEF
:105DC00039DEE552E552DF6EDF5001E170D7DF507A
:105DD00000D0006E020EE15C02E2E16AE552E16E83
:105DE0000050E552E7CFD9FF1200D9CFE6FFE1CF4F
:105DF000D9FF090EE126FD0EDBCFE9FFFE0EDBCF5A
:105E0000EAFF020EE926000EEA22050EEECFDBFFC6
:105E1000060EEDCFDBFF0B0EE66EE66A200EE66E99
:105E2000E66A050EDBCFE6FF060EDBCFE6FFAEEC43
:105E30002AF0006E060EE15E0050040EDB6A030ECF
:105E4000DB6A080EF36E020EF3CFDBFFFB0EDBCF37
:105E5000E9FFFC0EDBCFEAFF070EEECFDBFF080EFB
:105E6000EDCFDBFF030EDBCFF3FFDB2AF350E76E52
:105E7000070EDBCFE9FF080EDBCFEAFFE750E9268C
:105E8000000EEA22EFCFDFFFDF50200803E22F0EE3
:105E9000DF5C01E174D02E0EDF5C09E0020EDB5006
:105EA000F36E040EDBCFF4FFF350F45C13E3020E49
:105EB000DB50080803E12E0EDF5C01E060D0080E25
:105EC000F36E040EF3CFDBFF0B0EF36E020EF3CF77
:105ED000DBFF54D0610EDF5C3FE3DF507A083CE328
:105EE00039D0030EDBCFF3FFDB2AF350E76E070E4A
:105EF000DBCFE9FF080EDBCFEAFFE750E926000E13
:105F0000EA22010EEFCFDBFF040EDBCFF3FFDB2A2B
:105F1000F350E76E050EDBCFE9FF060EDBCFEAFF9D
:105F2000E750E926000EEA22DFCFEFFF040EDBCFB9
:105F3000F3FFDB2AF350E76E050EDBCFE9FF060E19
:105F4000DBCFEAFFE750E926000EEA22010EDBCFA5
:105F5000EFFF14D0200EDF5E040EDBCFF3FFDB2A51
:105F6000F350E76E050EDBCFE9FF060EDBCFEAFF4D
:105F7000E750E926000EEA22DFCFEFFF73D7030ECA
:105F8000DB50E76E070EDBCF00F0080EDBCF01F031
:105F9000E7500026000E0122FB0EDBCFE9FFFC0ECE
:105FA000DBCFEAFF00C0EEFF01C0EDFFDF502008AD
:105FB00002E3010E01D0000EE66E0B0EE76E050E39
:105FC000DBCFE9FF060EDBCFEAFFE750E926000E44
:105FD000EA22E552E750EF6E000E00D0006E090E87
:105FE000E15C02E2E16AE552E16E0050E552E7CF82
:105FF000D9FF1200D9CFE6FFE1CFD9FFE652F90E63
:10600000DBCFE9FFFA0EDBCFEAFFEF50200806E115
:10601000F90EDB2AFA0E01E3DB2AF1D7F90EDBCF0A
:10602000E9FFFA0EDBCFEAFFEF502F0805E1F90E8A
:10603000DB2AFA0E01E3DB2AFD0EDBCFE9FFFE0EC1
:10604000DBCFEAFF040EEB6A050EEB6AF90EDBCF3D
:10605000E9FFFA0EDBCFEAFFEF50200812E3FD0E56
:10606000DBCFE6FFFE0EDBCFE6FF3BDCE552E55281
:10607000DF6EFB0EDBCFE9FFFC0EDBCFEAFFEF6A42
:10608000A0D0D950F90FE66EFF0EDA20E66EFD0EB5
:10609000DBCFE6FFFE0EDBCFE6FFA7DEE552E552E3
:1060A000E552E552DF6EDF5001E08BD0FB0EDBCF17
:1060B000E6FFFC0EDBCFE6FFFD0EDBCFE6FFFE0EBC
:1060C000DBCFE6FFE0DDE552E552E552E552DF6E5B
:1060D000DF501AE0030EDF5C16E1FD0EDBCFE9FFB7
:1060E000FE0EDBCFEAFF020EE926000EEA22EE509A
:1060F000EFCFEAFFE96E0B0EE926000EEA22EF5021
:1061000002E1040EDF6E5DD0FD0EDBCFE9FFFE0E77
:10611000DBCFEAFF020EE926000EEA22EE50EFCFB7
:10612000EAFFE96E0B0EE926000EEA22EF5001E0CD
:1061300048D00B0EE76EFB0EDBCFE9FFFC0EDBCF8A
:10614000EAFFE750E926000EEA22EF50100B03E1C8
:10615000040EDF6E36D01A0EE76EFB0EDBCFE9FFC2
:10616000FC0EDBCFEAFFE750E926000EEA22010E23
:10617000E926000EEA22EFCF02F002C003F0026A25
:106180001A0EE76EFB0EDBCFE9FFFC0EDBCFEAFF5A
:10619000E750E926000EEA22EF5000010210006EDF
:1061A00003C001F0FD0EDBCFE9FFFE0EDBCFEAFFFF
:1061B000040EE926000EEA2200C0EEFF01C0EDFF4A
:1061C00060D7DF5000D0E552E552E7CFD9FF12008B
:1061D000D9CFE6FFE1CFD9FF020EE66EE66AFE0EEA
:1061E000E66E010EE66ED950F90FE96EFF0EDA2069
:1061F000EA6EEECFE6FFEECFE6FFEECFE6FFEFCFA3
:10620000E6FFFD0EDBCFE6FFFE0EDBCFE6FF52EC36
:106210009AF0006E0A0EE15E0050000902E0030EE3
:1062200070D0010EE76EFD0EDBCFE9FFFE0EDBCF77
:10623000EAFFE750E926000EEA22EFCF02F002C0A3
:1062400003F0026AFD0EDBCFE9FFFE0EDBCFEAFFB3
:10625000EF5000010210006E03C001F0550E00184F
:1062600002E1AA0E011802E0020E4BD0020EE66E09
:10627000E66A360EE66EE66AD950F90FE96EFF0E51
:10628000DA20EA6EEECFE6FFEECFE6FFEECFE6FFD6
:10629000EFCFE6FFFD0EDBCFE6FFFE0EDBCFE6FF26
:1062A00052EC9AF0006E0A0EE15E0050000925E102
:1062B000010EE76EFD0EDBCFE9FFFE0EDBCFEAFF3E
:1062C000E750E926000EEA22EFCF03F003C004F006
:1062D000036AFD0EDBCFE9FFFE0EDBCFEAFFEF50D6
:1062E00000010310016E04C002F0460E011802E125
:1062F000410E021802E1000E04D0010E02D0000E81
:1063000000D0E552E7CFD9FF1200FEC0E9FFFFC081
:10631000EAFF030EEB5000D01200D9CFE6FFE1CF29
:10632000D9FF370EE1260001FE6BFF6BFEC0E9FFCF
:10633000FFC0EAFF030EE926000EEA22EF6AD950F9
:10634000FD0FE96EFF0EDA20EA6EEE50ED1003E16C
:10635000000E9AEF36F0250EDB6A030EF36E250E63
:10636000DBCFF4FFF350F45C10E20CEC99F0E76E35
:10637000360EE7CFDBFFDB5005E1040EF36E250E92
:10638000F3CFDBFF250EDB2AE8D7250EDB50030811
:1063900003E1020E9AEF36F0260EDB6A270EDB6A67
:1063A000280EDB6A290EDB6AD950260FE96EDACF98
:1063B000EAFFEECFE6FFEECFE6FFEECFE6FFEFCF50
:1063C000E6FFD950010FE66E000EDA20E66E00DF20
:1063D000006E060EE15E0050DF6EDF0401E093D038
:1063E000100EE66EE66ABE0EE66E010EE66ED9503F
:1063F000260FE96EDACFEAFFEECFE6FFEECFE6FF3B
:10640000EECFE6FFEFCFE6FFD950010FE66E000EAC
:10641000DA20E66E52EC9AF0006E0A0EE15E005051
:10642000000903E0030EDF6E6ED0050EDB506BE05B
:106430000C0EDBCF00F0016A026A036A180E1F0B14
:1064400007E0D8900036013602360336E806F9E157
:106450000B0EDBCF04F0056A066A076A100E1F0BED
:1064600007E0D8900436053606360736E806F9E127
:106470000450001205500112065002120750031278
:106480000A0EDBCF08F008C009F0086A0A6A0B6A36
:1064900008500012095001120A5002120B50031248
:1064A000090EDBCF0CF00D6A0E6A0F6A0C50001259
:1064B0000D5001120E5002120F500312260E00C092
:1064C000DBFF270E01C0DBFF280E02C0DBFF290E19
:1064D00003C0DBFFD950260FE96EDACFEAFFEECF1B
:1064E000E6FFEECFE6FFEECFE6FFEFCFE6FFD950B7
:1064F000010FE66E000EDA20E66E6ADE006E060E12
:10650000E15E0050DF6E030EDF5C03E1010E9AEFE7
:1065100036F0DF5003E0070E9AEF36F0240EE66EF9
:10652000E66A0D0EE66EE66AD950260FE96EDACFFE
:10653000EAFFEECFE6FFEECFE6FFEECFE6FFEFCFCE
:10654000E6FFD950010FE66E000EDA20E66E52EC3F
:106550009AF0006E0A0EE15E0050000902E0010EA2
:10656000E9D3D950170FE96EDACFEAFF0D0EE95ED5
:10657000000EEA5A010EE926000EEA22EFCF02F0E1
:1065800002C003F0026AD950170FE96EDACFEAFFB2
:106590000D0EE95E000EEA5AEF5000010210006E87
:1065A00003C001F02A0E00C0DBFF2B0E01C0DBFF91
:1065B0002C0EDB6A2D0EDB6A2A0EDBCF00F02B0ED1
:1065C000DBCF01F02C0EDBCF02F02D0EDBCF03F082
:1065D000005001100210031001E07ED0D950250FA9
:1065E000E96EDACFEAFF0D0EE95E000EEA5A030EFD
:1065F000E926000EEA22EFCF00F0016A026A036A80
:10660000180E1F0B07E0D89000360136023603360D
:10661000E806F9E1D950250FE96EDACFEAFF0D0E51
:10662000E95E000EEA5A020EE926000EEA22EFCFDA
:1066300004F0056A066A076A100E1F0B07E0D8907F
:106640000436053606360736E806F9E1045000122E
:10665000055001120650021207500312D950250F9F
:10666000E96EDACFEAFF0D0EE95E000EEA5A010E7E
:10667000E926000EEA22EFCF08F008C009F0086A08
:106680000A6A0B6A08500012095001120A500212DD
:106690000B500312D950250FE96EDACFEAFF0D0E29
:1066A000E95E000EEA5AEFCF0CF00D6A0E6A0F6A2F
:1066B0000C5000120D5001120E5002120F50031216
:1066C0002A0E00C0DBFF2B0E01C0DBFF2C0E02C028
:1066D000DBFF2D0E03C0DBFF040EDBCF00F0016AF1
:1066E000026A036AD9502A0FE96EDACFEAFF00C0C6
:1066F00029F001C02AF002C02BF003C02CF0EECF2D
:1067000024F0EECF25F0EECF26F0EFCF27F0B8EC57
:10671000CAF023C0EDFF22C0EDFF21C0EDFF20C075
:10672000EFFFD9500F0FE96EDACFEAFF0D0EE95EE9
:10673000000EEA5A010EE926000EEA22EFCF04F01D
:1067400004C005F0046AD9500F0FE96EDACFEAFFF2
:106750000D0EE95E000EEA5AEF5000010410006EC3
:1067600005C001F0026A036AD950260FE96EDACF3C
:10677000EAFFEE500026EE500122EE500222EE50CB
:106780000322FD0EDBCFE9FFFE0EDBCFEAFF080E92
:10679000E926000EEA2200C0EEFF01C0EEFF02C0B3
:1067A000EEFF03C0EEFFFD0EDBCFE9FFFE0EDBCFF9
:1067B000EAFF020EE926000EEA22010EDBCFEFFF10
:1067C000D950120FE96EDACFEAFF0D0EE95E000E26
:1067D000EA5A010EE926000EEA22EFCF02F002C0CB
:1067E00003F0026AD950120FE96EDACFEAFF0D0EFC
:1067F000E95E000EEA5AEF500210006E03C001F08D
:10680000FD0EDBCFE9FFFE0EDBCFEAFF040EE9262B
:10681000000EEA2200C0EEFF01C0EDFFD950140FB8
:10682000E96EDACFEAFF0D0EE95E000EEA5A010EBC
:10683000E926000EEA22EFCF02F002C003F0026A5E
:10684000D950140FE96EDACFEAFF0D0EE95E000EA3
:10685000EA5AEF500210006E03C001F02E0E00C085
:10686000DBFF2F0E01C0DBFF300EDB6A310EDB6A6F
:106870002E0EDBCF00F02F0EDBCF01F0300EDBCF82
:1068800002F0310EDBCF03F00050011002100310B4
:1068900001E07ED0D950210FE96EDACFEAFF0D0E6C
:1068A000E95E000EEA5A030EE926000EEA22EFCF57
:1068B00000F0016A026A036A180E1F0B07E0D89005
:1068C0000036013602360336E806F9E1D950210FC9
:1068D000E96EDACFEAFF0D0EE95E000EEA5A020E0B
:1068E000E926000EEA22EFCF04F0056A066A076A7D
:1068F000100E1F0B07E0D890043605360636073613
:10690000E806F9E104500012055001120650021287
:1069100007500312D950210FE96EDACFEAFF0D0EAE
:10692000E95E000EEA5A010EE926000EEA22EFCFD8
:1069300008F008C009F0086A0A6A0B6A08500012D9
:10694000095001120A5002120B500312D950210FA4
:10695000E96EDACFEAFF0D0EE95E000EEA5AEFCFDC
:106960000CF00D6A0E6A0F6A0C5000120D500112E5
:106970000E5002120F5003122E0E00C0DBFF2F0E1E
:1069800001C0DBFF300E02C0DBFF310E03C0DBFFB6
:10699000FD0EDBCFE9FFFE0EDBCFEAFF020EE9269C
:1069A000000EEA22EFCF1AF01B6A1C6A1D6AD9504A
:1069B0000F0FE96EDACFEAFF0D0EE95E000EEA5A1C
:1069C000010EE926000EEA22EFCF14F014C015F0F4
:1069D000146AD9500F0FE96EDACFEAFF0D0EE95EA7
:1069E000000EEA5AEF5000011410106E15C011F09D
:1069F000126A136AD9502E0FE96EDACFEAFF1050EF
:106A0000EE5C0C6E1150EE580D6E1250EE580E6E7C
:106A10001350EE580F6ED9502A0FE96EDACFEAFF05
:106A2000EE500C5C086EEE500D58096EEE500E588C
:106A30000A6EEE500F580B6EFD0EDBCFE9FFFE0E17
:106A4000DBCFEAFF040EE926000EEA22EECF16F0B5
:106A5000EFCF17F0040E0F0B05E0D8901732163267
:106A6000E806FBE1186A196A1650085C046E1750B4
:106A70000958056E18500A58066E19500B58076EC3
:106A800004C024F005C025F006C026F007C027F09A
:106A90001AC029F01BC02AF01CC02BF01DC02CF01E
:106AA00063ECCBF024C000F025C001F026C002F05A
:106AB00027C003F0020E0026000E0122022203224C
:106AC000320E00C0DBFF330E01C0DBFF340E02C00C
:106AD000DBFF350E03C0DBFFFD0EDBCFE9FFFE0E53
:106AE000DBCFEAFF060EE926000EEA22320EDBCFEC
:106AF000EEFF330EDBCFEDFF020EDF6ED950320F0B
:106B0000E96EDACFEAFFF70EEE5C0F0EEE58000EDC
:106B1000EE58000EEE5802E2070E0CD1D950320F9B
:106B2000E96EDACFEAFFF70EEE5CFF0EEE58000ECC
:106B3000EE58000EEE5802E3070EFCD0FD0EDBCF40
:106B4000E9FFFE0EDBCFEAFFDFCFEFFF59D0230EC8
:106B5000DBCF00F0016A026A036A180E1F0B07E020
:106B6000D8900036013602360336E806F9E1220EE7
:106B7000DBCF04F0056A066A076A100E1F0B07E0F8
:106B8000D8900436053606360736E806F9E1045093
:106B90000012055001120650021207500312210E76
:106BA000DBCF08F008C009F0086A0A6A0B6A0850CF
:106BB0000012095001120A5002120B500312200E4B
:106BC000DBCF0CF00D6A0E6A0F6A0C5000120D50EC
:106BD00001120E5002120F500312FD0EDBCFE9FF1F
:106BE000FE0EDBCFEAFF0C0EE926000EEA2200C003
:106BF000EEFF01C0EEFF02C0EEFF03C0EEFF30D09B
:106C00002A0EDBCF00F02B0EDBCF01F02C0EDBCFFA
:106C100002F02D0EDBCF03F0FD0EDBCFE9FFFE0E01
:106C2000DBCFEAFF080EE926000EEA22EE5000262E
:106C3000EE500122EE500222EE500322FD0EDBCF79
:106C4000E9FFFE0EDBCFEAFF0C0EE926000EEA227A
:106C500000C0EEFF01C0EEFF02C0EEFF03C0EEFF7A
:106C60002A0EDBCF00F02B0EDBCF01F02C0EDBCF9A
:106C700002F02D0EDBCF03F0FD0EDBCFE9FFFE0EA1
:106C8000DBCFEAFF080EE926000EEA22EE500026CE
:106C9000EE500122EE500222EE500322FD0EDBCF19
:106CA000E9FFFE0EDBCFEAFF040EE926000EEA2222
:106CB000EECF04F0EFCF05F0040E0F0B05E0D890F7
:106CC00005320432E806FBE1066A076A0450002632
:106CD000055001220650022207500322FD0EDBCF91
:106CE000E9FFFE0EDBCFEAFF100EE926000EEA22D6
:106CF00000C0EEFF01C0EEFF02C0EEFF03C0EEFFDA
:106D0000FD0EDBCFE9FFFE0EDBCFEAFFEE52EF6AAE
:106D1000FD0EDBCFFEF0FE0EDBCFFFF0FEC0E9FF85
:106D2000FFC0EAFF030EE926000EEA22010EEF6E15
:106D3000000E00D0006E370EE15C02E2E16AE5521F
:106D4000E16E0050E552E7CFD9FF1200D9CFE6FF40
:106D5000E1CFD9FF3B0EE126390EFEC0DBFF3A0E34
:106D6000FFC0DBFFD950390FE96EDACFEAFFEE50F2
:106D7000ED1002E1060EC5D0390EDBCFE9FF3A0E69
:106D8000DBCFEAFFEE52EF6AD9500D0F006EDACF7B
:106D900001F0030E00C0DBFF040E01C0DBFFFD0E9F
:106DA000DBCFE6FFFE0EDBCFE6FFD950190FE66E14
:106DB000000EDA20E66ED950010FE66E000EDA20E2
:106DC000E66EFAEC2FF0006E060EE15E0050DF6E0C
:106DD000DF5002E0DF5095D0190EDB5004E0240EA6
:106DE000DB50100B02E0030E8CD0340EDBCF02F030
:106DF00002C003F0026A330EDB5000010210006E85
:106E000003C001F0390EDBCFE9FF3A0EDBCFEAFF1A
:106E10001C0EE926000EEA2200C0EEFF01C0EDFFC5
:106E2000380EDBCF00F0016A026A036A180E1F0BEE
:106E300007E0D8900036013602360336E806F9E15D
:106E4000370EDBCF04F0056A066A076A100E1F0BC7
:106E500007E0D8900436053606360736E806F9E12D
:106E6000045000120550011206500212075003127E
:106E7000360EDBCF08F008C009F0086A0A6A0B6A10
:106E800008500012095001120A5002120B5003124E
:106E9000350EDBCF0CF00D6A0E6A0F6A0C50001233
:106EA0000D5001120E5002120F500312390EDBCF9B
:106EB000E9FF3A0EDBCFEAFF180EE926000EEA22C0
:106EC00000C0EEFF01C0EEFF02C0EEFF03C0EEFF08
:106ED000390EDBCFE9FF3A0EDBCFEAFF140EE926CD
:106EE000000EEA22EE6AEE6AEE6AEE6A390EDBCF37
:106EF000E9FF3A0EDBCFEAFFEE52010EEF6E000E15
:106F000000D0006E3B0EE15C02E2E16AE552E16E08
:106F10000050E552E7CFD9FF1200D9CFE6FFE1CF0D
:106F2000D9FF120EE126FD0EDBCF26F0FE0EDBCFE1
:106F300027F00E0E26C0DBFF0F0E27C0DBFF100E62
:106F4000FEC0DBFF110EFFC0DBFFF90EDBCFE9FF58
:106F5000FA0EDBCFEAFFEE6AED6AD950100FE96E48
:106F6000DACFEAFFEE50ED1002E1060E66D2100E07
:106F7000DBCFE9FF110EDBCFEAFFEE52EF50010B42
:106F800002E1050E5AD2100EDBCFE9FF110EDBCF66
:106F9000EAFF180EE926000EEA22EECF04F0EECF4B
:106FA00005F0EECF06F0EFCF07F0100EDBCFE9FFD4
:106FB000110EDBCFEAFF140EE926000EEA22EE5096
:106FC000045C006EEE500558016EEE500658026EDD
:106FD000EE500758036E070E00C0DBFF080E01C01D
:106FE000DBFF090E02C0DBFF0A0E03C0DBFFFB0E56
:106FF000DBCF00F0FC0EDBCF01F0026A036AD95050
:10700000070FE96EDACFEAFF0050EE5C0150EE5850
:107010000250EE580350EE580CE2070EDBCF26F07C
:10702000080EDBCF27F0FB0E26C0DBFFFC0E27C0CF
:10703000DBFFD950FB0FE96EFF0EDA20EA6EEE504F
:10704000ED1001E1EED1100EDBCFE9FF110EDBCF29
:10705000EAFF140EE926000EEA22EECF00F0EECF92
:1070600001F0EECF02F0EFCF03F0010E0116026A3D
:10707000036A005001100210031001E0E9D0100E65
:10708000DBCFE9FF110EDBCFEAFF140EE926000E7D
:10709000EA22EECF00F0EECF01F0EECF02F0EFCF1C
:1070A00003F0090ED8900332023201320032E806B2
:1070B000F9E1100EDBCFE9FF110EDBCFEAFF020E84
:1070C000E926000EEA22EF04046E056A066A076AE2
:1070D00004500016055001160650021607500316FC
:1070E0000D0E00C0DBFFDB505EE1100EDBCFE9FFD1
:1070F000110EDBCFEAFF140EE926000EEA22EECFD6
:1071000002F0EECF03F0EECF04F0EFCF05F0025027
:107110000310041005100FE1100EDBCFE9FF110E74
:10712000DBCFEAFF1C0EE926000EEA22EECF00F0CC
:10713000EFCF01F016D0100EDBCFE9FF110EDBCF41
:10714000EAFF1E0EE926000EEA22EECFE6FFEFCFA1
:10715000E6FF3AEC2BF0E552E552F3CF00F0F4CF26
:1071600001F0010E00C0DBFF020E01C0DBFFD950B1
:10717000010FE96EDACFEAFF010ED880EE54000E5F
:10718000ED5401E350D1100EDBCFE9FF110EDBCF40
:10719000EAFF1E0EE926000EEA22010EDBCFEEFF0B
:1071A000020EDBCFEDFF100EDBCFE9FF110EDBCFC0
:1071B000EAFF1E0EE926000EEA22EECFE6FFEFCF31
:1071C000E6FFE6EC2BF0E552E552030E24C0DBFFB0
:1071D000040E25C0DBFF050E26C0DBFF060E27C010
:1071E000DBFF030EDBCF00F0040EDBCF01F0050E5A
:1071F000DBCF02F0060EDBCF03F0005001100210CF
:10720000031001E110D10D0EDBCF00F0016A026A1C
:10721000036AD950030FE96EDACFEAFFEE50002679
:10722000EE500122EE500222EE500322100EDBCF70
:10723000E9FF110EDBCFEAFF200EE926000EEA225D
:1072400000C0EEFF01C0EEFF02C0EEFF03C0EEFF84
:10725000046A020E056E066A076A100EDBCFE9FFAC
:10726000110EDBCFEAFF140EE926000EEA22EECF64
:1072700024F0EECF25F0EECF26F0EFCF27F0296AED
:10728000020E2A6E2B6A2C6A63ECCBF02050045C51
:10729000006E21500558016E22500658026E235090
:1072A0000758036E0B0E00C0DBFF0C0E01C0DBFFA6
:1072B0000B0EDBCF00F00C0EDBCF01F0FB0EDBCFB3
:1072C00002F0FC0EDBCF03F00050025C01500358CB
:1072D0000CE2FB0EDBCF26F0FC0EDBCF27F00B0E13
:1072E00026C0DBFF0C0E27C0DBFF0B0EDBCFE6FF5B
:1072F0000C0EDBCFE6FF100EDBCFE9FF110EDBCF6C
:10730000EAFF140EE926000EEA22EECF00F0EECFDF
:1073100001F0EECF02F0EFCF03F0010E0116026A8A
:10732000036A00C0E6FF01C0E6FF100EDBCFE9FFF5
:10733000110EDBCFEAFF200EE926000EEA22EECF87
:10734000E6FFEECFE6FFEECFE6FFEFCFE6FFD95048
:10735000FD0FE96EFF0EDA20EA6EEE50ED1003E14C
:10736000046A056A06D00E0EDBCF04F00F0EDBCFE9
:1073700005F004C0E6FF05C0E6FF52EC9AF0066E89
:107380000A0EE15E0650DF6EDF5001E04CD00B0EBE
:10739000DBCF00F00C0EDBCF01F0026A036A100EA7
:1073A000DBCFE9FF110EDBCFEAFF140EE926000E5A
:1073B000EA220050EE260150EE220250EE22035047
:1073C000EE220B0EDBCF00F00C0EDBCF01F0D9501C
:1073D0000E0FE96EDACFEAFF0050EE260150ED22E3
:1073E0000B0EDBCF00F00C0EDBCF01F0D950FB0F02
:1073F000E96EFF0EDA20EA6E0050EE5E0150ED5AA3
:107400000B0EDBCF00F00C0EDBCF01F0F90EDBCF63
:10741000E9FFFA0EDBCFEAFF0050EE260150ED2225
:1074200008D6000E0AD0100EDBCFE9FF110EDBCF1D
:10743000EAFFEE52EF6A010E00D0006E120EE15C20
:1074400002E2E16AE552E16E0050E552E7CFD9FF72
:107450001200D9CFE6FFE1CFD9FF110EE126FD0ED4
:10746000DBCF26F0FE0EDBCF27F00A0E26C0DBFFB7
:107470000B0E27C0DBFF0F0EFEC0DBFF100EFFC0A0
:10748000DBFFF90EDBCFE9FFFA0EDBCFEAFFEE6A96
:10749000ED6AD9500F0FE96EDACFEAFFEE50ED102A
:1074A00002E1060EA8D20F0EDBCFE9FF100EDBCFF4
:1074B000EAFFEE52EF50010B02E1050E9CD2D950CB
:1074C000FB0FE96EFF0EDA20EA6EEE50ED1025E1BB
:1074D0000F0EDBCFE9FF100EDBCFEAFFEE52EF50CD
:1074E000400B10E0E66AE66AE66AE66A000EE66EBF
:1074F000E66A2AEC9BF0006E060EE15E0050000981
:1075000001E06FD20F0EDBCFE9FF100EDBCFEAFFF9
:10751000EE52EF9C000E6FD216D00F0EDBCFE9FFBC
:10752000100EDBCFEAFFEE52EF50400B0CE10F0ED6
:10753000DBCFE9FF100EDBCFEAFF140EE926000EC9
:10754000EA22EE6AEE900F0EDBCFE9FF100EDBCFE2
:10755000EAFF180EE926000EEA22EECF04F0EECF85
:1075600005F0EECF06F0EFCF07F00F0EDBCFE9FF0F
:10757000100EDBCFEAFF140EE926000EEA22EE50D1
:10758000045C006EEE500558016EEE500658026E17
:10759000EE500758036E060E00C0DBFF070E01C059
:1075A000DBFF080E02C0DBFF090E03C0DBFFFB0E92
:1075B000DBCF00F0FC0EDBCF01F0026A036AD9508A
:1075C000060FE96EDACFEAFF0050EE5C0150EE588C
:1075D0000250EE580350EE580CE2060EDBCF26F0B8
:1075E000070EDBCF27F0FB0E26C0DBFFFC0E27C00B
:1075F000DBFFD950FB0FE96EFF0EDA20EA6EEE508A
:10760000ED1001E1ECD10F0EDBCFE9FF100EDBCF67
:10761000EAFF140EE926000EEA22EECF00F0EFCFCB
:1076200001F00001010E01160050011001E009D126
:107630000F0EDBCFE9FF100EDBCFEAFF140EE926B9
:10764000000EEA22EECF00F0EECF01F0EECF02F016
:10765000EFCF03F0090ED89003320232013200322C
:10766000E806F9E10F0EDBCFE9FF100EDBCFEAFFF2
:10767000020EE926000EEA22EF04046E056A066A8D
:10768000076A0450001605500116065002160750EE
:1076900003160C0E00C0DBFFDB5059E10F0EDBCFF1
:1076A000E9FF100EDBCFEAFF140EE926000EEA22F6
:1076B000EECF02F0EECF03F0EECF04F0EFCF05F007
:1076C00002500310041005100FE10F0EDBCFE9FF8D
:1076D000100EDBCFEAFF1C0EE926000EEA22EECFE9
:1076E00000F0EFCF01F016D00F0EDBCFE9FF100E48
:1076F000DBCFEAFF1E0EE926000EEA22EECFE6FF00
:10770000EFCFE6FF3AEC2BF0E552E552F3CF00F075
:10771000F4CF01F000C0DEFF01C0DDFFD9CFE9FFEB
:10772000DACFEAFF010ED880EE54000EED5401E3EB
:1077300058D10F0EDBCFE9FF100EDBCFEAFF1E0E94
:10774000E926000EEA22DECFEEFFDDCFEDFF0F0EC1
:10775000DBCFE9FF100EDBCFEAFF1E0EE926000E9D
:10776000EA22EECFE6FFEFCFE6FFE6EC2BF0E552A4
:10777000E552020E24C0DBFF030E25C0DBFF040E22
:1077800026C0DBFF050E27C0DBFF020EDBCF00F0BB
:10779000030EDBCF01F0040EDBCF02F0050EDBCFD2
:1077A00003F0005001100210031001E11AD10C0E79
:1077B000DBCF00F0016A026A036AD950020FE96E5A
:1077C000DACFEAFFEE500026EE500122EE50022200
:1077D000EE5003220F0EDBCFE9FF100EDBCFEAFFE6
:1077E000200EE926000EEA2200C0EEFF01C0EEFFE7
:1077F00002C0EEFF03C0EEFF0F0EDBCFE9FF100E5D
:10780000DBCFEAFF200EE926000EEA22EECFE6FFEC
:10781000EECFE6FFEECFE6FFEFCFE6FFE66EE66ADD
:107820002AEC9BF0006E060EE15E0050000901E0BC
:10783000D8D00F0EDBCFE9FF100EDBCFEAFFEE5200
:10784000EF8C0F0EDBCFE9FF100EDBCFEAFF140E3B
:10785000E926000EEA22EECF00F0EFCF01F00001A2
:10786000010E0116000ED8800056020E01560D0EB4
:1078700000C0DBFF0E0E01C0DBFF0D0EDBCF00F002
:107880000E0EDBCF01F0FB0EDBCF02F0FC0EDBCFE8
:1078900003F00050025C015003580CE2FB0EDBCFFA
:1078A00026F0FC0EDBCF27F00D0E26C0DBFF0E0E00
:1078B00027C0DBFF0D0EDBCF00F00E0EDBCF01F09B
:1078C000026A036A00C0E6FF01C0E6FF02C0E6FFED
:1078D00003C0E6FF0A0EDBCFE6FF0B0EDBCFE6FFB1
:1078E0002AEC9BF0046E060EE15E0450000901E0F4
:1078F00078D00D0EDBCF00F00E0EDBCF01F0026A68
:10790000036A0F0EDBCFE9FF100EDBCFEAFF140E88
:10791000E926000EEA220050EE260150EE22025027
:10792000EE220350EE220D0EDBCF00F00E0EDBCF69
:1079300001F0D9500A0FE96EDACFEAFF0050EE26C7
:107940000150ED220D0EDBCF00F00E0EDBCF01F06B
:10795000D950FB0FE96EFF0EDA20EA6E0050EE5EA2
:107960000150ED5A0D0EDBCF00F00E0EDBCF01F013
:10797000F90EDBCFE9FFFA0EDBCFEAFF0050EE266F
:107980000150ED220F0EDBCFE9FF100EDBCFEAFF37
:10799000140EE926000EEA22EECF00F0EFCF01F040
:1079A0000001010E01160050011018E1E66AE66AB6
:1079B000E66AE66A000EE66EE66A2AEC9BF0006E66
:1079C000060EE15E0050000901E00BD00F0EDBCF88
:1079D000E9FF100EDBCFEAFFEE52EF9C0AD6000E55
:1079E0000AD00F0EDBCFE9FF100EDBCFEAFFEE521D
:1079F000EF6A010E00D0006E110EE15C02E2E16A56
:107A0000E552E16E0050E552E7CFD9FF1200D9CF21
:107A1000E6FFE1CFD9FF100EE1260E0EFEC0DBFF20
:107A20000F0EFFC0DBFFD9500E0FE96EDACFEAFF71
:107A3000EE50ED1002E1060EAAD20E0EDBCFE9FFEA
:107A40000F0EDBCFEAFFEE52EF50010B02E1050E05
:107A50009ED2FB0EDBCF00F0FC0EDBCF01F0FD0E63
:107A6000DBCF02F0FE0EDBCF03F00E0EDBCFE9FF23
:107A70000F0EDBCFEAFF180EE926000EEA220050B7
:107A8000EE5C0150EE580250EE580350EE5816E2EC
:107A90000E0EDBCFE9FF0F0EDBCFEAFF180EE92653
:107AA000000EEA22FB0EEECFDBFFFC0EEECFDBFF7B
:107AB000FD0EEECFDBFFFE0EEECFDBFF0E0EDBCFBB
:107AC000E9FF0F0EDBCFEAFF140EE926000EEA22D3
:107AD0000A0EEECFDBFF0B0EEECFDBFF0C0EEECF70
:107AE000DBFF0D0EEECFDBFF0E0EDBCFE9FF0F0E3F
:107AF000DBCFEAFF140EE926000EEA22EE6AEE6AF8
:107B0000EE6AEE6AD950FB0FE96EFF0EDA20EA6EDC
:107B1000D880000EEE54000EEE54000EEE54000E0F
:107B2000EE5401E328D20E0EDBCFE9FF0F0EDBCFC0
:107B3000EAFF020EE926000EEA22EFCF24F0256AC2
:107B4000266A276A296A020E2A6E2B6A2C6AB8EC0A
:107B5000CAF0020E20C0DBFF030E21C0DBFF040EC3
:107B600022C0DBFF050E23C0DBFFD9500A0FE96EF0
:107B7000DACFEAFFD880000EEE54000EEE54000E6D
:107B8000EE54000EEE5401E3CED00A0EDBCF08F027
:107B90000B0EDBCF09F00C0EDBCF0AF00D0EDBCFA6
:107BA0000BF00806000E095A0A5A0B5A08C024F0B6
:107BB00009C025F00AC026F00BC027F0020EDBCF6B
:107BC00029F0030EDBCF2AF0040EDBCF2BF0050EDD
:107BD000DBCF2CF063ECCBF024C004F025C005F023
:107BE00026C006F027C007F0FB0EDBCF00F0FC0E2E
:107BF000DBCF01F0FD0EDBCF02F0FE0EDBCF03F09A
:107C00000006000E015A025A035A00C024F001C0B7
:107C100025F002C026F003C027F0020EDBCF29F0CA
:107C2000030EDBCF2AF0040EDBCF2BF0050EDBCFEB
:107C30002CF063ECCBF00450245C05502558065022
:107C40002658075027586FE30A0EDBCF00F00B0EC3
:107C5000DBCF01F00C0EDBCF02F00D0EDBCF03F01B
:107C60000006000E015A025A035A020EDBCF04F03E
:107C7000030EDBCF05F0040EDBCF06F0050EDBCFE5
:107C800007F00406000E055A065A075A041E051E80
:107C9000061E071E04500016055001160650021657
:107CA000075003160E0EDBCFE9FF0F0EDBCFEAFF06
:107CB000140EE926000EEA2200C0EEFF01C0EEFF1E
:107CC00002C0EEFF03C0EEFF0E0EDBCFE9FF0F0E8A
:107CD000DBCFEAFF140EE926000EEA22EECF00F019
:107CE000EECF01F0EECF02F0EFCF03F0D950FB0F53
:107CF000E96EFF0EDA20EA6E0050EE5E0150EE5A99
:107D00000250EE5A0350EE5A0E0EDBCFE9FF0F0E73
:107D1000DBCFEAFF1E0EE926000EEA22EECFDEFFE1
:107D2000EDCFDDFF1CD00E0EDBCFE9FF0F0EDBCF5A
:107D3000EAFF1C0EE926000EEA22EECFDEFFEDCFB1
:107D4000DDFF0E0EDBCFE9FF0F0EDBCFEAFF1E0ECD
:107D5000E926000EEA22DECFEEFFDDCFEDFF020EB8
:107D6000DBCF00F0030EDBCF01F0040EDBCF02F01F
:107D7000050EDBCF03F0D950FB0FE96EFF0EDA20C2
:107D8000EA6EEE50005CEE500158EE500258EE5094
:107D9000035865E2DECFE6FFDDCFE6FF3AEC2BF0DD
:107DA000E552E552F3CFDEFFF4CFDDFFD9CFE9FF97
:107DB000DACFEAFF010ED880EE54000EED5417E240
:107DC000DECF00F0DDCF01F00E0EDBCFE9FF0F0EAE
:107DD000DBCFEAFF060EE926000EEA22EECF02F024
:107DE000EFCF03F00250005C0350015801E3C5D00F
:107DF0000E0EDBCFE9FF0F0EDBCFEAFF1E0EE926EA
:107E0000000EEA22DECFEEFFDDCFEDFF0E0EDBCF60
:107E1000E9FF0F0EDBCFEAFF140EE926000EEA227F
:107E2000020EDB50EE26030EDB50EE22040EDB507A
:107E3000EE22050EDB50EE22D950FB0FE96EFF0E4D
:107E4000DA20EA6E020EDB50EE5E030EDB50EE5AD5
:107E5000040EDB50EE5A050EDB50EE5A80D70E0EA4
:107E6000DBCFE9FF0F0EDBCFEAFF140EE926000E91
:107E7000EA22FB0EDB50EE26FC0EDB50EE22FD0E5E
:107E8000DB50EE22FE0EDB50EE22DECFE6FFDDCF32
:107E9000E6FFE6EC2BF0E552E552060E24C0DBFFD0
:107EA000070E25C0DBFF080E26C0DBFF090E27C02A
:107EB000DBFF060EDBCF00F0070EDBCF01F0080E74
:107EC000DBCF02F0090EDBCF03F0005001100210EF
:107ED000031001E152D00E0EDBCFE9FF0F0EDBCF16
:107EE000EAFF140EE926000EEA22EECF00F0EECFF4
:107EF00001F0EECF02F0EFCF03F0090ED89003327D
:107F0000023201320032E806F9E10E0EDBCFE9FF62
:107F10000F0EDBCFEAFF020EE926000EEA22EF0485
:107F2000046E056A066A076A0450001605500116B9
:107F30000650021607500316D950060FE96EDACF25
:107F4000EAFFEE500026EE500122EE500222EE50E3
:107F500003220E0EDBCFE9FF0F0EDBCFEAFF200E70
:107F6000E926000EEA2200C0EEFF01C0EEFF02C0CB
:107F7000EEFF03C0EEFF000E0AD00E0EDBCFE9FFCE
:107F80000F0EDBCFEAFFEE52EF6A010E00D0006E5B
:107F9000100EE15C02E2E16AE552E16E0050E5524A
:067FA000E7CFD9FF12003B
:0A7FA6000201006B010E026F036B75
:107FB000046B89EF9FF0D9CFE6FFE1CFD9FF0A0E1E
:107FC000E126060EDB6A070EDB6A080EDB6A090E85
:107FD000DB6A0201005101E105D310EC89F025C0F4
:107FE000DFFF010E26C0DBFF020E27C0DBFF020110
:107FF000F00545E1020E0201005D03E0020100050B
:108000003EE1070EDB6A100EF36E070EDBCFF4FFC6
:10801000F350F45C2FE2070EEA6ADB34FE0BEA361B
:10802000E96E500EE926030EEA22EE6AED6A0201BD
:108030000351200DF3CF00F0F4CF01F0060E00261F
:10804000020E0122070EDB50020D0050F324E96EF0
:108050000150F420EA6EEECFE6FFEFCFE6FF070E09
:10806000DBCFE6FFEEEC4AF0E552E552E552070EB3
:10807000DB2AC9D70201020EF06F000EB3D2020153
:10808000000506E08CEC89F00201045D01E18ED16F
:108090008CEC89F00201045D05E00201045102E06C
:1080A00000EF00F00401320501E07DD10201036B15
:1080B0000201026B0201A66BA76BA86B060EDB6ABE
:1080C000D9CFE9FFDACFEAFFEE500201A65DEE500C
:1080D0000201A759EE500201A8591AE2060EDB5020
:1080E00017E1070EDB2A060EE66E020EE66EA60EFE
:1080F000E66E020EE66E070EDBCFE6FF7FDA006E5D
:10810000050EE15E0050E76E060EE7CFDBFFD8D725
:10811000060EDB5003E0060EDB5064D2070EDB04D4
:108120000201026F080EDB6A050EF36E080EDBCF4C
:10813000F4FFF350F45C6DE2080EDB50200DF3CF3A
:1081400000F0F4CF01F0060E0026020E012200C05E
:10815000E6FF01C0E6FF080EDB50030DF3CF02F08F
:10816000F4CF03F0A60E0226020E032202C0E6FFA1
:1081700003C0E6FF080EDB5002010225E66E3EDA80
:10818000046E050EE15E0450E76E060EE7CFDBFFDE
:10819000060EDB5014E1080EDB50030DF3CFE9FFB0
:1081A000F4CFEAFFA60EE926020EEA227F0EEE18B1
:1081B00005E1510EEE1802E1010EEE1827E1080E5E
:1081C000DB28E76E090EE7CFDBFF050EF36E090E25
:1081D000DBCFF4FFF350F45C14E2090EDB50030D27
:1081E000F3CFE9FFF4CFEAFFA60EE926020EEA225A
:1081F000800EEE6E510EEE6E010EEE6E090EDB2A53
:10820000E4D7050EF36E080EF3CFDBFF080EDB2A72
:108210008BD70201036B050E02010227D8ECA2F0F6
:10822000070EDB6A100EF36E070EDBCFF4FFF35080
:10823000F45C01E381D002010351200DF3CF02F081
:10824000F4CF03F0060E0226020E0322070EDB50C7
:10825000020D0250F324E96E0350F420EA6EEECFD3
:1082600000F0EFCF01F0070EEA6ADB34FE0BEA36CE
:10827000E96E500EE926030EEA2200C0EEFF01C0AF
:10828000EDFF02010351200DF3CF00F0F4CF01F018
:10829000060E0026020E0122070EDB50020D0050D2
:1082A000F324E96E0150F420EA6EEE50ED101AE06E
:1082B00002010351200DF3CF02F0F4CF03F0060EBC
:1082C0000226020E0322070EDB50020D0250F32499
:1082D000E96E0350F420EA6E060EEE1802E1270E56
:1082E000ED1821E102010351200DF3CF00F0F4CF8E
:1082F00001F0060E0026020E0122070EDB50020DD1
:108300000050F324E96E0150F420EA6EEECFE6FF50
:10831000EFCFE6FF070EDBCFE6FFEEEC4AF0E552CB
:10832000E552E55206D0070EDBCFE6FF12ECA1F0D6
:10833000E552070EDB2A76D780EC48F08CEC89F00A
:108340000201046F02010351200DF3CF00F0F4CFBE
:1083500001F0060E0026020E012200C0E6FF01C059
:10836000E6FF02010351030DF3CF02F0F4CF03F057
:10837000A60E0226020E032202C0E6FF03C0E6FF9D
:1083800002C2E6FF3BD9046E050EE15E0450E76EC3
:10839000060EE7CFDBFF0201022B0201032B0201D5
:1083A000020E006F02D000EF00F01CD1020E02019D
:1083B000005D01E0F1D0DFCF00F0010EDBCF01F076
:1083C000020EDBCF02F002010351030DF3CFE9FFF0
:1083D000F4CFEAFFA60EE926020EEA22EE50005C78
:1083E000EE500158EE50025801E2D6D0070EDB6A7B
:1083F000100EF36E070EDBCFF4FFF350F45C01E3D5
:1084000081D002010351200DF3CF02F0F4CF03F02D
:10841000060E0226020E0322070EDB50020D02504A
:10842000F324E96E0350F420EA6EEECF00F0EFCFB4
:1084300001F0070EEA6ADB34FE0BEA36E96E500EF5
:10844000E926030EEA2200C0EEFF01C0EDFF0201A3
:108450000351200DF3CF00F0F4CF01F0060E0026FB
:10846000020E0122070EDB50020D0050F324E96ECC
:108470000150F420EA6EEE50ED101AE002010351B3
:10848000200DF3CF02F0F4CF03F0060E0226020E09
:108490000322070EDB50020D0250F324E96E035055
:1084A000F420EA6E060EEE1802E1270EED1821E127
:1084B00002010351200DF3CF00F0F4CF01F0060EBE
:1084C0000026020E0122070EDB50020D0050F3249D
:1084D000E96E0150F420EA6EEECFE6FFEFCFE6FF43
:1084E000070EDBCFE6FFEEEC4AF0E552E552E5522F
:1084F00006D0070EDBCFE6FF12ECA1F0E552070E27
:10850000DB2A76D702010351200DF3CF00F0F4CF20
:1085100001F0060E0026020E012200C0E6FF01C097
:10852000E6FF02010351030DF3CF02F0F4CF03F095
:10853000A60E0226020E032202C0E6FF03C0E6FFDB
:1085400002C2E6FF5BD8046E050EE15E0450E76EE2
:10855000060EE7CFDBFF060EDB5011E002010351F0
:10856000030DF3CFE9FFF4CFEAFFA60EE926020ED2
:10857000EA22800EEE6E510EEE6E010EEE6ED8EC1B
:10858000A2F00201022B0201032B050E0201035D82
:1085900002E30201036B26D00A0E006E00C02CF02D
:1085A0002AC427F048ECCCF023501AE00201055110
:1085B00016E1070EDB6A100EF36E070EDBCFF4FF39
:1085C000F350F45C09E2070EDBCFE6FF12ECA1F0FA
:1085D000E552070EDB2AEFD70201010E056F02D02C
:1085E0000201056B006E0A0EE15C02E2E16AE552EF
:1085F000E16E0050E552E7CFD9FF1200D9CFE6FF78
:10860000E1CFD9FF0C0EE126D9CFE9FFDACFEAFF9F
:10861000700EEE6E6C0EEE6E750EEE6E670EEE6EFA
:10862000760EEE6EEE6AFC0EDBCFE9FFFD0EDBCFC1
:10863000EAFFEE6AEE6AEE6AD9CFE6FFDACFE6FF2E
:10864000A6EC36F0E552E552E76E0B0EE7CFDBFF06
:10865000DB5003E00B0EDB507ED1FE0EDB04026E1E
:10866000036A370E266E276A02C02BF003C02CF077
:10867000F3ECC7F024C000F025C001F0050E002681
:10868000000E0122080E00C0DBFF090E01C0DBFF57
:10869000080EDBCF00F0090EDBCF01F0026A036A9F
:1086A00000C0E6FF01C0E6FF02C0E6FF03C0E6FF30
:1086B00007EC3DF0E552E552E552E552E76E0B0E50
:1086C000E7CFDBFFDB5003E00B0EDB5044D1D9508A
:1086D000060FE66E000EDA20E66E370EE66EE66AEC
:1086E000000EE66E0B0EE66E8DEC37F0006E060E99
:1086F000E15E0050E76E0B0EE7CFDBFFDB5003E0DF
:108700000B0EDB5028D1300E0B01005D006E016AAC
:10871000026A100E2A6E270E2B6E2C6A00C025F0FE
:1087200001C026F002C027F011ECC8F022C000F012
:1087300023C001F024C002F0FC0EDBCFE9FFFD0EE8
:10874000DBCFEAFF00C0EEFF01C0EEFF02C0EEFF8C
:10875000300E0B01015D006E016A026AE80E2A6E9E
:10876000030E2B6E2C6A00C025F001C026F002C05B
:1087700027F011ECC8F022C000F023C001F024C0A3
:1087800002F0FC0EDBCFE9FFFD0EDBCFEAFF00506D
:10879000EE260150EE220250EE22300E0B01025D59
:1087A000006E016A026A640E2A6E2B6A2C6A00C08F
:1087B00025F001C026F002C027F011ECC8F022C05D
:1087C00000F023C001F024C002F0FC0EDBCFE9FF73
:1087D000FD0EDBCFEAFF0050EE260150EE220250E4
:1087E000EE22300E0B01035D006E016A026A0A0E72
:1087F0002A6E2B6A2C6A00C025F001C026F002C048
:1088000027F011ECC8F022C000F023C001F024C012
:1088100002F0FC0EDBCFE9FFFD0EDBCFEAFF0050DC
:10882000EE260150EE220250EE22300E0B01045DC6
:10883000006E016A026AFC0EDBCFE9FFFD0EDBCFA2
:10884000EAFF0050EE260150EE220250EE220A0E00
:10885000DB6A100EF36E0A0EDBCFF4FFF350F45C0C
:1088600001E377D00A0EDB50030DF350050FEA6ADF
:10887000000FE96E0B0EEA22EF50D00F026E036A72
:10888000E80E0302F3CF03F0030E0202F3500326B7
:10889000E80E0202F3CF02F0F45003260A0E016A3A
:1088A000DB34FE0B0136006EFA0EDB500024E96E5D
:1088B000FB0EDB500120EA6E02C0EEFF03C0EDFFAD
:1088C0000A0EDB50030DF350060FEA6A000FE96E43
:1088D0000B0EEA22EF50D00F640DF3CF02F0F4CF6D
:1088E00003F00A0E016ADB34FE0B0136006EFA0E4D
:1088F000DB500024E96EFB0EDB500120EA6E0250D3
:10890000EE260350ED220A0EDB50030DF350070F45
:10891000EA6A000FE96E0B0EEA22EF50D00F0A0D43
:10892000F3CF02F0F4CF03F00A0E016ADB34FE0B42
:108930000136006EFA0EDB500024E96EFB0EDB50B0
:108940000120EA6E0250EE260350ED220A0EDB2AC9
:1089500080D7000E00D0006E0C0EE15C02E2E16AEE
:10896000E552E16E0050E552E7CFD9FF1200D9CFB2
:10897000E6FFE1CFD9FF0E0EE126D9CFE9FFDACF2E
:10898000EAFF700EEE6E6C0EEE6E750EEE6E670EFA
:10899000EE6E760EEE6EEE6A0D0EDB6AD9CFE6FF56
:1089A000DACFE6FFA6EC36F0E552E552E76E090EA7
:1089B000E7CFDBFFDB5003E0090EDB5077D2D95065
:1089C000060FE66E000EDA20E66E050EE66EE66A2B
:1089D000000EE66E0B0EE66E8DEC37F0006E060EA6
:1089E000E15E0050E76E090EE7CFDBFFDB5003E0EE
:1089F000090EDB505BD2FC0EDBCF00F0FD0EDBCFAF
:108A000001F0280E005C000E015807E3280EF36EFB
:108A1000FC0EF3CFDBFFFD0EDB6AD950FC0FE96ED5
:108A2000FF0EDA20EA6E000ED880EE54000EED54F0
:108A300001E33AD2FC0EDBCF00F0FD0EDBCF01F0FC
:108A4000090E005C000E015807E2FC0EDB50E76ED9
:108A50000C0EE7CFDBFF05D0090EF36E0C0EF3CF43
:108A6000DBFFD950060FE66E000EDA20E66E0C0E24
:108A7000DB50370DF3CF00F0F4CF01F000C0E6FF7C
:108A800001C0E6FF000EE66E0B0EE66E8DEC37F0D1
:108A9000026E060EE15E0250E76E090EE7CFDBFFC5
:108AA0000C0EDB50006E016AD950FC0FE96EFF0E10
:108AB000DA20EA6E0050EE5E0150ED5A080EDB6AD5
:108AC0000C0EDB50F36E080EDBCFF4FFF350F45CBA
:108AD00001E3E0D1080EDB50370DF3CFE9FFF4CF0F
:108AE000EAFF000EE9260B0EEA22EF50D00F026ECD
:108AF000036A046A100E2A6E270E2B6E2C6A02C0BF
:108B000025F003C026F004C027F011ECC8F022C005
:108B100002F023C003F024C004F0F70EDBCF00F016
:108B2000F80EDBCF01F00D0EDBCFE6FF080EDB50B9
:108B3000E552E724030D0050F324E96E0150F420C0
:108B4000EA6E02C0EEFF03C0EEFF04C0EEFF080EA7
:108B5000DB50370DF3CFE9FFF4CFEAFF010EE92632
:108B6000000EEA22000EE9260B0EEA22EF50D00F8B
:108B7000026E036A046AE80E2A6E030E2B6E2C6ADC
:108B800002C025F003C026F004C027F011ECC8F0A5
:108B900022C002F023C003F024C004F0F70EDBCFA4
:108BA00000F0F80EDBCF01F00D0EDBCFE6FF080E74
:108BB000DB50E552E724030D0050F324E96E015029
:108BC000F420EA6E0250EE260350EE220450EE220C
:108BD000080EDB50370DF3CFE9FFF4CFEAFF020EAA
:108BE000E926000EEA22000EE9260B0EEA22EF50DB
:108BF000D00F026E036A046A640E2A6E2B6A2C6A16
:108C000002C025F003C026F004C027F011ECC8F024
:108C100022C002F023C003F024C004F0F70EDBCF23
:108C200000F0F80EDBCF01F00D0EDBCFE6FF080EF3
:108C3000DB50E552E724030D0050F324E96E0150A8
:108C4000F420EA6E0250EE260350EE220450EE228B
:108C5000080EDB50370DF3CFE9FFF4CFEAFF030E28
:108C6000E926000EEA22000EE9260B0EEA22EF505A
:108C7000D00F026E036A046A0A0E2A6E2B6A2C6AEF
:108C800002C025F003C026F004C027F011ECC8F0A4
:108C900022C002F023C003F024C004F0F70EDBCFA3
:108CA00000F0F80EDBCF01F00D0EDBCFE6FF080E73
:108CB000DB50E552E724030D0050F324E96E015028
:108CC000F420EA6E0250EE260350EE220450EE220B
:108CD000080EDB50370DF3CFE9FFF4CFEAFF040EA7
:108CE000E926000EEA22000EE9260B0EEA22EF50DA
:108CF000D00F026E036A046AF70EDBCF00F0F80EA5
:108D0000DBCF01F00D0EDBCFE6FF080EDB50E552A6
:108D1000E724030D0050F324E96E0150F420EA6EBD
:108D20000250EE260350EE220450EE22080EDB50D5
:108D3000370DF3CF04F0F4CF05F0050E0426000E36
:108D40000522FB0EDB50030DF3500F010424E96EE6
:108D5000000E0520EA6E000EE9260B0EEA22EF5007
:108D6000D00F026E036AE80E0302F3CF03F0030E86
:108D70000202F3500326E80E0202F3CF02F0F45091
:108D80000326F90EDBCF00F0FA0EDBCF01F00D0E5B
:108D9000DBCFE6FF080EDB50E552E724020D005062
:108DA000F324E96E0150F420EA6E02C0EEFF03C026
:108DB000EDFF080EDB50370DF3CF04F0F4CF05F0D4
:108DC000060E0426000E0522FB0EDB50030DF350A9
:108DD0000424E96E000E0520EA6E000EE9260B0E53
:108DE000EA22EF50D00F640DF3CF02F0F4CF03F07E
:108DF000F90EDBCF00F0FA0EDBCF01F00D0EDBCF6A
:108E0000E6FF080EDB50E552E724020D0050F32484
:108E1000E96E0150F420EA6E0250EE260350ED2276
:108E2000080EDB50370DF3CF04F0F4CF05F0070E3A
:108E30000426000E0522FB0EDB50030DF350042424
:108E4000E96E000E0520EA6E000EE9260B0EEA22FE
:108E5000EF50D00F0A0DF3CF02F0F4CF03F0F90E6C
:108E6000DBCF00F0FA0EDBCF01F00D0EDBCFE6FF1B
:108E7000080EDB50E552E724020D0050F324E96EA2
:108E80000150F420EA6E0250EE260350ED22080E47
:108E9000DB2A16D60D0EDBCFE7FF0C0EDB50E726E4
:108EA0000D0EE7CFDBFFB9D5000E00D0006E0E0E21
:108EB000E15C02E2E16AE552E16E0050E552E7CF83
:108EC000D9FF1200D9CFE6FFE1CFD9FF110EE1267D
:108ED000D9500B0FE96EDACFEAFF700EEE6E6C0E12
:108EE000EE6E750EEE6E670EEE6E610EEE6EEE6A53
:108EF000080EDB6A100EF36E080EDBCFF4FFF350A2
:108F0000F45C0BE2080EDB50EA6AB50FE96E020E64
:108F1000EA22EF6A080EDB2AEDD7090EDB6AD95088
:108F20000B0FE66E000EDA20E66EA6EC36F0E55288
:108F3000E552E76E0A0EE7CFDBFFDB5003E00A0ED7
:108F4000DB509CD0D950060FE66E000EDA20E66E9C
:108F5000040EE66EE66AD9CFE6FFDACFE6FF8DECC7
:108F600037F0006E060EE15E0050E76E0A0EE7CFA6
:108F7000DBFFDB500AE1D950060FE96EDACFEAFFDA
:108F8000040EEE1801E1ED5003E00A0EDB5076D03E
:108F9000010EDB50D00F006E300EDF5C0A0DF35077
:108FA0000024E76E090EE7CFDBFF080EDB6A090E2F
:108FB000DB50F36E080EDBCFF4FFF350F45C5CE2A1
:108FC000100EF36E080EDBCFF4FFF350F45C54E2A6
:108FD000D950060FE66E000EDA20E66E050EE66E3C
:108FE000E66AD9CFE6FFDACFE6FF8DEC37F0006E08
:108FF000060EE15E0050E76E0A0EE7CFDBFFDB50A6
:109000000AE1D950060FE96EDACFEAFF050EEE1835
:1090100001E1ED5003E00A0EDB5030D0300EDF5C92
:10902000640DF350E66E080EDB50EA6AB50FE96E88
:10903000020EEA22E552E750EF6E010EDB50D00F30
:109040000A0DF3CF00F0080EDB50EA6AB50FE96EA7
:10905000020EEA220050EF26020EDB50D00F006E07
:10906000080EDB50EA6AB50FE96E020EEA220050E4
:10907000EF26080EDB2A9BD7000E00D0006E110EE3
:10908000E15C02E2E16AE552E16E0050E552E7CFB1
:10909000D9FF1200D9CFE6FFE1CFD9FF030EE126B9
:1090A000020EDB6ADF6A100EDF5C19E2DF50EA6A4B
:1090B000B50FE96E020EEA22EF500FE0DF50EA6AC8
:1090C000B50FE96E020EEA22EF50E66EDF28E66E7B
:1090D00064DAE552E552020EDB2ADF2AE4D7020108
:1090E000010E006F000E006E030EE15C03E200D083
:1090F000E16AE552E16E0050E552E7CFD9FF120078
:10910000D9CFE6FFE1CFD9FF030EE126010EDF6ED6
:10911000DF5010080CE3DF50EA6AB50FE96E020E6B
:10912000EA22EF5002E0020EDB2ADF2AF1D7DE52FC
:10913000010EDD6EDF6E020EDB50D880DF540BE3D4
:10914000DF50080808E3010EDB50020D010EF3CFDB
:10915000DBFFDF2AF0D7010EDB04E76E010EE7CF5D
:10916000DBFFDBCFE6FF040EE66EAA0EE66ED9EC5F
:10917000B1F0E552E552E552020EDB50080823E259
:10918000DE52010EDD6E090EDF6E020EDB50D8805E
:10919000DF5408E3010EDB50020D010EF3CFDBFFBD
:1091A000DF2AF3D7010EDB04E76E010EE7CFDBFF0A
:1091B000DBCFE6FF050EE66EAA0EE66ED9ECB1F047
:1091C000E552E552E552000E006E030EE15C03E24B
:1091D00000D0E16AE552E16E0050E552E7CFD9FFD9
:1091E0001200D9CFE6FFE1CFD9FF0D0EE126D9500D
:1091F0000B0FE66E000EDA20E66E94D8E552E552CB
:10920000E76E0A0EE7CFDBFFDB5003E00A0EDB5010
:109210007DD0010EF36E080EF3CFDBFFFE0EDB50A8
:10922000F36E080EDBCFF4FFF350F45C29E2D95063
:10923000060FE66E000EDA20E66E050EE66EE66AB2
:10924000D9CFE6FFDACFE6FF8DEC37F0006E060EE1
:10925000E15E0050E76E0C0EE7CFDBFFDB500AE16A
:10926000D950060FE96EDACFEAFF050EEE1801E1DC
:10927000ED5003E00C0EDB5049D0080EDB2ACED7B0
:10928000D950060FE66E000EDA20E66E050EE66E89
:10929000E66AD9CFE6FFDACFE6FF8DEC37F0006E55
:1092A000060EE15E0050E76E0C0EE7CFDBFFDB50F1
:1092B0000AE1D950060FE96EDACFEAFF050EEE1883
:1092C00001E1ED5003E00C0EDB5020D0300EDF5CEE
:1092D000640D090EF3CFDBFF010EDB50D00F0A0D3A
:1092E000090EDBCFE7FFF350E726090EE7CFDBFFE0
:1092F000020EDB50D00F006E090EDBCFE7FF0050EF
:10930000E726090EE7CFDBFFDB5000D0006E0D0E25
:10931000E15C02E2E16AE552E16E0050E552E7CF1E
:10932000D9FF1200D9CFE6FFE1CFD9FF0E0EE1261B
:10933000D950080FE96EDACFEAFF700EEE6E6C0EB0
:10934000EE6E750EEE6E670EEE6E610EEE6EEE6AEE
:10935000FD0EDBCFE9FFFE0EDBCFEAFFEF6AD9504F
:10936000080FE66E000EDA20E66EA6EC36F0E55247
:10937000E552E76E070EE7CFDBFFDB5003E0070E99
:10938000DB5042D0D9CFE6FFDACFE6FF040EE66E1F
:10939000E66AD950020FE66E000EDA20E66E8DEC1A
:1093A00037F0006E060EE15E0050E76E070EE7CF65
:1093B000DBFFDB5009E1D9CFE9FFDACFEAFF040E8A
:1093C000EE1801E1ED5003E0070EDB501DD0020E58
:1093D000DB50D00F0A0DF350E66EFD0EDBCFE9FF38
:1093E000FE0EDBCFEAFFE552E750EF6E030EDB50D7
:1093F000D00F006EFD0EDBCFE9FFFE0EDBCFEAFFE4
:109400000050EF26000E00D0006E0E0EE15C02E26E
:10941000E16AE552E16E0050E552E7CFD9FF120054
:10942000D9CFE6FFE1CFD9FF0E0EE126D950080FC4
:10943000E96EDACFEAFF700EEE6E6C0EEE6E750E10
:10944000EE6E670EEE6E760EEE6EEE6AFD0EDBCF02
:10945000E9FFFE0EDBCFEAFFEE6AED6AD950080F96
:10946000E66E000EDA20E66EA6EC36F0E552E55226
:10947000E76E070EE7CFDBFFDB5003E0070EDB50A4
:1094800056D0D9CFE6FFDACFE6FF050EE66EE66AE4
:10949000000EE66E0B0EE66E8DEC37F0006E060EDB
:1094A000E15E0050E76E070EE7CFDBFFDB5009E11E
:1094B000D9CFE9FFDACFEAFF050EEE1801E1ED5052
:1094C00003E0070EDB5033D0300E0B01005D640D5E
:1094D000F3CF00F0F4CF01F0FD0EDBCFE9FFFE0E7D
:1094E000DBCFEAFF00C0EEFF01C0EDFF300E015DF3
:1094F0000A0DF3CF00F0F4CF01F0FD0EDBCFE9FF52
:10950000FE0EDBCFEAFF0050EE260150ED22300EBA
:10951000025D006E016AFD0EDBCFE9FFFE0EDBCFC0
:10952000EAFF0050EE260150ED22000E00D0006E42
:109530000E0EE15C02E2E16AE552E16E0050E55296
:10954000E7CFD9FF1200D9CFE6FFE1CFD9FF020E56
:10955000E126FF0EE76EFD0EDBCF00F0FE0EDBCF47
:1095600001F0E7500016016A0050E66E010EE66E4B
:1095700083D8E552E552E76E010EE7CFDBFFDB5003
:10958000006E020EE15C03E200D0E16AE552E16E9A
:109590000050E552E7CFD9FF1200D9CFE6FFE1CF67
:1095A000D9FF020EE126FE0EDB04E824200FDF6E59
:1095B000FD0EDBCFE6FFDFCFE6FFAA0EE66ED9ECAD
:1095C000B1F0E552E552E552020EE15C02E2E16AD9
:1095D000E552E16EE552E7CFD9FF1200D9CFE6FFA1
:1095E000E1CFD9FF020EE126FE0EDB50E824200F6A
:1095F000010FDF6ED950FC0FE96EFF0EDA20EA6E24
:10960000EE50ED1003E1010EDB6A03D0DE52010ED5
:10961000DD6EDBCFE6FFDFCFE6FFAA0EE66ED9EC0C
:10962000B1F0E552E552E552020EE15C02E2E16A78
:10963000E552E16EE552E7CFD9FF1200D9CFE6FF40
:10964000E1CFD9FFE652FC0EDBCFE6FFFD0EDBCF0C
:10965000E6FFFE0EDBCFE6FFAA0EE66E83ECB2F06D
:10966000E552E552E552E552DF6EDF5000D0E5529B
:10967000E552E7CFD9FF1200D9CFE6FFE1CFD9FFFE
:10968000E652FD0EDBCFE6FFFE0EDBCFE6FFAA0EB5
:10969000E66ED9ECB1F0E552E552E552DF6EDF50EF
:0C96A00000D0E552E552E7CFD9FF1200E0
:0496AC00D9CFE6FF2D
:1096B000E1CFD9FFE6520201FF0501E077D0030EAA
:1096C000E66E27ECC4F0E552010814E0040EE66EE5
:1096D00027ECC4F0E55201080DE0E66A27ECC4F07F
:1096E000E552010807E0020EE66E27ECC4F0E552F1
:1096F000010837E1030EE66E41ECC4F0E5520108C3
:1097000007E1E66A010EE66EF0ECA2F0E552E552E2
:10971000040EE66E41ECC4F0E552010807E1E66A8A
:10972000020EE66EF0ECA2F0E552E552E66A41EC7C
:10973000C4F0E552010807E1020EE66EE66AF0ECBD
:10974000A2F0E552E552020EE66E41ECC4F0E5529D
:10975000010807E1010EE66EE66AF0ECA2F0E552C0
:10976000E552010EE66E41ECC4F0E55201081DE140
:109770000201FF6BF00EE66E000EE66EF10EE66E75
:10978000000EE66E29ECA6F0E552E552E552E552F0
:109790000001F151006E016AF0511F0DF3500024D9
:1097A000F26FF4500120F36FB2D8ACD0030EE66E26
:1097B00027ECC4F0E552010807E0040EE66E27EC42
:1097C000C4F0E552010818E1030EE66E41ECC4F066
:1097D000E552010804E10001F22B000EF323040E10
:1097E000E66E41ECC4F0E552010804E10001F20725
:1097F000000EF35B8CD871D0E66A27ECC4F0E5521A
:1098000001082AE0E66A64ECC4F0E55201080BE1C5
:1098100004012A51006E016A00500E019E1902E1F6
:1098200001509F1919E1020EE66E27ECC4F0E552D3
:10983000010812E0020EE66E64ECC4F0E552010885
:109840004CE104012A51026E036A02500E019E1976
:1098500002E103509F1941E0E66A41ECC4F0E55291
:10986000010811E0E66A64ECC4F0E552010811E178
:1098700004012A51006E016A00500E019E1902E196
:1098800001509F1906E0DF6A04012A510E019E6F04
:109890009F6B020EE66E41ECC4F0E552010812E047
:1098A000020EE66E64ECC4F0E552010812E1040118
:1098B0002A51006E016A00500E019E1902E101500A
:1098C0009F1907E0020EDF6E04012A510E019E6F00
:1098D0009F6BDFCFE6FF6DDBE552010EE66E41ECDC
:1098E000C4F0E55201080EE10201010EFF6F0E0106
:1098F0000C0E916F0E01010E906F90CEE6FF9CEC66
:10990000BDF0E552E552E552E7CFD9FF1200D9CFBD
:10991000E6FFE1CFD9FF090EE126060EDB6A020160
:10992000FF0514E12EC4F1F02FC4F0F0F0C0E6FF03
:10993000F1C0E6FF41ECA6F0E552E55281ECA3F060
:10994000F1C0E6FFA4ECA5F0E55225D387ECAFF01B
:1099500004012E51026E036A2F511F0DF350022491
:10996000006EF4500320016E070E00C0DBFF080EEE
:1099700001C0DBFFE66AE66AC3ECAFF0E552E552F0
:10998000E66AE66AA4ECB0F0E552E552E66A380E03
:10999000E66E5C0EE66E010EE66EE9ECAFF0E552A7
:1099A000E552E552E552E66AF2C000F0F3C001F07C
:1099B000360E2B6E010E2C6E00C026F001C027F073
:1099C000F2ECCBF026C000F027C001F0300E0024EE
:1099D000E66E41ECB0F0E552E552E66AF2C000F006
:1099E000F3C001F01F0E2B6E2C6A00C026F001C0E0
:1099F00027F0F2ECCBF026C000F027C001F0300ECB
:109A00000024E66E41ECB0F0E552E552E66A360E0F
:109A1000E66E5C0EE66E010EE66EE9ECAFF0E55226
:109A2000E552E552E552E66AF2C000F0F3C001F0FB
:109A30001F0E2B6E2C6A00C026F001C027F0F2EC3E
:109A4000CBF022C000F023C001F00A0E2B6E2C6A6E
:109A500000C026F001C027F0F2ECCBF026C000F0E9
:109A600027C001F0300E0024E66E41ECB0F0E55264
:109A7000E552E66AF2C000F0F3C001F01F0E2B6E53
:109A80002C6A00C026F001C027F0F2ECCBF022C017
:109A900000F023C001F00A0E2B6E2C6A00C026F0E5
:109AA00001C027F0F2ECCBF022C000F023C001F09F
:109AB000300E0024E66E41ECB0F0E552E552E66A65
:109AC000340EE66E5C0EE66E010EE66EE9ECAFF06B
:109AD000E552E552E552E552E66A010EE66EA4EC67
:109AE000B0F0E552E552010EE66E040EE66E04ECAF
:109AF000B1F0E552E552010EE66EE66AC3ECAFF056
:109B0000E552E552E66A060EE66EA4ECB0F0E552C8
:109B1000E552020EE66EE66AC3ECAFF0E552E5529E
:109B2000E66A050EE66EA4ECB0F0E552E552030ECF
:109B3000E66EE66AC3ECAFF0E552E552E66A050E62
:109B4000E66EA4ECB0F0E552E552040EE66EE66A6D
:109B5000C3ECAFF0E552E552E66A080EE66EA4ECFF
:109B6000B0F0E552E552040EE66E4F0EE66EC3EC21
:109B7000AFF0E552E552E66A070EE66EA4ECB0F0EF
:109B8000E552E552050EE66EE66AC3ECAFF0E5522B
:109B9000E552E66A040EE66EA4ECB0F0E552E5523A
:109BA000E66A300EE66E5C0EE66E010EE66EE9ECDD
:109BB000AFF0E552E552E552E552E66A030EE66E75
:109BC000A4ECB0F0E552E552E66A2C0EE66E5C0EAF
:109BD000E66E010EE66EE9ECAFF0E552E552E552B5
:109BE000E552E66A020EE66EA4ECB0F0E552E552EC
:109BF000E66A260EE66E5C0EE66E010EE66EE9EC97
:109C0000AFF0E552E552E552E5520401320506E0B7
:109C10000201030EFE6F07EC56F0BDD1070EDBCF3D
:109C200000F0080EDBCF01F00001F251005CF351AF
:109C3000015806E20201020EFE6F07EC56F0ABD1AE
:109C4000000EE66E0E0EE66E600EE66E000EE66E1E
:109C5000480EE66EF2C0E6FFF3C0E6FFADEC64F03E
:109C6000006E070EE15E0050E76E050EE7CFDBFFEA
:109C7000DB5006E00201010EFE6F07EC56F08BD1BF
:109C80000201FE6BDF6ADF50006E016A480E005C65
:109C9000000E015801E37FD1050EDF24E76E020EAE
:109CA000E7CFDBFFEA6ADF34FE0BEA36E96E600ECF
:109CB000E926000EEA22EE50ED1001E16AD1EA6ACF
:109CC000DF34FE0BEA36E96E000EE9260E0EEA22BC
:109CD000EE50ED1001E15DD1060EDB5008E1DF042E
:109CE0000E01926F010EF36E060EF3CFDBFFEA6AF0
:109CF000DF34FE0BEA36E96E600EE926000EEA223A
:109D0000EECF00F0EFCF01F0640E2B6E2C6A00C096
:109D100026F001C027F0F2ECCBF026C000F027C0FF
:109D200001F0030E0F0B05E0D89001320032E80677
:109D3000FBE1040ED8800056000E0156040E00C050
:109D4000DBFFEA6ADF34FE0BEA36E96E000EE92635
:109D50000E0EEA22EECF00F0EFCF01F0640E2B6E74
:109D60002C6A00C026F001C027F0F2ECCBF026C030
:109D700000F027C001F0010E0F0B05E0D890013272
:109D80000032E806FBE1030E0F0B05E0D89001322C
:109D90000032E806FBE1040ED8800056000E0156A2
:109DA000030E00C0DBFF040EDB50F36E030EDB502E
:109DB000F35C71E1040EDBCFE6FF020EDBCFE6FFC2
:109DC000C3ECAFF0E552E552800E026E036AEA6A18
:109DD000DF34FE0BEA36E96E600EE926000EEA2259
:109DE000EECF04F0EFCF05F0640E2B6E2C6A04C0AA
:109DF00026F005C027F0F2ECCBF026C004F027C017
:109E000005F00001056A070E0416045002C000F0B8
:109E100003C001F005E0D89001320032E804FBE114
:109E2000800E086E096AEA6ADF34FE0BEA36E96ED4
:109E3000000EE9260E0EEA22EECF0AF0EFCF0BF06D
:109E4000640E2B6E2C6A0AC026F00BC027F0F2ECD1
:109E5000CBF026C00AF027C00BF0010E0F0B05E077
:109E6000D8900B320A32E806FBE100010B6A070EBC
:109E70000A160A5008C006F009C007F005E0D8909D
:109E800007320632E804FBE100500610E66E6EEC85
:109E9000AFF0E5527ED0040EDBCFE6FF020EDBCF43
:109EA000E6FFC3ECAFF0E552E552800E026E036AA6
:109EB000EA6ADF34FE0BEA36E96E600EE926000E30
:109EC000EA22EECF04F0EFCF05F0640E2B6E2C6A81
:109ED00004C026F005C027F0F2ECCBF026C004F059
:109EE00027C005F00001056A070E0416045002C0E1
:109EF00000F003C001F005E0D89001320032E80420
:109F0000FBE10050E66E6EECAFF0E552030EDBCFE6
:109F1000E6FF020EDBCFE6FFC3ECAFF0E552E55201
:109F2000800E026E036AEA6ADF34FE0BEA36E96EDF
:109F3000000EE9260E0EEA22EECF04F0EFCF05F078
:109F4000640E2B6E2C6A04C026F005C027F0F2ECDC
:109F5000CBF026C004F027C005F0010E0F0B05E082
:109F6000D89005320432E806FBE10001056A070ECD
:109F70000416045002C000F003C001F005E0D890C0
:109F800001320032E804FBE10050E66E6EECAFF007
:109F9000E552DF2A78D6000E006E090EE15C03E27E
:109FA00000D0E16AE552E16E0050E552E7CFD9FFFB
:109FB0001200D9CFE6FFE1CFD9FF040EE126050E4E
:109FC0000E019225E76E010EE7CFDBFFDF6E050E77
:109FD000DF5C18E2DFCFE6FF010EDBCFE6FFC3EC6C
:109FE000AFF0E552E552040EDF5C06E1400EE66E8E
:109FF0006EECAFF0E55204D0E66A6EECAFF0E552DD
:10A00000DF2AE5D792CEE9FFEA6AE9BEEA68D8908E
:10A01000E936EA36600EE926000EEA22EE50ED102F
:10A0200001E175D192CEE9FFEA6AE9BEEA68D8900B
:10A03000E936EA36000EE9260E0EEA22EE50ED1061
:10A0400001E165D192CEE9FFEA6AE9BEEA68D890FB
:10A05000E936EA36600EE926000EEA22EECF00F07D
:10A06000EFCF01F0640E2B6E2C6A00C026F001C009
:10A0700027F0F2ECCBF026C000F027C001F0030E71
:10A080000F0B05E0D89001320032E806FBE1040E28
:10A09000D8800056000E0156030E00C0DBFF92CEA2
:10A0A000E9FFEA6AE9BEEA68D890E936EA36000EC6
:10A0B000E9260E0EEA22EECF00F0EFCF01F0640E9B
:10A0C0002B6E2C6A00C026F001C027F0F2ECCBF01A
:10A0D00026C000F027C001F0010E0F0B05E0D8905C
:10A0E00001320032E806FBE1030E0F0B05E0D890C9
:10A0F00001320032E806FBE1040ED8800056000E63
:10A100000156020E00C0DBFF030EDB50F36E020EA1
:10A11000DB50F35C01E077D0030EDBCFE6FF010EEE
:10A12000DBCFE6FFC3ECAFF0E552E552800E026EE6
:10A13000036A92CEE9FFEA6AE9BEEA68D890E93696
:10A14000EA36600EE926000EEA22EECF04F0EFCFE9
:10A1500005F0640E2B6E2C6A04C026F005C027F0B3
:10A16000F2ECCBF026C004F027C005F00001056A30
:10A17000070E0416045002C000F003C001F005E011
:10A18000D89001320032E804FBE1800E086E096AC3
:10A1900092CEE9FFEA6AE9BEEA68D890E936EA3683
:10A1A000000EE9260E0EEA22EECF0AF0EFCF0BF0FA
:10A1B000640E2B6E2C6A0AC026F00BC027F0F2EC5E
:10A1C000CBF026C00AF027C00BF0010E0F0B05E004
:10A1D000D8900B320A32E806FBE100010B6A070E49
:10A1E0000A160A5008C006F009C007F005E0D8902A
:10A1F00007320632E804FBE100500610E66E6EEC12
:10A20000AFF0E55284D0030EDBCFE6FF010EDBCFCB
:10A21000E6FFC3ECAFF0E552E552800E026E036A32
:10A2200092CEE9FFEA6AE9BEEA68D890E936EA36F2
:10A23000600EE926000EEA22EECF04F0EFCF05F023
:10A24000640E2B6E2C6A04C026F005C027F0F2ECD9
:10A25000CBF026C004F027C005F00001056A070E08
:10A260000416045002C000F003C001F005E0D890CD
:10A2700001320032E804FBE10050E66E6EECAFF014
:10A28000E552020EDBCFE6FF010EDBCFE6FFC3ECAB
:10A29000AFF0E552E552800E026E036A92CEE9FFFE
:10A2A000EA6AE9BEEA68D890E936EA36000EE9269D
:10A2B0000E0EEA22EECF04F0EFCF05F0640E2B6E07
:10A2C0002C6A04C026F005C027F0F2ECCBF026C0C3
:10A2D00004F027C005F0010E0F0B05E0D890053201
:10A2E0000432E806FBE10001056A070E041604507B
:10A2F00002C000F003C001F005E0D8900132003246
:10A30000E804FBE10050E66E6EECAFF0E5520E01A2
:10A31000925106E1FE0EDB5003E1470E926F13D01F
:10A3200092CE00F0016A00BE0168470E001801E1FC
:10A33000015006E1FE0EDB50020802E1926B03D0F1
:10A34000FE0EDB04922792CEE9FFEA6AE9BEEA68D4
:10A35000D890E936EA36600EE926000EEA22EECF02
:10A3600000F0EFCF01F0030E0F0B05E0D8900132A3
:10A370000032E806FBE1040ED8800056000E0156BC
:10A38000030E00C0DBFF92CEE9FFEA6AE9BEEA688D
:10A39000D890E936EA36000EE9260E0EEA22EECF14
:10A3A00000F0EFCF01F0010E0F0B05E0D890013265
:10A3B0000032E806FBE1030E0F0B05E0D8900132F6
:10A3C0000032E806FBE1040ED8800056000E01566C
:10A3D000020E00C0DBFF050E0E019225E76E010E96
:10A3E000E7CFDBFFDF6E050EDF5C01E31FD1DFCFC0
:10A3F000E6FF010EDBCFE6FFC3ECAFF0E552E5521E
:10A40000FE0EDB68DF0405E1FC0EF36EFE0EF3CFFB
:10A41000DBFF030EDB50DF5C01E078D0020EDB5087
:10A42000DF5C74E1800E046E056A92CEE9FFEA6A91
:10A43000E9BEEA68D890E936EA36600EE926000EF1
:10A44000EA22EECF06F0EFCF07F0640E2B6E2C6AF7
:10A4500006C026F007C027F0F2ECCBF026C006F0CD
:10A4600027C007F00001076A070E0616065004C051
:10A4700002F005C003F005E0D89003320232E80490
:10A48000FBE1FE0EDB5000010218006E03C001F07C
:10A49000800E0A6E0B6A92CEE9FFEA6AE9BEEA68AC
:10A4A000D890E936EA36000EE9260E0EEA22EECF03
:10A4B0000CF0EFCF0DF0640E2B6E2C6A0CC026F062
:10A4C0000DC027F0F2ECCBF026C00CF027C00DF049
:10A4D000010E0F0B05E0D8900D320C32E806FBE1BF
:10A4E00000010D6A070E0C160C500AC008F00BC0D4
:10A4F00009F005E0D89009320832E804FBE1005089
:10A500000818E66E6EECAFF0E5528ED0030EDB500D
:10A51000DF5C3CE1800E046E056A92CEE9FFEA6AD8
:10A52000E9BEEA68D890E936EA36600EE926000E00
:10A53000EA22EECF06F0EFCF07F0640E2B6E2C6A06
:10A5400006C026F007C027F0F2ECCBF026C006F0DC
:10A5500027C007F00001076A070E0616065004C060
:10A5600002F005C003F005E0D89003320232E8049F
:10A57000FBE1FE0EDB5000010218006E03C001F08B
:10A580000050E66E6EECAFF0E5524ED0020EDB509E
:10A59000DF5C44E1800E046E056A92CEE9FFEA6A50
:10A5A000E9BEEA68D890E936EA36000EE9260E0ED2
:10A5B000EA22EECF06F0EFCF07F0640E2B6E2C6A86
:10A5C00006C026F007C027F0F2ECCBF026C006F05C
:10A5D00027C007F0010E0F0B05E0D89007320632B6
:10A5E000E806FBE10001076A070E0616065004C0E4
:10A5F00002F005C003F005E0D89003320232E8040F
:10A60000FBE1FE0EDB5000010218006E03C001F0FA
:10A610000050E66E6EECAFF0E55206D0FE0EDBCFDA
:10A62000E6FF6EECAFF0E552DF2ADDD6E66A0A0EF1
:10A63000E66EC3ECAFF0E552E552E66AF2C000F018
:10A64000F3C001F0360E2B6E010E2C6E00C026F00A
:10A6500001C027F0F2ECCBF026C000F027C001F0DB
:10A66000300E0024E66E41ECB0F0E552E552E66AA9
:10A67000F2C000F0F3C001F01F0E2B6E2C6A00C078
:10A6800026F001C027F0F2ECCBF026C000F027C086
:10A6900001F0300E0024E66E41ECB0F0E552E552D8
:10A6A000E66A360EE66E5C0EE66E010EE66EE9ECCC
:10A6B000AFF0E552E552E552E552E66AF2C000F02D
:10A6C000F3C001F01F0E2B6E2C6A00C026F001C0F3
:10A6D00027F0F2ECCBF022C000F023C001F00A0E0C
:10A6E0002B6E2C6A00C026F001C027F0F2ECCBF0F4
:10A6F00026C000F027C001F0300E0024E66E41ECC9
:10A70000B0F0E552E552E66AF2C000F0F3C001F0A5
:10A710001F0E2B6E2C6A00C026F001C027F0F2EC51
:10A72000CBF022C000F023C001F00A0E2B6E2C6A81
:10A7300000C026F001C027F0F2ECCBF022C000F000
:10A7400023C001F0300E0024E66E41ECB0F0E5527B
:10A75000E552E66A340EE66E5C0EE66E010EE66EBB
:10A76000E9ECAFF0E552E552E552E552E66A1E0E1D
:10A77000006E00C02CF092CE27F0B3ECC7F027504B
:10A78000300FE66E41ECB0F0E552E552E66A92CE4B
:10A7900027F01E0E2C6EB3ECC7F023C000F0030EA2
:10A7A000016E01C02CF000C027F0B3ECC7F02750B9
:10A7B000300FE66E41ECB0F0E552E552E66A240E49
:10A7C000E66E5C0EE66E010EE66EE9ECAFF0E55269
:10A7D000E552E552E552E66A92CE27F0030E2C6E62
:10A7E000B3ECC7F02350E824300FE66E41ECB0F034
:10A7F000E552E552E66A220EE66E5C0EE66E010E4A
:10A80000E66EE9ECAFF0E552E552E552E552050E91
:10A81000E66E2CECB1F0E552050EE66EE66AC3EC8E
:10A82000AFF0E552E552E66A040EE66EA4ECB0F035
:10A83000E552E552050EE66EE66EC3ECAFF0E5526A
:10A84000E55292CEE9FFEA6AE9BEEA68D890E936B5
:10A85000EA36600EE926000EEA22EE50ED100FE017
:10A8600092CEE9FFEA6AE9BEEA68D890E936EA36AC
:10A87000000EE9260E0EEA22EE50ED100EE1E66A19
:10A88000150EE66E5C0EE66E010EE66EE9ECAFF0BC
:10A89000E552E552E552E5529CD1E66A92CEE9FFD7
:10A8A000EA6AE9BEEA68D890E936EA36600EE92637
:10A8B000000EEA22EECF00F0EFCF01F0E80E2B6E93
:10A8C000030E2C6E00C026F001C027F0F2ECCBF096
:10A8D00026C000F027C001F0300E0024E66E41ECE7
:10A8E000B0F0E552E552E66A92CEE9FFEA6AE9BEC7
:10A8F000EA68D890E936EA36600EE926000EEA22C8
:10A90000EECF00F0EFCF01F0E80E2B6E030E2C6EB1
:10A9100000C026F001C027F0F2ECCBF022C000F01E
:10A9200023C001F0640E2B6E2C6A00C026F001C01B
:10A9300027F0F2ECCBF026C000F027C001F0300E7B
:10A940000024E66E41ECB0F0E552E552E66A130EE3
:10A95000E66E5C0EE66E010EE66EE9ECAFF0E552D7
:10A96000E552E552E552E66A92CEE9FFEA6AE9BEAF
:10A97000EA68D890E936EA36600EE926000EEA2247
:10A98000EECF00F0EFCF01F0640E2B6E2C6A00C00A
:10A9900026F001C027F0F2ECCBF022C000F023C07B
:10A9A00001F00A0E2B6E2C6A00C026F001C027F0C1
:10A9B000F2ECCBF026C000F027C001F0300E0024EE
:10A9C000E66E41ECB0F0E552E552E66A92CEE9FF60
:10A9D000EA6AE9BEEA68D890E936EA36600EE92606
:10A9E000000EEA22EECF00F0EFCF01F00A0E2B6E40
:10A9F0002C6A00C026F001C027F0F2ECCBF022C098
:10AA000000F023C001F0300E0024E66E41ECB0F0FF
:10AA1000E552E552E66A110EE66E5C0EE66E010E38
:10AA2000E66EE9ECAFF0E552E552E552E552050E6F
:10AA3000E66E2C0EE66EC3ECAFF0E552E552E66A28
:10AA400092CEE9FFEA6AE9BEEA68D890E936EA36CA
:10AA5000000EE9260E0EEA22EECF00F0EFCF01F055
:10AA6000E80E2B6E030E2C6E00C026F001C027F0FE
:10AA7000F2ECCBF026C000F027C001F0300E00242D
:10AA8000E66E41ECB0F0E552E552E66A92CEE9FF9F
:10AA9000EA6AE9BEEA68D890E936EA36000EE926A5
:10AAA0000E0EEA22EECF00F0EFCF01F0E80E2B6E93
:10AAB000030E2C6E00C026F001C027F0F2ECCBF0A4
:10AAC00022C000F023C001F0640E2B6E2C6A00C07F
:10AAD00026F001C027F0F2ECCBF026C000F027C032
:10AAE00001F0300E0024E66E41ECB0F0E552E55284
:10AAF000E66A130EE66E5C0EE66E010EE66EE9EC9B
:10AB0000AFF0E552E552E552E552E66A92CEE9FF32
:10AB1000EA6AE9BEEA68D890E936EA36000EE92624
:10AB20000E0EEA22EECF00F0EFCF01F0640E2B6E96
:10AB30002C6A00C026F001C027F0F2ECCBF022C056
:10AB400000F023C001F00A0E2B6E2C6A00C026F024
:10AB500001C027F0F2ECCBF026C000F027C001F0D6
:10AB6000300E0024E66E41ECB0F0E552E552E66AA4
:10AB700092CEE9FFEA6AE9BEEA68D890E936EA3699
:10AB8000000EE9260E0EEA22EECF00F0EFCF01F024
:10AB90000A0E2B6E2C6A00C026F001C027F0F2ECE2
:10ABA000CBF022C000F023C001F0300E0024E66E8E
:10ABB00041ECB0F0E552E552E66A0F0EE66E5C0E2F
:10ABC000E66E010EE66EE9ECAFF0E552E552E552B5
:10ABD000E552050EE66E4F0EE66EC3ECAFF0E552A1
:10ABE000E552E66A030EE66EA4ECB0F0E552E552DB
:10ABF0000ED8000E006E040EE15C03E200D0E16AA4
:10AC0000E552E16E0050E552E7CFD9FF1200030E86
:10AC10000201FE5D16E1020EE66E040EE66EC3EC66
:10AC2000AFF0E552E552E66A040EE66E5C0EE66EA3
:10AC3000010EE66EE9ECAFF0E552E552E552E55261
:10AC400030D0FE0516E1020EE66E0A0EE66EC3EC8B
:10AC5000AFF0E552E552E66AFD0EE66E5B0EE66E7B
:10AC6000010EE66EE9ECAFF0E552E552E552E55231
:10AC700018D0020EFE5D15E1020EE66E040EE66EC1
:10AC8000C3ECAFF0E552E552E66AEF0EE66E5B0EFE
:10AC9000E66E010EE66EE9ECAFF0E552E552E552E4
:04ACA000E552120067
:0CACA400D9CFE6FFE1CFD9FFE652030E46
:10ACB000E66E27ECC4F0E552010807E0040EE66EEC
:10ACC00027ECC4F0E552010825E1040EE66E41ECE4
:10ACD000C4F0E552010807E10E01935103E10F0EA4
:10ACE000936F01D09307030EE66E41ECC4F0E5527A
:10ACF00001080EE10F0E0E01E76E9319E8AE02D0C7
:10AD0000E73402D0E750935D02E3936B01D0932BBD
:10AD100095D87DD0E66A27ECC4F0E55201082AE018
:10AD2000E66A64ECC4F0E55201080BE104012A5123
:10AD3000006E016A00500E019E1902E101509F1938
:10AD400019E1020EE66E27ECC4F0E552010812E0AC
:10AD5000020EE66E64ECC4F0E552010858E104010D
:10AD60002A51026E036A02500E019E1902E103503D
:10AD70009F194DE0E66A41ECC4F0E552010811E08C
:10AD8000E66A64ECC4F0E552010812E104012A51BC
:10AD9000006E016A00500E019E1902E101509F19D8
:10ADA00007E00E01925103E1470E926F01D0920726
:10ADB000020EE66E41ECC4F0E552010812E0020E0C
:10ADC000E66E64ECC4F0E552010819E104012A5171
:10ADD000006E016A00500E019E1902E101509F1998
:10ADE0000EE0470E0E01E76E9219E8AE02D0E7348E
:10ADF00002D0E750925D02E3926B01D0922B0401E6
:10AE00002A510E019E6F9F6B4AD9C4EC5EF0010E71
:10AE1000E66E41ECC4F0E55201080BE10E010C0EA8
:10AE2000916F0E01010E906F90CEE6FF9CECBDF08D
:10AE3000E552E552E552E7CFD9FF1200D9CFE6FF40
:10AE4000E1CFD9FF020EE126E66A2CECB1F0E55223
:10AE5000050EE66E2CECB1F0E552E66AE66AC3EC4C
:10AE6000AFF0E552E552E66A010EE66EA4ECB0F0F2
:10AE7000E552E552E66A0B0EE66E5B0EE66E010EDB
:10AE8000E66EE9ECAFF0E552E552E552E552E66ACE
:10AE90000E019329006E0A0E016E01C02CF000C055
:10AEA00027F0B3ECC7F02750300FE66E41ECB0F05E
