:0200000601000000000000000000000000000000f7
:100000008A111128FF3FFF3FFE00030EF90004088C
:10001000FA000A08FB00831203137F08FC008A150C
:10002000912E8A11D42E83126C1C222800306B0270
:10003000031D202801306A02031D2028F5306902C3
:1000400003188428EC1C302800306B02031D2E2876
:1000500003306A02031D2E28E93069020318842840
:100060006C1D3E2800306B02031D3C2807306A02DD
:10007000031D3C28D130690203188428EC1D4C284C
:1000800000306B02031D4A2813306A02031D4A2800
:1000900089306902031884286C1E5A2800306B02CC
:1000A000031D582827306A02031D582811306902A1
:1000B00003188428EC1E682800306B02031D662894
:1000C000EA306A02031D6628613069020318842839
:1000D0006C1F762809306B02031D742827306A02D2
:1000E000031D7428C130690203188428EC1F8B2873
:1000F00036306B02031D8228EE306A02031D82280F
:1001000081306902031C8B28083087069C20E90196
:10011000EA01EB0108000630E8003030E700E70BA9
:100120008F28E80B8F28640083120313E90A031950
:10013000EA0A0319EB0A08003A248A113808E60093
:100140003708E500C1248A113808E4003708E300C5
:10015000C9006408CA00CB01CC016508CD0066085F
:10016000CE00CF01D0011F218A114A08E4004908BE
:10017000E3006408ED0063088316A000831265089D
:10018000C9006608CA00CB01CC01D0204A08E600AD
:100190004908E5006608EE006508EF0073140800E2
:1001A000CD30BD001E30BE00C230BF00D730AE0023
:1001B0002330AF003C30B0004C08AB004B08AA0025
:1001C0004A08A9004908A80074238A112808B10028
:1001D0002908B2002A08B30039228A112E08C0006B
:1001E0002F08C1003008C200B4228A113D08D00097
:1001F0003E08D1003F08D200C830AE01AF00423007
:10020000B0005008B1005108B2005208B3003922C2
:100210008A112E08CD002F08CE003008CF004D08DF
:10022000A0004E08A1004F08A200E1232308CC0043
:100230002208CB002108CA002008C9000800CD30E0
:10024000BD001E30BE00C230BF00D730AE0023302C
:10025000AF003C30B0005008AB004F08AA004E0879
:10026000A9004D08A80074238A112808B1002908A4
:10027000B2002A08B30039228A112E08C0002F08C4
:10028000C1003008C200B4228A113D08D1003E08E6
:10029000D2003F08D3004C08AB004B08AA004A0824
:1002A000A9004908A80074238A112808AE0029086B
:1002B000AF002A08B0004C08AB004B08AA004A085F
:1002C000A9004908A80074238A112808B100290848
:1002D000B2002A08B30039228A112E08DA002F084A
:1002E000DB003008DC002530AE00D630AF00B53082
:1002F000B0005A08B1005B08B2005C08B3003922B4
:100300008A112E08BD002F08BE003008BF005330F0
:10031000AE001630AF003D30B0004C08AB004B08CB
:10032000AA004A08A9004908A80074238A112808CD
:10033000B1002908B2002A08B30039228A112E0818
:10034000C0002F08C1003008C200B4228A113D0845
:10035000DD003E08DE003F08DF00FF30BD00023058
:10036000BE00C030BF005D08C0005E08C1005F086D
:10037000C200B4228A113D08D4003E08D5003F08CF
:10038000D600D730BD002330BE003C30BF00C630A1
:10039000AE00A730AF003830B0004C08AB004B08BF
:1003A000AA004A08A9004908A80074238A1128084D
:1003B000B1002908B2002A08B30039228A112E0898
:1003C000C0002F08C1003008C200B4228A113D08C5
:1003D000AE003E08AF003F08B000C830BD01BE000F
:1003E000C130BF005108C0005208C1005308C2000C
:1003F000B4228A113D08B1003E08B2003F08B300A4
:1004000039228A112E08E0002F08E1003008E200AE
:10041000C830AE01AF004230B0005408BD005508EE
:10042000BE005608BF006008C0006108C100620835
:10043000C200B4228A113D08B1003E08B2003F0854
:10044000B30039228A112E08D7002F08D8003008AF
:10045000D9005708A0005808A1005908A200E123BC
:100460002308CC002208CB002108CA002008C900BC
:1004700008002E08B4002F08B5003008B60003109D
:10048000350D360DB700B708031D4A2AAE01AF017E
:10049000B00108003108B4003208B5003308B600D6
:1004A0000310350D360DBC00BC08031D5B2AAE01E0
:1004B000AF01B00108003C087B3EB7073008BC0024
:1004C0003308BC068030BC050730AF17B217B30144
:1004D000B801B901BA01BB002E1C7C2A3108B8074B
:1004E000320803110318320A031DB9073308031138
:1004F0000318330A031DBA070310B00CAF0CAE0C7F
:100500000310B10DB20DB30DBB0B6C2A0930BB004B
:100510002E1C982A3108B807320803110318320A32
:10052000031DB907330803110318330A031DBA0763
:100530000310B00CAF0CAE0C0310BA0CB90CB80C15
:10054000BB0B882A3808A0003908A1003A08A2008D
:100550003708A3003C08A400A3232008AE0021080C
:10056000AF002208B00008003D08C3003E08C400E8
:100570003F08C5000310440D450DC8004008C300E6
:100580004108C4004208C5000310440D450DC700D2
:1005900048080319D72A4708480247080318DF2AE2
:1005A000C3004808C30219304302031CDE2A400876
:1005B000BD004108BE004208BF00080047080319FB
:1005C0000800480847020318ED2A4808C3004708F6
:1005D000C30219304302031808000630C600BF1BCF
:1005E000C617C21B4617BE17BF01C117C201470875
:1005F00048020318142B0310C00DC10DC20DC70310
:100600004708480603190F2BC60346080739031984
:100610000F2BFB2A0310BF0CBE0CBD0CC80A4808E8
:1006200047060319302B0A2B480847020318302BC2
:100630000310BD0DBE0DBF0DC803470848060319C2
:100640002C2BC6034608073903192C2B182B031033
:10065000C20CC10CC00CC70A48084706031D272B53
:10066000C61F3B2BFF30BD06BE06BF06BD0A0319E1
:10067000BE0A0319BF0A461F462BFF30C006C1063B
:10068000C206C00A0319C10A0319C20AC6013D08FD
:10069000C0073E08031103183E0A031DC1073F08A7
:1006A000031103183F0A031DC207C21F622BFF304C
:1006B000C006C106C206C00A0319C10A0319C20A4C
:1006C000C601C60A4008A0004108A1004208A200D5
:1006D0004808A3004608A400A3232008BD00210861
:1006E000BE002208BF0008008E30AD01AC00AB1F79
:1006F000862BA809A909AA09AB09A80A0319A90AFE
:100700000319AA0A0319AB0AAD01AD0AFF302B0584
:100710000319912B0310AB0CAA0CA90CA80CAC0A62
:10072000862B2808A0002908A1002A08A2002C086E
:10073000A3002D08A400A3232008A8002108A900D5
:100740002208AA00080023080319AB2B2208210461
:100750002004031DB42BA001A101A2010800A30ADB
:100760000310A20CA10CA00CFE3022050319C32B10
:10077000AF2BA30AA00A0319A10A0319A20A0310A6
:10078000A20CA10CA00CFF3022050319CD2BB92B14
:10079000A3030310A00DA10DA20DA11FC82B231CA4
:1007A000A1130310A30C2308A700A601A501250887
:1007B000A0042608A1042708A2042408031DA217E8
:1007C0000800A2268A110310250D260DAC00AC08E6
:1007D000031DEF2BA001A101A201A3010800A22685
:1007E0008A1117300310A60CA50CA40CFF3E031DA4
:1007F000F22B2408A700A117A2012008A8002108B5
:10080000A9002208AA008E30AB01AC02AC1F152C47
:100810002C08803A8F3E031CEA2B0310AB0CAA0C69
:10082000A90CA80CAC0F0D2C232C18302C0203188B
:10083000EA2BAC080319232C0310A80DA90DAA0D4F
:10084000AB0DAC03192C27080319312CA809A909F1
:10085000AA09AB09A80A0319A90A0319AA0A0319C4
:10086000AB0A2B08A3002A08A2002908A100280827
:10087000A0000800EF248A11033083120313A8009C
:10088000A90134258A11DD258A112308BE0022081A
:10089000BD002108BC002008BB003B0A03193C0A2C
:1008A0003D043E04031D562C5E268A118312031359
:1008B0003B0A03193C0A3D043E0403193A2C3E0846
:1008C000BA003D08B9003C08B8003B08B700080072
:1008D000831610169016901D6B2C95019601031728
:1008E0008501831295019601831686018701831283
:1008F00003138711831687118312871183168617B6
:1009000087248A11A0248A115E268A11A52C193009
:100910000616061783129400FF30831693001630D4
:100920008312940001308316930080309400941752
:1009300083121416130894168C1183168C15080054
:10094000FF30F5000B178B1708000030F3058312FA
:1009500003136C0800390238EC00F601F401F201CF
:10096000F001F101EE01EF01ED0183166430A00109
:10097000A301A401A701A800A101A201A501A6004D
:100980000800EF248A11053083120313A800A9017F
:1009900034258A11DD258A112308BE002208BD00F6
:1009A0002108BC002008BB003B0A03193C0A3D0497
:1009B0003E04031DDD2C5E268A11831203133B0ABD
:1009C00003193C0A3D043E040319C12C3E08BA0039
:1009D0003D08B9003C08B8003B08B7000800831682
:1009E00003130512831205168316871283128712CA
:1009F000F92CFA2CFB2CFC2C831603138712831280
:100A00008716022D032D042D052D831603130512C1
:100A1000831205120B2D0C2D0D2D0E2D8316031395
:100A20008712831207308712A000A00B152D182DF6
:100A3000831603138712831287161E2D1F2D202D58
:100A4000212D83160313051283120516272D282D39
:100A5000292D2A2D83160313871283128712302D16
:100A6000312D322D332D08008030AD00AE018312C0
:100A7000031328082D05AA0029082E05AB002A0417
:100A80000319472D83160512831205164B2D831665
:100A90000512831205124C2D4D2D4E2D4F2D831610
:100AA0000313871283128716552D562D572D582D57
:100AB000831603138712831202308712A000A1014C
:100AC0002E08A3002D08A20098258A112108AE0047
:100AD0002008AD002E08803AFF0080307F02031D01
:100AE000732D01302D020318372D831603130516BD
:100AF000792D7A2D7B2D7C2D83160313871283127B
:100B00008716822D832D842D852D8316031387123E
:100B1000831206308712AC001330AB00B130AA004C
:100B2000AA0B902DAB0B902DAC0B902D972D0800A0
:100B3000A501A11FA22DA009A109A00A0319A10ABC
:100B4000A501A50AA31FAB2DA209A309A20A031997
:100B5000A30A0130A506A601A70121082004031954
:100B6000D02DA401A40AA11BB92D0310A00DA10D25
:100B7000B22D0310A60DA70D21082302031DC22DBF
:100B800020082202031CCC2D2008A2022108031CED
:100B9000A303A30226140310A10CA00CA40BB92DCF
:100BA00025080319D82DA609A709A60A0319A70A1B
:100BB0002708A1002608A000080083120313A9013A
:100BC000AA01AB01AC01AD01AE01AF01B001B501AD
:100BD000B60183160313051603108312A90DAA0D7F
:100BE000AB0DAC0D87268A11F52DF62DF72DF82DBE
:100BF000B0268A11FB2DFC2DFD2DFE2DA9268A1174
:100C0000031D2914B50A96268A11031CE92D8316A3
:100C100003130512831205120D2E0E2E0F2E102E09
:100C200083160313871283128716162E172E182E7B
:100C3000192EB0268A11831605161E2E1F2E202E61
:100C4000212E83120313B501B6010310831203137F
:100C5000AD0DAE0DAF0DB00D87268A112F2E302EA3
:100C6000312E322E83160313871283128712382EE9
:100C7000392E3A2E3B2EA9268A11031D2D14B50AB2
:100C800096268A11031C262E831203132B08A80014
:100C90002A08A7002908A600A5012D08A5042E08EA
:100CA000A6042F08A7043008A8042808A3002708D2
:100CB000A2002608A1002508A0000800831605123E
:100CC00083120516A201A301831603138712831250
:100CD00087166A2E6B2E6C2E6D2E831603138712C9
:100CE00083128712732E742E752E762E83120313A1
:100CF000A20A0319A30A2308803AFF0080307F026A
:100D0000031D842E09302202031C642EEF2C83164F
:100D10008712831287160310051A03140030031874
:100D20000130B100B201B301B40108000319B60AE1
:100D30003608803AFF0080307F02031D080008302B
:100D4000350208002008A4002108A5002208A600FA
:100D500008008312031334083304320431040800FA
:100D60008316031387128312871208008101E90199
:100D7000EA01EB018A1168248A118312861FC82EAA
:100D800083161303031DD02E8A1112278A11D02E29
:100D900083161308023A031DD02E8A1115278A11D3
:100DA0008A1113208A11BD2EF001F101F201F30125
:100DB000F401F501F601E901EA01EB01EC01ED01B5
:100DC000EE01EF018316A001A101A201A301A4017C
:100DD000A501A601A701A80183018A11B62EFF3F34
:100E0000FF1B0A2F83137F1883170008840A031916
:100E1000FF0A08007F087F398A000408840A031942
:100E2000FF0A82000230930008000130930008009E
:101D2000FF3F87158C1DCF2E83168C1DCF2E83125F
:101D30008C118316941E1419A32E141CA32E831227
:101D40001308FF30B02E941A1419B92E141CB92E92
:101D500083121308FD007508FF3A031DB22E7D089B
:101D6000F500CF2E7D08F7007508DC268A15F50AE8
:101D7000CF2E941E141DC82E1418C82E83121308BB
:101D8000750864278A1583129300F50A1416CF2E5E
:101D9000941A141DCF2E1418CF2E831213087C080A
:101DA00083120313FF007B088A007A088400790EEF
:101DB0008300FE0E7E0E0900F800282F73087706B8
:101DC00000397706F300F31C080000286C0877063A
:101DD00000397706EC0008007708F600080077085D
:101DE000F40008007708F20008007708F000080007
:101DF0007708F10008007708EE0008007708EF0088
:101E000008007708ED00080077088316A000080096
:101E100077088316A300080077088316A40008003B
:101E200077088316A700080077088316A800080023
:101E300077088316A100080077088316A20008001F
:101E400077088316A500080077088316A600080007
:101E50007808003A0319DE2E013A0319E62E033AF8
:101E60000319EC2E013A0319EF2E133A0319F22E3F
:101E7000013A0319F52E033A0319F82E323A0319E1
:101E8000FB2E013A0319FE2E033A0319012F013AE2
:101E90000319042F133A0319082F013A03190C2FC1
:101EA000033A0319102F013A0319142F073A0319A3
:101EB000182F013A03191C2F033A0319202F013A56
:101EC0000319242F632F0800F700FF30F800A72F15
:101ED00073086B2F6C08FF39A32F7608A32F7408A3
:101EE000A32F7208A32F7008A32F7108A32F6E08C9
:101EF000A32F6F08A32F6D08A32F83162008A32FED
:101F000083162308A32F83162408A32F83162708DC
:101F1000A32F83162808A32F83162108A32F831627
:101F20002208A32F83162508A32F83162608A32F84
:101F3000F0309D2FF1309D2FF23084008F30FF0064
:101F40008A1100278A15F800EE2FF801EE2F770886
:101F5000003A0319682F013A03196A2F033A03194B
:101F60006D2F013A03196F2F133A0319712F013A9C
:101F70000319732F033A0319752F323A0319772F78
:101F8000013A0319792F033A03197B2F013A0319F8
:101F90007D2F133A0319802F013A0319832F033A37
:101FA0000319862F013A0319892F073A03198C2F39
:101FB000013A03198F2F033A0319922F013A03199B
:101FC000952F743A03199C2F153A0319982F343A18
:101FD0000319A52F143A03199A2FEE2F7808080039
:101FE000013400340234FF3FFF3FFF3FFF3FFF3F1C
:00000001FF

